:100000000C9413130C943D130C943D130C943D135A
:100010000C943D130C943D130C943D130C943D1320
:100020000C943D130C943D130C943D130C943D1310
:100030000C943D130C949C320C943D130C943D1382
:100040000C943D130C94D8B80C9452290C943D1385
:100050000C9428B70C943D130C943D130C943D1351
:100060000C943D130C943D130C943D130C943D13D0
:100070000C943D130C943D130C943D130C943D13C0
:100080000C94773A0C943D130C943D13697E6E7E6C
:10009000737E7D7EAB7E877E8F7E977EA17E5EB9EE
:1000A00062B971B975B984B98FB948B9EDBDF0BD00
:1000B000E3BDE7BD07BEF4BDF8BDFEBD02BE4E41C7
:1000C0004E494E495459494E46CDCCCC3D0AD723D2
:1000D0003C17B7D13877CC2B329595E6241FB14F1A
:1000E0000A000020410000C84200401C4620BCBE5F
:1000F0004CCA1B0E5AAEC59D74434F4D4D554E49CB
:10010000434154494F4E0044525952554E004552B6
:10011000524F525300494E464F004543484F0053FB
:100120006C6565702E2E2E00473238205A20466F9F
:100130007262696464656E0A00473238205A20464C
:100140006F7262696464656E00205A3A200020591B
:100150003A200042656420583A20004D65736820BB
:10016000706F696E742063616E6E6F7420626520BB
:100170007265736F6C7665640A00526573756D699C
:100180006E67207072696E7400503830324E5F4D69
:10019000454C5A492072656164792E00436C69634D
:1001A0006B20746F20726573756D652E2E2E004E58
:1001B0006F206D6F76652E00456E642066696C65F4
:1001C000206C6973740A00426567696E2066696C09
:1001D00065206C6973740A005344207072696E74F0
:1001E000696E67206279746520004E6F74205344F5
:1001F000207072696E74696E670A00256973002544
:10020000696D20256973002569682025696D2025A1
:10021000697300256964202569682025696D20259A
:10022000697300256979202569642025696820257E
:10023000696D20256973005072696E742074696D50
:10024000653A2000452569202573001A0115010E25
:10025000010701F9006F66660044454255473A00C0
:100260004B494C4C45442E20006F6B00486561742F
:10027000696E6720646F6E652E0020573A00452531
:10028000692025730042656420646F6E652E00202E
:10029000573A004265642048656174696E672E00B4
:1002A000503830324E5F4D454C5A49204F66662ECD
:1002B00000454D455247454E43595F5041525345C5
:1002C0005200434153455F4C494748545F425249AD
:1002D0004748544E45535300544F47474C455F4C95
:1002E000494748545300534F4654574152455F5075
:1002F0004F574552004255494C445F504552434583
:100300004E54004C4556454C494E475F444154417C
:10031000005A5F50524F4245004155544F4C45568C
:10032000454C005052494E545F4A4F420050524F84
:100330004752455353004155544F5245504F525424
:100340005F54454D5000564F4C554D45545249430E
:1003500000454550524F4D0053455249414C5F585E
:100360004F4E5F584F4646004649524D5741524501
:100370005F4E414D453A4D61726C696E204261732A
:1003800065206F6E204D61726C696E312E312E3892
:100390002028766C61696E652047697468756229EA
:1003A00020534F555243455F434F44455F55524C90
:1003B0003A68747470733A2F2F6769746875622E87
:1003C000636F6D2F766C61696E652050524F544F8C
:1003D000434F4C5F56455253494F4E3A312E3020D1
:1003E0004D414348494E455F545950453A50383085
:1003F000324E5F4D454C5A4920455854525544455C
:10040000525F434F554E543A3120555549443A3086
:10041000303030303031302D303830382D303030D1
:10042000332D303030302D323031383031313030C2
:1004300030310A002F2F20004D31343520533C69D4
:100440006E6465783E206F7574206F662072616EF1
:1004500067652028302D31290A0053657474696E50
:10046000672054726176656C20416363656C6572C8
:100470006174696F6E3A200053657474696E672009
:100480005265747261637420416363656C65726167
:1004900074696F6E3A200053657474696E672050FA
:1004A00072696E7420416363656C65726174696F13
:1004B0006E3A200053657474696E67205072696EDD
:1004C0007420616E642054726176656C20416363B0
:1004D000656C65726174696F6E3A2000205A002065
:1004E0005900580020204D61783A2000205A002001
:1004F0005900580020204D696E3A20004F6E2000B0
:100500004F666600536F667420656E6473746F7017
:10051000733A200000010F150E12FF16170E13FF7D
:1005200003021A14FFFFFF0C04FFFFFF01000EFF80
:10053000FF0C1E0DFFFFFFFFFFFFFFFF206F757415
:10054000206F662072616E67650A00536572766F70
:1005500020003A200020536572766F200020643A14
:100560000020693A0020703A0043290A0061626C59
:10057000656420286D696E2074656D702000436F7E
:100580006C6420657874727564657320617265208F
:10059000004F66660A0046616465204865696768C1
:1005A000742000426564204C6576656C696E672036
:1005B000004661696C656420746F20656E61626CD1
:1005C0006520426564204C6576656C696E670A003B
:1005D0004D65736820706F696E742063616E6E6F15
:1005E00074206265207265736F6C7665640A004DD5
:1005F00034323120696E636F72726563742070618A
:1006000072616D657465722075736167650A003A81
:100610002000207A5F6D696E3A20202D3230207ADA
:100620005F6D61783A202032300A0050726F626547
:10063000205A204F6666736574004E6F20636173A5
:1006400065206C696768740A004163746976652087
:1006500045787472756465723A2000556E6B6E6FE2
:10066000776E20636F6D6D616E643A20220000002A
:100670000000010204040000001C1C0C040404021D
:1006800001000000000004081000000000002D2DF3
:100690002D2D2D2D2D2D007C5A4F4E45535441525A
:1006A0007C002D2D2D2D2D2D2D2D00687474703A6C
:1006B0002F2F7777772E7A6F6E657374617233643C
:1006C0002E636F6D0042617365206F6E204D617205
:1006D0006C696E312E312E380042617365206F6E69
:1006E000204D61726C696E312E312E380000202051
:1006F000506C616E6E6572427566666572427974A1
:1007000065733A20002046726565204D656D6F72F5
:10071000793A2000436F6D70696C65643A204665D4
:100720006220323520323031390A00207C20417578
:1007300074686F723A20766C61696E650A003230B7
:1007400031392D303200204C617374205570646152
:100750007465643A200042617365206F6E204D61BC
:10076000726C696E312E312E380A004D61726C69DF
:100770006E0020536F6674776172652052657365F1
:10078000740A00205761746368646F672052657350
:1007900065740A002042726F776E206F7574205264
:1007A000657365740A002045787465726E616C200B
:1007B00052657365740A00506F77657255700A0050
:1007C00073746172740A006572726F722077726955
:1007D00074696E6720746F2066696C650A00456EE7
:1007E0006473746F70732025632025632025632054
:1007F000256300205A3A0020593A0020583A0065F3
:100800006E6473746F7073206869743A2000446F6B
:100810006E6520736176696E672066696C652E0A65
:10082000004D323900486F6D65202573257325739F
:10083000206669727374002066697273740A005AC4
:100840000059005800486F6D65200057726974693F
:100850006E6720746F2066696C653A20006F706562
:100860006E206661696C65642C2046696C653A206F
:10087000006F70656E206661696C65642C20466946
:100880006C653A200046696C652073656C6563741D
:1008900065640A002053697A653A200046696C65F0
:1008A000206F70656E65643A20006F70656E20661B
:1008B00061696C65642C2046696C653A200020668D
:1008C000696C653A2000646F696E670066726573D3
:1008D00068004E6F772000454E4420535542524FDA
:1008E0005554494E450A002220706F730022207033
:1008F0006172656E743A2200535542524F55544905
:100900004E452043414C4C207461726765743A2215
:10091000004B494C4C45442E2000747279696E6737
:1009200020746F2063616C6C207375622D67636F38
:1009300064652066696C6573207769746820746FDC
:100940006F206D616E79206C6576656C732E204D1D
:100950004158206C6576656C2069733A0043616E7E
:100960006E6F74206F70656E20737562646972209B
:100970000024F4D43050C38E20C2A24017828B7062
:1009800011127A910D816CD90AA861E108C75866E5
:1009900007615143061E4B5D05C145A7041A41116D
:1009A00004093D9803713931034036DB0265339108
:1009B00002D4305402802E1D02632CEE01752AC52C
:1009C00001B028A001102781018F2564012B244B41
:1009D00001E0223401AC211F018D200D01801FFC9C
:1009E00000841EED00971DDF00B81CD200E61BC678
:1009F00000201BBC00641AB200B219A8000A19A09A
:100A0000006A189900D117910040178B00B5168421
:100A10000031167E00B31579003A157300C7146FC4
:100A20000058146A00EE1366008813630025135EF5
:100A300000C7125B006C12570015125400C111510F
:100A40000070114F0021114B00D61049008D104746
:100A5000004610440002104200C00F4000800F3ECC
:100A600000420F3C00060F3B00CB0E3800930E37C0
:100A7000005C0E3500270E3400F30D3200C10D313D
:100A800000900D3000600D2E00320D2D00050D2C54
:100A900000D90C2B00AE0C2900850C29005C0C271A
:100AA00000350C27000E0C2600E80B2400C40B2494
:100AB00000A00B23007D0B23005A0B2100390B21D2
:100AC00000180B2000F80A1F00D90A1E00BB0A1EDE
:100AD000009D0A1D00800A1D00630A1C00470A1BB6
:100AE000002C0A1B00110A1A00F7091A00DD091967
:100AF00000C4091900AB091900920917007B0918F5
:100B000000630917004C0916003609160020091663
:100B1000000A091500F5081500E0081400CC0814B7
:100B200000B8081400A4081400900813007D0812EF
:100B3000006B081300580812004608120034081110
:100B400000230811001208110001081100F007101D
:100B500000E0071000D0071000C0071000B0070F1A
:100B600000A107100091070E0083070F0074070F04
:100B70000065070E0057070E0049070E003B070DE2
:100B8000002E070E0020070D0013070D0006070DAD
:100B900000F9060C00ED060D00E0060C00D4060C72
:100BA00000C8060C00BC060C00B0060C00A4060B26
:100BB0000099060C008D060B0082060B0077060BD1
:100BC000006C060B0061060A0057060B004C060A73
:100BD0000042060A0038060A002E060A0024060A09
:100BE000001A060A001006090007060A00FD05099A
:100BF00000F4050900EB050900E2050900D9050923
:100C000000D0050900C7050900BE050900B50508A3
:100C100000AD050800A50509009C0508009405081D
:100C2000008C050800840508007C05080074050890
:100C3000006C050700650508005D050700560508FE
:100C4000004E050700470507004005080038050766
:100C500000310507002A050700230507001C0506CB
:100C600000160507000F0507000805060002050726
:100C700000FB040600F5040700EE040600E8040685
:100C800000E2040700DB040600D5040600CF0406DA
:100C900000C9040600C3040600BD040600B704062C
:100CA00000B1040500AC040600A6040600A004057B
:100CB000009B04060095040500900406008A0405C4
:100CC0000085040500800406007A0405007504050B
:100CD00000700405006B040500660405006104054E
:100CE000005C04050057040500520405004D04058E
:100CF0000048040500430405003E0404003A0405CE
:100D00000035040500300404002C04050027040409
:100D100000230405001E0404001A04040016040540
:100D200000110404000D0404000904050004040477
:100D30000000040400FC030400F8030400F40304AE
:100D400000F0030400EC030400E8030400E40304DF
:100D500000E0030400DC030400D8030400D403040F
:100D600000D0030400CC030400C8030300C5030340
:100D70000024F404D9201BC40C5C0E9804C4095F41
:100D80000265077101F405F900FB04B3004804870C
:100D900000C10369005803550003034500BE023A31
:100DA000008402310053022A002902250004022097
:100DB00000E4011C00C8011900AF011700980114DC
:100DC0000084011300710110006101100051010E37
:100DD0000043010D0036010B002B010B0020010B1D
:100DE00000150109000C01090003010800FB0008BF
:100DF00000F3000800EB000700E4000600DE000638
:100E000000D8000600D2000600CC000500C700058F
:100E100000C2000500BD000400B9000400B50004D4
:100E200000B1000400AD000400A9000400A5000307
:100E300000A20003009F0004009B00030098000331
:100E4000009500020093000300900003008D000253
:100E5000008B00030088000200860002008400036B
:100E600000810002007F0002007D0002007B000282
:100E70000079000200770001007600020074000291
:100E80000072000100710002006F0002006D00019D
:100E9000006C0002006A00010069000200670001A6
:100EA00000660001006500010064000200620001AC
:100EB0000061000100600001005F0002005D0001B0
:100EC000005C0001005B0001005A000100590001B4
:100ED00000580001005700010056000100550001B4
:100EE00000540001005300000053000100520001B3
:100EF0000051000100500001004F0001004E0000B1
:100F0000004E0001004D0001004C0001004B0000AC
:100F1000004B0001004A00010049000100480000A8
:100F200000480001004700010046000000460001A3
:100F3000004500000045000100440001004300009E
:100F40000043000100420000004200010041000097
:100F50000041000100400001003F0000003F00018F
:100F6000003E0000003E0001003D0000003D000189
:100F7000003C0000003C0000003C0001003B000081
:100F8000003B0001003A0000003A00010039000077
:100F9000003900010038000000380000003800016E
:100FA0000037000000370001003600000036000066
:100FB000003600010035000000350000003500015A
:100FC0000034000000340000003400010033000051
:100FD0000033000000330001003200000032000046
:100FE000003200010031000000310000003100013A
:100FF000003000000030000000300001002F000031
:10100000002F0000002F0000002F0001002E000024
:10101000002E0000002E0001002D0000002D000019
:10102000002D0000002D0001002C0000002C00000D
:10103000002C0000002C0001002B0000002B000001
:10104000002B0000002B0001002A0000002A0000F5
:10105000002A0000002A00010029000000290000E9
:1010600000290000002900000029000100280000DC
:1010700000280000002800000028000000280001CF
:1010800000270000002700000027000000270000C4
:1010900000270001002600000026000000260000B6
:1010A00000260000002600010025000000250000A9
:1010B000002500000025000000250000002500019B
:1010C0000024000000240000002400000024000090
:1010D0000024000100230000002300000023000082
:1010E0000023000000230000002300000023000173
:1010F0000022000000220000002200000022000068
:101100000022000000220001002100000021000058
:10111000002100000021000000210000002100004B
:10112000002100010020000000200000002000003D
:10113000002000000020000000200000002000002F
:1011400000200001001F0000001F0000001F000021
:10115000001F0000001F0000001F0000001F000112
:10116000001E0000001E0000001E0000001E000007
:1011700000A00F001003A00F001002A00F0010012C
:101180002C01F401086C079808053A026603076E03
:101190000A360B047E04AA050656652D6A65726B35
:1011A0000056652D6A65726B0056652D6A65726B17
:1011B00000567A2D6A65726B00567A2D6A65726BDD
:1011C0000056792D6A65726B0056792D6A65726BCF
:1011D0000056792D6A65726B0056782D6A65726BC0
:1011E0000056782D6A65726B0056782D6A65726BB1
:1011F000004D6F74696F6E004573746570732F6D69
:101200006D004573746570732F6D6D005A7374654E
:1012100070732F6D6D005A73746570732F6D6D0050
:101220005973746570732F6D6D00597374657073A5
:101230002F6D6D005873746570732F6D6D0058734A
:10124000746570732F6D6D004D6F74696F6E005310
:10125000746570732F6D6D004A65726B0041636336
:10126000656C65726174696F6E0056656C6F636959
:101270007479005A204F6666736574005A204F6671
:101280006673657400436F6E74726F6C0043616EB9
:101290006E6F7420656E7465722073756264697216
:1012A0003A2000052E2E00045265667265736800B0
:1012B0004D61696E0053544F505045442E200050EC
:1012C00072696E7465722073746F707065642064E7
:1012D000756520746F206572726F72732E20466977
:1012E0007820746865206572726F7220616E642068
:1012F000757365204D39393920746F2072657374A8
:101300006172742E202854656D70657261747572F7
:10131000652069732072657365742E20536574208F
:101320006974206166746572207265737461727489
:10133000696E67290A0053544F502063616C6C65D5
:10134000642062656361757365206F6620424C544A
:101350006F756368206572726F72202D20726573DD
:10136000746172742077697468204D3939390A00C4
:1013700042696C696E656172204C6576656C696E58
:101380006720477269643A0A0020706F7369746954
:101390006F6E206F7574206F662072616E67652EA8
:1013A0000A003F50726F6265200020284452595253
:1013B000554E2900473239204175746F20426564CB
:1013C000204C6576656C696E670028422961636B05
:1013D00000284629726F6E74002852296967687464
:1013E00000284C29656674003F2856296572626F93
:1013F0007365206C6576656C20697320696D706C0F
:1014000061757369626C652028302D34292E0A00BD
:10141000426164205A2076616C75650A004E6F2027
:1014200062696C696E65617220677269640A002086
:10143000204D383531205A005A2D50726F62652088
:101440004F666673657420286D6D293A0A00204442
:101450000020490020204D333031205000504944B5
:101460002073657474696E67733A0A002046002021
:10147000420020480020204D3134352053004D617A
:1014800074657269616C2068656174757020706143
:1014900072616D65746572733A0A00205A002020EB
:1014A0004D3432302053004175746F204265642002
:1014B0004C6576656C696E673A0A00204500205AD3
:1014C0000020590020580020420020540020204DC8
:1014D000323035205300416476616E6365643A2092
:1014E000533C6D696E5F66656564726174653E202C
:1014F000543C6D696E5F74726176656C5F6665659C
:1015000064726174653E20423C6D696E5F7365670D
:101510006D656E745F74696D655F75733E20583CD0
:101520006D61785F78795F6A65726B3E205A3C6DB9
:1015300061785F7A5F6A65726B3E20453C6D6178C9
:101540005F655F6A65726B3E0A002054002052009E
:1015500020204D323034205000416363656C657249
:101560006174696F6E2028756E6974732F733229E8
:101570003A20503C7072696E745F616363656C3EC3
:1015800020523C726574726163745F616363656C61
:101590003E20543C74726176656C5F616363656C78
:1015A0003E0A00204500205A0020590020204D32DC
:1015B00030312058004D6178696D756D204163634D
:1015C000656C65726174696F6E2028756E697473DD
:1015D0002F7332293A0A00204500205A0020590072
:1015E00020204D3230332058004D6178696D756D83
:1015F000206665656472617465732028756E697410
:10160000732F73293A0A00204500205A0020590000
:1016100020204D3932205800537465707320706556
:101620007220756E69743A0A0020204D32303020E5
:1016300044300A0020204D323030204400204469DC
:101640007361626C65640A0046696C616D656E74F5
:101650002073657474696E67733A0020204D3134CD
:10166000392043203B20556E69747320696E2043F6
:10167000656C736975730A00202047323120202081
:10168000203B20556E69747320696E206D6D0A00D1
:101690007A5F6D696E3A2000795F6D696E3A20005D
:1016A000785F6D696E3A20005265706F7274696E72
:1016B0006720656E6473746F7020737461747573E2
:1016C0000A0020746F6F206C6F6E672065787472EB
:1016D0007573696F6E2070726576656E7465640AE5
:1016E0000020636F6C6420657874727573696F6E27
:1016F0002070726576656E7465640A00290A0020A0
:1017000062797465733B206372632000536574745F
:10171000696E67732053746F7265642028002028F7
:1017200063616C63756C6174656429210A00202112
:101730003D2000454550524F4D20435243206D6996
:10174000736D61746368202D202873746F726564F3
:10175000292000290A002062797465733B20637296
:101760006320002073746F726564207365747469FC
:101770006E677320726574726965766564202800EF
:10178000204D61726C696E3D563438290A00284537
:101790004550524F4D3D00454550524F4D207665C6
:1017A0007273696F6E206D69736D61746368200078
:1017B00048617264636F6465642044656661756C3A
:1017C000742053657474696E6773204C6F6164652F
:1017D000640A00D0070000200300006400000088B5
:1017E000130000000016430000C842000000410042
:1017F0000048420000A0420000A0420000C8430090
:1018000000AA4246696C652064656C657465643A3B
:101810000044656C6574696F6E206661696C65640F
:101820002C2046696C653A20006F70656E206661F9
:10183000696C65642C2046696C653A200050726FB3
:101840007465637465642050696E0A00205A3A001A
:1018500020593A0020436F756E7420583A00204595
:101860003A00205A3A0020593A00583A003A0043C8
:1018700061703A0023646566696E652020444546C0
:1018800041554C545F4B64200023646566696E6566
:10189000202044454641554C545F4B692000236449
:1018A0006566696E65202044454641554C545F4B42
:1018B000702000504944204175746F74756E652026
:1018C00066696E6973686564212050757420746858
:1018D00065206C617374204B702C204B6920616E05
:1018E00064204B6420636F6E7374616E7473206642
:1018F000726F6D2062656C6F7720696E746F204324
:101900006F6E66696775726174696F6E2E680A0022
:10191000504944204175746F74756E652066616925
:101920006C6564212074696D656F75740A00544894
:1019300045524D414C2052554E4157415900546833
:1019400065726D616C2052756E61776179004865D2
:101950006174696E67206661696C656400486561E1
:1019600074696E67206661696C6564005049442043
:101970004175746F74756E65206661696C6564216C
:101980002054656D706572617475726520746F6F37
:1019900020686967680A00204B643A2000204B6980
:1019A0003A2000204B703A20000A20436C61737388
:1019B000696320504944200A002054753A200020D1
:1019C0004B753A2000206D61783A2000206D696ED9
:1019D0003A200020643A200020626961733A2000B6
:1019E00053442063617264206F6B0A006F70656EF0
:1019F000526F6F74206661696C65640A00766F6C63
:101A0000756D652E696E6974206661696C65640A1E
:101A1000004572726F723A00534420696E697420F7
:101A20006661696C0A006175746F25692E670065CF
:101A300063686F3A004D3234004D32332025730015
:101A4000001C1F11111F00000006191803130C00C1
:101A5000040E1F041C000000000E1315110E0000E0
:101A60001C10181705060500040A0A0A0A11110EAF
:101A70000C12120C00000000001F1511151F0000B1
:101A8000507265686561742041425320456E640060
:101A9000507265686561742041425320426564005C
:101AA00050726568656174204142530050726570E0
:101AB000617265004261636B004E65787420636FEC
:101AC000726E6572004D32383020503020533136FE
:101AD0003000424C546F7563682053656C662D541A
:101AE000657374004D32383020503020533132301D
:101AF0000050726568656174204142530050726500
:101B00006865617420504C4100436F6F6C646F775F
:101B10006E00526573657420424C546F75636800A3
:101B20004C6576656C20636F726E657273004265FA
:101B300064204C6576656C696E67004732380A47E9
:101B40003239004D6F7665206178697300426564B3
:101B5000204C6576656C2054657374004731205ABB
:101B6000302046363030004175746F20686F6D65E7
:101B7000004732380044697361626C652073746594
:101B80007070657273004D3834004D61696E004DA0
:101B90006F76652058004D6F76652059004D6F7641
:101BA00065205A004578747275646572004D6F76D1
:101BB0006520302E316D6D004D6F766520316D6D75
:101BC000004D6F76652031306D6D004D6F7665206C
:101BD00061786973004578747275646572004D6F41
:101BE0007665205A004D6F76652059004D6F7665F9
:101BF000205800526573656E643A20006F6B0020B8
:101C0000746F6F206C6F6E6720657874727573697E
:101C10006F6E2070726576656E7465640A0020636D
:101C20006F6C6420657874727573696F6E20707262
:101C30006576656E7465640A004B494C4C45442ECC
:101C400020004B494C4C20636175736564206279B8
:101C500020746F6F206D75636820696E61637469AD
:101C600076652074696D65202D2063757272656ECE
:101C70007420636F6D6D616E643A2000506C656115
:101C80007365207265736574005052494E54455215
:101C90002048414C544544005072696E746572206E
:101CA00068616C7465642E206B696C6C28292063F4
:101CB000616C6C6564210A00656E71756575656996
:101CC0006E67202200000020C2000000000000001B
:101CD00000000048420000484200000040000000B0
:101CE000005761726E696E673A20486F6D696E6762
:101CF0002042756D702044697669736F72203C20B4
:101D0000310A000202040000A0400000A0400000D0
:101D1000004000008B430000854300006643FFFF46
:101D2000FF53746F7720424C546F756368004D32D7
:101D3000383020503020533930004465706C6F7952
:101D400020424C546F756368004D3238302050305B
:101D50002053313000424C546F7563682053656CDA
:101D6000662D54657374004D323830205030205346
:101D700031323000526573657420424C546F756384
:101D800068004D3238302050302053313630004D0D
:101D900061696E005072696E74207061757365645C
:101DA00000005072696E742061626F727465640025
:101DB0004D3231004E6F2053442063617264004302
:101DC00068616E67652053442063617264004D3220
:101DD00031005072696E742066726F6D205344003A
:101DE00053746F70207072696E7400526573756DF4
:101DF00065207072696E7400496E69742E205344B8
:101E00002063617264005061757365207072696E41
:101E10007400436F6E74726F6C0050726570617203
:101E2000650054756E6500496E666F207363726558
:101E3000656E004261627973746570205A00426178
:101E4000627973746570205A00466C6F7700466C37
:101E50006F7700466C6F770046616E207370656522
:101E6000640046616E2073706565640046616E2093
:101E70007370656564004265640042656400426594
:101E800064004E6F7A7A6C65004E6F7A7A6C6500EA
:101E90004E6F7A7A6C6500537065656400537065A7
:101EA0006564005370656564004D61696E00507231
:101EB000656865617420504C4120456E6400507225
:101EC000656865617420504C412042656400507221
:101ED000656865617420504C410050726570617294
:101EE00065004578747275646572004D6F76652083
:101EF0005A004D6F76652059004D6F766520580069
:101F00005072657061726500496E697469616C69CF
:101F10007A6520454550524F4D00436F6E74726F85
:101F20006C00526573746F7265206661696C7361D1
:101F30006665004C6F61642073657474696E6773C5
:101F400000496E697469616C697A65204545505233
:101F50004F4D0053746F72652073657474696E67BA
:101F60007300424C546F756368004D6F74696F6EF7
:101F70000054656D7065726174757265004D6169BC
:101F80006E00507265686561742041425320636F32
:101F90006E66005072656865617420504C41206324
:101FA0006F6E66005049442D44005049442D440052
:101FB0005049442D49005049442D49005049442D71
:101FC00050005049442D500046616E207370656585
:101FD000640046616E2073706565640046616E2022
:101FE0007370656564004265640042656400426523
:101FF00064004E6F7A7A6C65004E6F7A7A6C650079
:102000004E6F7A7A6C6500436F6E74726F6C00531A
:10201000746F72652073657474696E6773004265CE
:10202000640042656400426564004E6F7A7A6C65B4
:10203000004E6F7A7A6C65004E6F7A7A6C65004656
:10204000616E2073706565640046616E2073706513
:1020500065640046616E2073706565640054656D4B
:102060007065726174757265007C3C3E5E2B3D3F0D
:102070002F5B5D3B2C2A225C001000AA03800040ED
:102080000100012C01B001220140021001F0020206
:10209000018003F8004004F500E004ED009005E441
:1020A000003006DD00E006D7008007D1003008CC04
:1020B00000D008C7007009C300100ABE00B00ABBF8
:1020C00000500BB700900CB300D00DAA00B00FA5C4
:1020D00000F010A00030129600D0129000F0158B86
:1020E00000D0178500B0198000F01A7B00701D75B4
:1020F00000F01F6F00702269004025640020275FF8
:1021000000A0295A00902B5500102D4F00502E484A
:1021100000E031450030334100D0353900603637BA
:102120000010373300F0382D00A0392700803C1C08
:1021300000403D1700F03D1100803E0900D03FE512
:10214000FF202F002042403A0020403A0025753AF7
:102150002530327500253032753A25303275002D24
:102160002D2D005344005A00590058004B494C4C47
:1021700045442E200053544F505045442E200050CB
:1021800072696E7465722073746F70706564206418
:10219000756520746F206572726F72732E204669A8
:1021A0007820746865206572726F7220616E642099
:1021B000757365204D39393920746F2072657374D9
:1021C0006172742E202854656D7065726174757229
:1021D000652069732072657365742E2053657420C1
:1021E00069742061667465722072657374617274BB
:1021F000696E67290A004E6F20436865636B7375CB
:102200006D2077697468206C696E65206E756D62EB
:1022100065722C204C617374204C696E653A200005
:10222000636865636B73756D206D69736D6174634D
:10223000682C204C617374204C696E653A20004C08
:10224000696E65204E756D626572206973206E6FD0
:1022500074204C617374204C696E65204E756D62FC
:1022600065722B312C204C617374204C696E653A79
:1022700020004D313130004D333100534420726520
:102280006164206572726F720A00446F6E6520701F
:1022900072696E74696E672066696C650A006265B2
:1022A000640A002C2073797374656D2073746F70E9
:1022B00070656421204865617465725F49443A2005
:1022C00000544845524D414C2052554E41574159BA
:1022D00000546865726D616C2052756E617761792A
:1022E0000048656174696E67206661696C656400A9
:1022F00048656174696E67206661696C6564007029
:10230000012C0190012701B0012201C0011D01F043
:102310000118011002130130020E01600209019040
:10232000020401C002FF000003FA004003F5008030
:1023300003F000D003EB002004E6007004E100E0AD
:1023400004DC004005D700C005D2004006CD00D017
:1023500006C8008007C3003008BE00F008B900C0FE
:1023600009B400B00AAF00B00BAA00D00CA5000061
:102370000EA000500F9B00C010960050129100005C
:10238000148C00C0158700B0178200B0197D00D0F2
:102390001B7800001E730040206E0090226900F040
:1023A00024640040275F0090295A00E02B5500105C
:1023B0002E500020304B0010324600E03341009098
:1023C000353C001037370070383200A0392D00B08E
:1023D0003A2800A03B2300603C1E00103D190090ED
:1023E0003D1400103E0F00703E0A00C03E05000084
:1023F0003F0000403FFBFF803FF6FFC03FF1FF453D
:1024000072723A204D494E54454D50204245440089
:102410004572723A204D494E54454D50004D494E3B
:1024200054454D5020747269676765726564004554
:1024300072723A204D415854454D50204245440057
:102440004572723A204D415854454D50004D415807
:1024500054454D5020747269676765726564000069
:10246000002100240027002A000000220025002867
:10247000002B000000200023002600290002020299
:102480000202020202040404040404040403030319
:10249000030303030301010101010101010102041E
:1024A000081020408001020408102040800102042E
:1024B0000810204080804020100804020100000025
:1024C00001020000000000000004030706000000F5
:1024D0000000000000000000000000000050726FCB
:1024E00062696E67206661696C65640A0050726F8C
:1024F00062696E67206661696C656400205A3A20E3
:102500000020593A200042656420583A2000457264
:10251000726F722077726974696E6720746F2045DC
:102520004550524F4D210A005654726176206D6914
:102530006E005654726176206D696E005654726159
:1025400076206D696E00566D696E00566D696E007D
:10255000566D696E00566D6178204500566D617844
:10256000204500566D6178204500566D6178205AEF
:1025700000566D6178205A00566D6178205A0056D9
:102580006D6178205900566D6178205900566D6153
:1025900078205900566D6178205800566D6178207A
:1025A0005800566D61782058004D6F74696F6E0049
:1025B000416D6178204500416D6178204500416D95
:1025C0006178205A00416D6178205A00416D617830
:1025D000205900416D6178205900416D6178205883
:1025E00000416D6178205800412D74726176656CF0
:1025F00000412D74726176656C00412D72657472B4
:1026000061637400412D726574726163740041638B
:1026100063656C00416363656C004D6F74696F6E38
:102620000000A5D555D711241FBECFEFD0E4DEBFE3
:10263000CDBF12E0A0E0B1E0E8EFFAEC01E00BBFA3
:1026400002C007900D92A838B107D9F721E1A8E898
:10265000B2E001C01D92AE3BB207E1F713E1C2E167
:10266000D3E104C02197FE010E94E2E4C131D10709
:10267000C9F70E947CCD0C946FE50C9400002F925A
:102680003F924F925F926F927F928F929F92AF9202
:10269000BF92CF92DF92EF92FF920F931F93CF934F
:1026A000DF93CDB7DEB7E9970FB6F894DEBF0FBE64
:1026B000CDBF8091B7118D3409F42BC4843511F44A
:1026C0000C942C25873421F0EFE2FAE10C946E256E
:1026D0008091B5119091B6118D31910509F456C2D2
:1026E00094F48430910509F4A2C024F4029780F197
:1026F0000C9486258B31910509F4DFC04C9709F4C1
:102700006DC10C9486258A35910509F4B3C24CF449
:102710008E31910509F43EC28A9709F42EC30C94B8
:1027200086258B35910509F4A9C28C35910511F0E8
:102730000C9486250E94CBBDE9E72E2EE1E03E2ECB
:10274000FCE3EF2EF4E0FF2E00E0D12C10E0C0C23D
:1027500080916A01882311F40C948625B9E7CB2E69
:10276000B1E0DB2E19EBE12E1FE0F12E0CE314E0BB
:1027700088E8A82E82E0B82ED6018D916D010E94C6
:102780001AB38823D9F00E94E7B2F5012081211104
:1027900004C020918C02222331F0D8012D913D916B
:1027A0004D915C9103C020E030E0A9010E94A1E2BC
:1027B000F70160837183828393830AC0F80180816B
:1027C0009181A281B381F70180839183A283B38336
:1027D000F4E0EF0EF11C0C5F1F4F2FEFA21AB20AAC
:1027E0003DE7C31631E0D30639F686E40E9449B3CB
:1027F0008823C9F00E94E7B220E030E0A9010E94DE
:1028000024E4181684F40E94E7B220E030E040E7A8
:1028100052E40E9424E360937501709376018093E3
:102820007701909378010E94E38E0C94862580E5D1
:102830000E9449B3882329F00E94A3B26B017C0156
:1028400003C0C12CD12C760183E50E9449B38823B3
:1028500061F00E94E7B220E030E04AE754E40E94D1
:102860009CDE0E949DE36B017C010E94CBBD8091A8
:102870000701811105C060E08FE191E00E942E43C5
:102880000E9477B38091B10F9091B20FA091B30FD6
:10289000B091B40FC80ED91EEA1EFB1E0E94C1C122
:1028A000DC01CB018C199D09AE09BF09B7FD02C03F
:1028B0000C9486250E941C8EF1CF0E94DF2C811182
:1028C0000C94862580E090E0A0EFB1EC89839A8398
:1028D000AB83BC8380E090E0A0E2B1E48D839E8373
:1028E000AF83B88780E090E0A0EAB1E489879A8757
:1028F000AB87BC8780E50E9449B3882319F00E940A
:10290000B3B201C060E080E090E0A8ECB2E488A738
:1029100099A7AAA7BBA780E090E0A0EAB0E48CA3A7
:102920009DA3AEA3BFA3613019F0623039F02EC071
:10293000BE016C5D7F4FCE01099640C029853A8566
:102940004B855C85609144047091450480914604F8
:10295000909147040E94A1E26B017C0120E030E0ED
:1029600046E653E40E9436DE87FD06C0C12CD12C1A
:10297000A6E6EA2EA3E4FA2EC8A2D9A2EAA2FBA2F6
:10298000BE016C5D7F4FCE01809618C0209144043B
:1029900030914504409146045091470469857A85F9
:1029A0008B859C850E9424E418161CF084E494E036
:1029B00002C0CE010996BE016C5D7F4F0E94F451AA
:1029C0009E01285D3F4F44E454E0BE016B5F7F4FA2
:1029D000CE0101960E9405510C9486250E94CBBD24
:1029E00080E00E942F4F0E94E55081E08093500CC0
:1029F00088E50E941AB3E82E89E50E941AB3082FD1
:102A00008AE50E941AB3F82EE11005C0011105C035
:102A100011E0182705C0011102C010E001C0182FF5
:102A20000E946DB3111104C0E11002C00023C1F176
:102A300080E090E0A0E2B1E48093C10F9093C20FD8
:102A4000A093C30FB093C40F9C01AD0160914404E7
:102A50007091450480914604909147040E9436DEAF
:102A600087FF0BC019821A821B821C82BE016F5F16
:102A70007F4F81EC9FE00E94F451111105C0E110DD
:102A800003C0011107C00CC080E090E00E94698C77
:102A90001123B9F381E090E00E94698C111103C009
:102AA000FF2009F464C080919302882321F0809173
:102AB000940281111FC060E089E391E00E942E43DF
:102AC000EFE2FAE184918F010F5F1F4F811103C084
:102AD000E8E2F1E004C00E9482B3F801F3CF8491F0
:102AE0008F010F5F1F4F882309F441C00E9482B3FA
:102AF000F801F5CF0E945CB28091440490914504A6
:102B0000A0914604B09147048093C10F9093C20FE7
:102B1000A093C30FB093C40F80E090E0A0E0B3E4B3
:102B20008093B90F9093BA0FA093BB0FB093BC0FD3
:102B300080E090E0ACE1B3E48093BD0F9093BE0FD2
:102B4000A093BF0FB093C00F19821A821B821C8200
:102B50009E012F5F3F4F44E454E06DEB7FE089EB33
:102B60009FE00E94055182E090E00E94698C0E94E3
:102B70005CB280914F0C8093500C0E94CB5083E04C
:102B8000809306010E94367D0C9486250E94DD52BA
:102B90000C948625C0903C04D0903D04E0903E0407
:102BA000F0903F0488E50E9449B3811109C020E0FC
:102BB00030E040E951E4C701B6010E94A0E202C042
:102BC0000E94E7B268A379A38AA39BA3C0904004A4
:102BD000D0904104E0904204F090430489E50E94C3
:102BE00049B3811109C020E030E048E352E4C70155
:102BF000B6010E94A0E202C00E94E7B26B017C0114
:102C000069837A838B839C8388A099A0AAA0BBA0A8
:102C10002FE632E143E85AEBC501B4010E9424E4F7
:102C200087FF02C00C94862522E430E04CE553E493
:102C3000C501B4010E9436DE181614F40C948625E2
:102C40002FE632E143E85AEBC701B6010E9424E4C3
:102C500087FF02C00C94862522E430E04CE553E463
:102C6000C701B6010E9436DE181614F40C948625AE
:102C70000C94892510928C020C94862581E0809317
:102C80008C020C9486250E94E7B22B013C01F701CF
:102C900020813181428153810E94A0E24B015C017D
:102CA0002DEB37E346E855EB0E9424E487FD18C07E
:102CB0002DEB37E346E855E3C501B4010E9436DE4B
:102CC000181674F01F5FB4E0EB0EF11C1430A9F07D
:102CD000D1018D911D010E9449B3882399F3D3CF6F
:102CE000133011F401E002C0DD24D394D7014D92DA
:102CF0005D926D927C921397E5CFDD2019F00E94D2
:102D00005CB237C00023A9F1C0904804D0904904B8
:102D1000E0904A04F0904B0420919E0930919F0965
:102D20004091A0095091A109C701B6010E949CDE03
:102D30000E9429E46093490C70934A0C80934B0CD9
:102D400090934C0CC701B6010E9496E32FB7F894FC
:102D50006093F0107093F1108093F2109093F31041
:102D60002FBF1092390C10923A0C10923B0C10921B
:102D70003C0C0E94367D0C94862580916A01882344
:102D800011F40C94862589E40E9449B3082F882306
:102D900021F00E94B3B2E62E01C0E12C8AE40E9429
:102DA00049B3182F882321F00E94B3B2F62E01C038
:102DB000F12C002319F0E2E0EE1528F0112389F040
:102DC000F2E0FF1570F4EBE5F1E084918F010F5F05
:102DD0001F4F882311F40C9486250E9482B3F801BA
:102DE000F4CF0E946DB30023F1F02091FB093091E4
:102DF000FC094E2D4203B001439F700D11248091B8
:102E0000F7099091F809680F791F072E000C880BBD
:102E1000990B0E943DDE6093B90F7093BA0F8093B7
:102E2000BB0F9093BC0F1123F1F02091FD0930915D
:102E3000FE095F2D5203B001539F700D1124809144
:102E4000F9099091FA09680F791F072E000C880B79
:102E5000990B0E943DDE6093BD0F7093BE0F80936F
:102E6000BF0F9093C00F80E50E9449B3882319F0EB
:102E70000E94D7B203C080E50E941AB3882381F173
:102E80000023B1F020E030E040E951E46091B90F57
:102E90007091BA0F8091BB0F9091BC0F0E94A1E27C
:102EA0006093B90F7093BA0F8093BB0F9093BC0FD0
:102EB0001123B1F020E030E048E352E46091BD0F0F
:102EC0007091BE0F8091BF0F9091C00F0E94A1E240
:102ED0006093BD0F7093BE0F8093BF0F9093C00F90
:102EE00086E40E9449B3882309F49DCC0E94E7B28E
:102EF0006B017C0120E030E0A9010E9424E4181657
:102F00000CF091CC20E030E040E752E4C701B6017C
:102F100080CC8091B5119091B6118337910509F459
:102F2000D0C10CF0DDC08B34910509F40DC40CF058
:102F300064C08831910509F4A5C2ACF582319105D0
:102F400009F4ADC5BCF497FF02C00C94862582300D
:102F500091050CF4B9C1419711F00C94862560E0FD
:102F60008FEA91E00E942E435E985E9815985E98D5
:102F70000C9486258531910509F469C23CF4449787
:102F800011F00C948625E7ECF1E021C28631910521
:102F900009F461C2479711F00C948625E091B311B2
:102FA000F091B41162C28C31910509F4C1C264F48C
:102FB0008A31910509F471C20CF07DC21092890C1E
:102FC0000E947D2D0C9486258F31910509F406C34E
:102FD00044F44E9711F00C9486250E94C27E0C9406
:102FE00086258032910509F4ADC28A9711F00C94C0
:102FF00086250E94047E0C9486258836910509F466
:10300000AFC30CF040C08235910509F43FC514F5FB
:103010008D34910509F4A0C30CF49AC38135910550
:1030200011F00C9486250E949DB70E94CBBD0E9492
:10303000BB8D1092501110924F1168EE73E080E03A
:1030400090E00E946D4160E080EA92E00E942E4391
:103050000C9486258435910509F421C50CF41AC514
:103060008535910509F452C58C35910511F00C9404
:10307000862549E7C42E41E0D42E52E9E52E59E0D9
:10308000F52E10E05EC58D36910509F495C49CF4CB
:103090008A36910509F4C3C40CF450C48B369105EB
:1030A00009F4E2C48C36910511F00C948625109237
:1030B00061010C9486258F36910509F4A8C30CF4A0
:1030C00093C38037910509F415C48237910511F037
:1030D0000C9486250E94CBBD0E94367D0C948625DB
:1030E0008831A1E09A0711F40C9488210CF06CC08F
:1030F0008E3B910509F479C49CF58837910509F454
:1031000032C6A4F48637910509F4EBC50CF028C645
:103110008537910511F00C94862560E08091B311FC
:103120009091B4110E944E430C9486258C389105E1
:1031300009F4E8C35CF48937910511F00C948625F5
:103140001092500C10924F0C0C94862581399105E9
:1031500009F40FC68B39910509F407C40C94862530
:103160008D3C910509F472C7ACF4893C910509F4D2
:10317000C6C634F4883C910509F473C60C948625C0
:103180008B3C910509F4DDC68C3C910509F4F4C62D
:103190000C9486258C3D910511F40C940D2144F47A
:1031A000833D910511F00C948625EFE2FAE1B9C751
:1031B0008D3D910511F40C941A21823E910511F474
:1031C0000C945F210C9486258A39E1E09E0709F46E
:1031D00095C3BCF58F3221E0920711F40C94302393
:1031E00084F48D3241E0940711F40C943E2214F0E3
:1031F0000C94DC228232914011F40C9433220C9412
:1032000086258039B1E09B0711F40C9433234CF4EC
:103210008336914011F00C948625E1E1FAE10C949B
:103220000425813921E0920711F40C943623823968
:10323000914011F00C94862580E00E944F520C942E
:103240008625863F41E0940711F40C949D24ECF40C
:10325000853AA1E09A0711F40C9408243CF4843ACE
:10326000914011F40C943A230C948625843FF1E0AC
:103270009F0711F40C949A24853F914011F00C940F
:1032800086250E94BA6E0C948625833533E0930719
:10329000A1F03CF4873F914011F40C94A0240C94CD
:1032A0008625803AA3E09A0709F48BC1873E9340B4
:1032B00011F40C9417250C948625EFE2FAE10C9496
:1032C000AF24E8E6F3E0BCC4A090B311B090B41111
:1032D00080E50E9449B3882359F00E94A3B26B0194
:1032E0007C0111E0672B682B692B31F410E004C0DE
:1032F00010E0C12CD12C760183E50E9449B38823CC
:10330000F1F00E94E7B220E030E04AE754E40E9486
:103310009CDE0E949DE36B017C01111112C0672BA2
:10332000682B692B71F4A114B10459F0F501808167
:10333000882339F061E0C5010E944E4307C0112384
:1033400091F360E08CE991E00E942E4381E080934C
:103350006A090E94CBBD0E9477B3C114D104E10475
:10336000F104E1F08091B10F9091B20FA091B30FF1
:10337000B091B40FC80ED91EEA1EFB1E0E94C1C137
:10338000DC01CB018C199D09AE09BF09B7FF1BC039
:1033900080916A0981110C94E02515C080916A0919
:1033A000882319F00E941C8EF9CF8091790C90919E
:1033B0007A0C60E0029719F489E891E002C08AE78C
:1033C00091E00E942E4310926A090C948625849104
:1033D0008F010F5F1F4F882321F00E9482B3F801F5
:1033E000F6CF10920F0F10920E0F8AEB9CE00E9406
:1033F00030A68BE1EAEBFCE0DE01159601900D9220
:103400008A95E1F78091B80C9091B90C9C838B83DD
:1034100089ED91E09A83898340E050E0BE016F5FBF
:103420007F4F88E292E00E94142ECE0101960E9406
:10343000B38DE8EBF1E084918F010F5F1F4F88237C
:1034400011F40C9486250E9482B3F801F4CF0E94F7
:103450007C830C9486251092890C10928A0C0C9413
:103460008625803209F41082319680818111F9CF4E
:1034700040E061E08091B3119091B4110E9432302C
:103480000C94862580918A0C882319F081E0809322
:10349000890C0E94392C0C94862580918A0C8823F3
:1034A00011F40C94862583E50E9449B381110C9494
:1034B000E4250C94862580918A0C811103C0EAEEE4
:1034C000F1E02AC0E8EDF1E084918F010F5F1F4F1A
:1034D000882321F00E9482B3F801F6CF6091050F96
:1034E0007091060F8091070F9091080F4AE00E949B
:1034F0002AB68FE20E9482B36091010F7091020F91
:103500008091030F9091040F4AE00E942AB68AE04E
:103510000E9482B30C94862584918F010F5F1F4F08
:10352000882311F40C9486250E9482B3F801F4CF0D
:1035300040E060E08091B3119091B4110E9432306C
:103540000C9486258091890C81110E94CBBD8091BD
:103550008A0C882311F40C94862580E50E9449B3D7
:10356000882319F00E94D7B203C080E50E941AB3E5
:10357000182F482F61E08091B3119091B4110E94EF
:10358000323083E50E9449B3882381F00E94B3B2B0
:10359000AB01BC014093050F5093060F6093070FDA
:1035A0007093080F84E59EE00E949CC580918A0C70
:1035B000882319F081E08093890C11110C948625E1
:1035C00068CF8091B3119091B41121E02093880CC1
:1035D00040E060E00E9432300C9486250E94C68450
:1035E0007B018C0120E831E541E050E00E943DE2A2
:1035F000C9016DE671E00E94BAE44B015C01C801AB
:10360000B70120E13EE040E050E00E943DE2CA0107
:10361000B90128E130E040E050E00E943DE2762E22
:10362000672EC62ED72E7CE3272E312C412C512C11
:10363000C801B701A20191010E943DE2F62EE72EDA
:10364000CA01B901A20191010E943DE2CB018E01A4
:103650000F5F1F4F8114910499F0EF92FF927F93B7
:103660006F936F927F92BF92AF929F928F9283E2FD
:1036700092E09F938F931F930F930E94CEDD13C010
:10368000A114B104B1F0EF92FF927F936F936F9208
:103690007F92BF92AF9283E192E09F938F931F93AB
:1036A0000F930E94CEDD0FB6F894DEBF0FBECDBFE4
:1036B00030C0CD2879F0EF92FF927F936F936F9295
:1036C0007F9287E092E09F938F931F930F930E94C6
:1036D000CEDDE9CF892B69F0EF92FF927F936F9354
:1036E0008FEF91E09F938F931F930F930E94CEDDF6
:1036F000DACFEF92FF928BEF91E09F938F931F931E
:103700000F930E94CEDD0F900F900F900F900F90AF
:103710000F9060E0C8010E944E43EFE2FAE184910D
:103720007F01BFEFEB1AFB0A882321F00E9482B3CE
:10373000F701F5CFB80187E392E00E948F3B8AE062
:103740000E9482B30C9486250E94392C0C94862505
:103750000E947D2D0C9486250E945E810C94862506
:103760008091140F80933F108091B90983FF02C0AC
:103770000C94862583E50E9449B3882311F40C94A8
:1037800086250E94E7B20E9496E370934E116093E3
:103790004D1180E00E9451B70E94E7B22091441081
:1037A0003091451040914610509147100E9424E4FA
:1037B000181614F00C94862581EF91E09F938F9357
:1037C00080913F1090E001969F938F9384E492E064
:1037D0009F938F931F920E941C2C0FB6F894DEBF0C
:1037E0000FBECDBF0C9486258EE40E9449B388237A
:1037F00011F40C9486250E94B3B260936004709318
:10380000610480936204909363040C94862583E59D
:103810000E941AB3882359F083E50E9449B3882394
:1038200019F00E94C3B201C080E08093B909EFE2B1
:10383000FAE184918F010F5F1F4F811103C0E9E509
:10384000F2E004C00E9482B3F801F3CF84918F01AB
:103850000F5F1F4F882321F00E9482B3F801F6CF3B
:103860008091B909811103C0E5E5F2E034C06BE451
:10387000C62E62E0D62EE12CF12C20E08091B90911
:1038800090E00E2C02C0959587950A94E2F780FF90
:1038900017C0BB24B394B20E222319F08CE20E940D
:1038A00082B3F60185919491FC0184918F010F5FA1
:1038B0001F4F882321F00E9482B3F801F6CF2B2DF1
:1038C000FFEFEF1AFF0A32E0C30ED11C45E0E41609
:1038D000F104A1F60AC084918F010F5F1F4F882366
:1038E00021F00E9482B3F801F6CF8AE00E9482B3F1
:1038F0000C94862580E692E00E94C58D0E948F7808
:103900000C9486258091B90983FF02C00C9486250A
:1039100083E50E9449B3882311F40C9486250E9404
:10392000E7B20E9496E36338710514F062E870E034
:1039300070935211609351110C9486258091140F4D
:1039400080933F10E9E6F2E084918F010F5F1F4FF3
:10395000882321F00E9482B3F801F6CF0E942DB196
:103960008AE00E9482B30C94F92883E50E9449B34F
:10397000882311F40C9486250E94C3B2182F8D332E
:1039800008F01CE31093AE0F0E94C1C16B017C01D3
:10399000212F30E0A8EEB3E00E9491E2C60ED71EC0
:1039A000E81EF91EC092AA0FD092AB0FE092AC0FA6
:1039B000F092AD0F0C9486258091140F80933F10E8
:1039C0008091B90983FF02C00C94862583E50E948B
:1039D00049B389AB81110C94F52582E50E9449B366
:1039E00081110C94F5250C9486258091B90983FFEB
:1039F00002C00C94862560E083E992E00E942E4389
:103A000083E50E9449B389AB81110C944A2782E572
:103A10000E9449B381110C944A270C94862580E5B5
:103A20000E9449B3811108C083E50E9449B3811106
:103A300009C03FEF20E00AC00E94C3B281110C947C
:103A40008625F2CF0E94B3B2362F272F832F922FD5
:103A50008F3F910519F010F08FEF90E09093501187
:103A600080934F110C94862580E50E9449B3811103
:103A700006C01092501110924F110C9486250E948E
:103A8000B3B2672B11F00C948625F3CF10928B0202
:103A90000C94862581E080938B020C94862583E527
:103AA0000E9449B38823A1F00E94E7B220E030E0F1
:103AB0004AE754E40E949CDE0E949DE360935D010E
:103AC00070935E0180935F01909360010C94862552
:103AD00088E50E941AB381110C94792889E50E9427
:103AE0001AB381110C9479288AE50E941AB38111C6
:103AF0000C94792885E40E941AB381110C947928DA
:103B00000E94CBBD0E94BB8D0C94862583E50E944C
:103B10001AB3882311F40C9486250E94E7B220E0A2
:103B200030E04AE754E40E949CDE0E949DE36093EB
:103B3000B50F7093B60F8093B70F9093B80F0C9496
:103B40008625D6018D916D010E941AB3882309F450
:103B50006DC0133009F063C00E94E7B24B015C01F5
:103B600020E030E040EA51E40E9436DE87FF4EC09C
:103B7000A501940160919E0970919F098091A0090F
:103B80009091A1090E9424E32B013C019B01AC010F
:103B900060918E0970918F0980919009909191099F
:103BA0000E949CDE60938E0970938F098093900928
:103BB00090939109A3019201609173117091741116
:103BC00080917511909176110E949CDE6093731123
:103BD0007093741180937511909376116091C6095A
:103BE0007091C7098091C8099091C9090E943BDE74
:103BF000A30192010E949CDE0E949DE36093C6098E
:103C00007093C7098093C8099093C90980929E094F
:103C100090929F09A092A009B092A10907C00E94AA
:103C2000E7B2F70160837183828393831F5FF4E0BF
:103C3000EF0EF11C143009F084CF0E94006B66C7B0
:103C400084918F010F5F1F4F882321F00E9482B360
:103C5000F801F6CF60E088E593E00E94FF7C61E028
:103C600081E593E00E94FF7C61E086E493E00E949E
:103C7000FF7C61E086E393E00E94FF7C60E08DE2E0
:103C800093E00E94FF7C61E083E293E00E94FF7C6E
:103C900061E089E193E00E94FF7C61E081E193E0D3
:103CA0000E94FF7C61E083E093E00E94FF7C60E083
:103CB00085EF92E00E94FF7C60E086EE92E00E9439
:103CC000FF7C60E088ED92E00E94FF7C60E082EC87
:103CD00092E00E94FF7C60E081EB92E00E94FF7C1A
:103CE00015C785E40E9449B3882319F00E94D7B212
:103CF00003C085E40E941AB3882361F0EFE2FAE181
:103D000084918F010F5F1F4F882321F00E9482B39F
:103D1000F801F6CF81E40E9449B3882319F00E948C
:103D2000D7B203C081E40E941AB3882361F0E4E3B0
:103D3000F4E084918F010F5F1F4F882321F00E94D0
:103D400082B3F801F6CF0091B3111091B411D801EC
:103D50008D918D01882309F4C8CD0E9482B3F7CFDD
:103D60000E940C5AD3C681E08093500C80934F0C74
:103D7000CDC683E50E9449B3882319F00E94B3B2EF
:103D800002C060E070E08B01112702301105D4F011
:103D9000E1E1FAE184918F010F5F1F4F811103C0B0
:103DA000E8E3F4E004C00E9482B3F801F3CF849109
:103DB0008F010F5F1F4F882309F4A8C60E9482B3AA
:103DC000F801F5CF88E40E9449B38823A9F00E9446
:103DD000B3B2663971053CF06530B1E07B072CF079
:103DE00064E071E002C066E970E0F801EE0FFF1FC9
:103DF000E85DFF4E7183608386E40E9449B38823A7
:103E0000A9F00E94B3B2F801EE0FFF1FE45DFF4E70
:103E1000718360836F3F710519F014F06FEF70E0EC
:103E200077FF02C060E070E07183608382E40E94EB
:103E300049B3882309F46AC60E94B3B2653071059C
:103E400034F0643771052CF063E770E002C065E080
:103E500070E0000F111FF801EC5DFF4E718360836D
:103E600055C68091140F80933F1084E40E941AB3CA
:103E7000882309F441C00E94E7B26B017C0111E084
:103E800020E030E0A9010E9436DE811101C010E07F
:103E90001093B00920E030E0A901C701B6010E94EB
:103EA00036DE882349F10E94E7B2E0913F1024E01A
:103EB000E29FF0011124EF54F64F608371838283F7
:103EC000938320E030E0A9016091B1097091B209BB
:103ED0008091B3099091B4090E9436DE81110CC023
:103EE00080E090E0A0EEBFE38093B1099093B20927
:103EF000A093B309B093B4090E94356D07C609E7D2
:103F0000E02E01E0F02E07E711E187E8C82E81E1FD
:103F1000D82ED7018D917D010E941AB3882349F0D4
:103F20000E94E7B20E949DE3F8016083718382835F
:103F300093830C5F1F4FC016D10659F70E94E269A8
:103F4000E5C519E7E12E11E0F12E07E611E1D701F1
:103F50008D917D010E941AB3882339F00E94E7B247
:103F6000F80160837183828393830C5F1F4FF1E1BB
:103F700007371F0761F7CAC583E50E941AB3882374
:103F8000D9F00E94E7B2AB01BC0140938F1150936E
:103F900090116093911170939211409387115093F7
:103FA00088116093891170938A1184EB94E00E94C8
:103FB000593B8AE00E9482B380E50E941AB38823AD
:103FC00099F00E94E7B2AB01BC0140938F1150936E
:103FD0009011609391117093921187E994E00E947F
:103FE000593B8AE00E9482B382E50E941AB388237B
:103FF00099F00E94E7B2AB01BC0140938B11509342
:104000008C1160938D1170938E1188E794E00E945B
:10401000593B8AE00E9482B384E50E941AB3882348
:1040200009F474C50E94E7B2AB01BC01409387114B
:10403000509388116093891170938A118AE594E0F6
:104040000E94593B8AE00E9482B360C583E50E94CA
:104050001AB3882351F00E94E7B260936311709302
:104060006411809365119093661184E50E941AB3E0
:10407000882351F00E94E7B260935F117093601142
:10408000809361119093621182E40E941AB3882395
:1040900051F00E94A3B26093B5097093B609809362
:1040A000B7099093B80988E50E941AB3882351F0A4
:1040B0000E94E7B260938209709383098093840918
:1040C0009093850989E50E941AB3882351F00E94D4
:1040D000E7B260938609709387098093880990936B
:1040E00089098AE50E941AB3882351F00E94E7B239
:1040F00060938A0970938B0980938C0990938D0942
:1041000085E40E941AB3882309F400C50E94E7B22F
:1041100060938E0970938F09809390099093910911
:10412000F5C484918F010F5F1F4F882321F00E94F7
:1041300082B3F801F6CF83E50E941AB3882321F0F9
:104140000E94D7B280935201E4E0F5E084918F01A0
:104150000F5F1F4F882321F00E9482B3F801F6CF32
:1041600080915201882319F0ECEFF4E002C0E0E006
:10417000F5E084918F010F5F1F4F811103C0E4EFC1
:10418000F4E004C00E9482B3F801F3CF84918F0160
:104190000F5F1F4F882321F00E9482B3F801F6CFF2
:1041A00040E050E0BA0182EF94E00E94593B40E0C9
:1041B00050E0BA018FEE94E00E94593B40E050E09D
:1041C000BA018CEE94E00E94593BE4EEF4E0849155
:1041D0008F010F5F1F4F882321F00E9482B3F801E7
:1041E000F6CF40E050E06CE573E482EE94E00E948C
:1041F000593B40E050E06CE573E48FED94E00E94A1
:10420000593B40E050E066E673E48CED94E00E9498
:10421000593B8AE00E9482B379C483E50E9449B386
:10422000882309F473C40E94B3B270936901609348
:1042300068016CC48091140F80933F1083E50E9445
:1042400049B3882309F462C400913F1010E00E9432
:10425000B3B2000F111FF801EA59FE4F718360835A
:1042600080913F1090E08C01000F111F000F111F73
:1042700098012E593E4F7901880F991FFC01EA5988
:10428000FE4F60817181072E000C880B990B0E94F4
:104290003DDE2AE037ED43E25CE30E949CDEF8015C
:1042A000E45FFF4E20813181428153810E949CDE78
:1042B000D7016D937D938D939C93139727C480E5CD
:1042C0000E941AB3882309F421C40E94B3B26B017F
:1042D0007C0183E50E9449B3882321F00E94B3B298
:1042E0008B0102C00FEF1FEFC8010196039708F082
:1042F0000DC4D7FC0BC48C2DE4E1F5E09491891733
:1043000009F404C43196B5E0EC33FB07B9F749C7AB
:1043100080E50E941AB3882309F4F8C30E94B3B25F
:104320006B017C018B01672B19F0E1E1FAE17FC0A1
:1043300083E50E941AB3811103C0EFE2FAE107C0DE
:104340000E94B3B286E79CE00E94CA39DFC3849121
:104350007F012FEFE21AF20A882321F00E9482B334
:10436000F701F5CF60E070E085E595E00E94763BCF
:104370008091780C28E532E06901C81AD10887FDE0
:10438000D394CC0CDD1CCC0CDD1C0D2C000CEE08E9
:10439000FF088091770C28E830E04901881A9108DD
:1043A00087FD9394880C991C880C991C092C000C8F
:1043B000AA08BB088091760C8F3FB9F090E0FC0111
:1043C000EE0FFF1F8E0F9F1FFC01EF5AF34F01816D
:1043D000128153E0000F111F5A95E1F764E0169522
:1043E00007956A95E1F70E5F1F4F98012F5F3F4FCA
:1043F000C901330FAA0BBB0B9C01AD012819390968
:104400004A095B09A4EBB0E00E947EE2A701960195
:10441000281939094A095B090E945FE2B90182E55E
:1044200095E00E94763B8AE00E9482B36FC384913C
:104430008F010F5F1F4F882321F00E9482B3F80184
:10444000F6CFB6018BE495E00E94763BECE3F5E015
:1044500084918F010F5F1F4F882309F457C30E9477
:1044600082B3F801F5CF8AE50E9449B381115DC698
:1044700083E50E9449B3811158C648C385E40E9470
:1044800049B3811110C080E50E941AB3882391F0CE
:104490000E94E7B2609318107093191080931A105D
:1044A00090931B1007C00E94C3B2882361F3E1E11F
:1044B000FAE171C089E40E941AB3882381F00E9456
:1044C000E7B22CEA35EC47E25EE30E949CDE6093A3
:1044D000201070932110809322109093231084E475
:1044E0000E941AB3882381F00E94E7B22CEA35ECCF
:1044F00047E25EE30E9424E360931C1070931D105A
:1045000080931E1090931F10EFE2FAE184918F01C7
:104510000F5F1F4F882321F00E9482B3F801F6CF6E
:10452000409118105091191060911A1070911B1041
:1045300085E695E00E94593B2CEA35EC47E25EE3C4
:104540006091201070912110809122109091231081
:104550000E9424E3AB01BC0181E695E00E94593B37
:104560002CEA35EC47E25EE360911C1070911D105F
:1045700080911E1090911F100E949CDEAB01BC0127
:104580008DE595E00E94593B8AE00E9482B3BEC24D
:104590000E9482B3F80184918F010F5F1F4F811138
:1045A000F7CF0CEF11E0D8018D918D01882309F42C
:1045B0009CC90E9482B3F7CF83E50E941AB3182FDB
:1045C000882371F00E94E7B20E9496E37093450140
:1045D0006093440121E0672B09F020E020936604FA
:1045E00080E50E941AB3882359F02091440130914C
:1045F0004501232B11F00E94D7B28093660486C236
:10460000111184C2EFE2FAE184918F010F5F1F4F15
:10461000882321F00E9482B3F801F6CF80916604CE
:10462000882319F06BE272E002C065EE71E08EE75C
:1046300095E00E948F3B60914401709145018DE6A9
:1046400095E00E94763BE9E6F5E084918F010F5FEB
:104650001F4F882309F45AC20E9482B3F801F5CF94
:104660000E94C57853C20E94CBBD50C281E00E9417
:104670004F524CC280913C0490913D04A0913E0465
:10468000B0913F0489839A83AB83BC8380914004BB
:1046900090914104A0914204B09143048D839E8384
:1046A000AF83B8878091440490914504A09146045B
:1046B000B091470489879A87AB87BC8786E50E94BB
:1046C0001AB3882341F08091FB099091FC09892B52
:1046D00011F00E9413D58AE50E941AB3882321F0B5
:1046E0000E94E7B20E94972D83E50E941AB38823A7
:1046F00031F00E94D7B2182F0E942F4F01C010E056
:10470000F0905404111103C0EFE2FAE11BC0F11064
:10471000FBCFE1E1FAE184918F010F5F1F4F81111F
:1047200003C0E1EBF5E004C00E9482B3F801F3CFCF
:1047300084918F010F5F1F4F882331F30E9482B352
:10474000F801F6CF84918F010F5F1F4F882321F06E
:104750000E9482B3F801F6CFFF2019F069EE71E0F4
:1047600002C06DEE71E083EA95E00E948F3B8AE023
:104770000E9482B3EFE2FAE184918F010F5F1F4F35
:10478000811103C0E6E9F5E004C00E9482B3F8019C
:10479000F3CF84918F010F5F1F4F882321F00E9478
:1047A00082B3F801F6CFC0905504D0905604E09043
:1047B0005704F090580420E030E0A901C701B60189
:1047C0000E9424E418161CF0E1E9F5E009C042E07B
:1047D000C701B6010E94B3B68AE00E9482B30AC044
:1047E00084918F010F5F1F4F882321F00E9482B3B5
:1047F000F801F6CF4CE050E06CE374E0CE01019696
:104800000E94F8E4892B09F481C10E94367D7EC1A3
:1048100089E40E9449B3882321F00E94B3B2162F85
:1048200001C01FEF8AE40E9449B3882321F00E944F
:10483000B3B2062F01C00FEF8AE50E941AB3F82E1B
:10484000811105C081E50E941AB3D82E01C0D12C78
:1048500017FD06C007FD04C0F1101CC0D1101AC01E
:10486000E1E1FAE184918F010F5F1F4F811103C0D5
:10487000EFEEF5E004C00E9482B3F801F3CF84911B
:104880008F010F5F1F4F882309F440C10E9482B33C
:10489000F801F5CF133010F40330D0F0E1E1FAE184
:1048A00084918F010F5F1F4F811103C0E0EDF5E090
:1048B00004C00E9482B3F801F3CF84918F010F5F8F
:1048C0001F4F882309F422C10E9482B3F801F5CF5B
:1048D000E12E110FFF08002E000C110B0E94E7B211
:1048E000D701AA0FBB1FDD2081F0FD01EE0DFF1DDA
:1048F000E00FF11FEE0FFF1FEE0FFF1FED52F64FFF
:10490000208131814281538103C020E030E0A90140
:10491000EA0EFB1E0E0D1F1D000F111F000F111FB1
:104920000D52164F0E94A1E2F801608371838283C9
:104930009383ECC00E94F073E9C00E949A6DE6C0B8
:1049400083E50E941AB3882321F00E94D7B291E038
:1049500089270E946C5ADAC00E9482B3F8018491C0
:104960008F010F5F1F4F8111F7CFEBE2F6E08491CB
:104970008F010F5F1F4F882321F00E9482B3F8013F
:10498000F6CF8AE50E941AB3882359F10E94E7B254
:104990006B017C0120E030E040EA51EC0E9424E40D
:1049A00087FD0AC020E030E040EA51E4C701B601CB
:1049B0000E9436DE18166CF4E2E1F6E084918F0175
:1049C0000F5F1F4F882309F4A1C00E9482B3F80132
:1049D000F5CFC0925B11D0925C11E0925D11F09224
:1049E0005E1140915B1150915C1160915D1170916D
:1049F0005E118FE096E00E94593B8AE00E9482B3EC
:104A000085C00E9482B3F80184918F010F5F1F4F10
:104A10008111F7CFEAE3F6E084918F010F5F1F4F1A
:104A2000882309F473C00E9482B3F801F5CF81E0B6
:104A300080936A0110925D0483E50E9449B3882344
:104A400019F00E94D7B203C083E50E941AB3811106
:104A50005DC00E9415955AC0F090B511FF2029F154
:104A6000EFE2FAE184918F010F5F1F4F882321F05D
:104A70000E9482B3F801F6CF84E50E9482B36F2DC5
:104A800070E080E090E04AE00E942AB680E20E9456
:104A900082B30CEF11E0D8018D918D01882311F4C0
:104AA0000C94751C0E9482B3F6CF1092140FEFE2A3
:104AB000FAE184918F010F5F1F4F882321F00E943C
:104AC00082B3F801F6CF6091140F70E089E496E0AC
:104AD0000E94763B8AE00E9482B318C084918F01C5
:104AE0000F5F1F4F882321F00E9482B3F801F6CF99
:104AF0006091AF0F7091B00F8BE596E00E948F3BF5
:104B000082E20E9482B38AE00E9482B30E94F694FD
:104B100070C380E00E942F4F0E94E55085E40E9400
:104B200049B3882319F00E94D7B203C085E40E94DC
:104B30001AB321E0482FBE016F5F7F4FCE018096F0
:104B40000E942DBE6B017C019B01AC010E94A2E47E
:104B5000811131C02CEA35EC47E257E368A179A115
:104B60008AA19BA10E94A1E2AB01BC0183E591E077
:104B70000E94593B2CEA35EC47E257E369817A8180
:104B80008B819C810E94A1E2AB01BC018EE491E08B
:104B90000E94593B2CEA35EC47E257E3C701B601C6
:104BA0000E94A1E2AB01BC0189E491E00E94593B63
:104BB0008AE00E9482B30E94CB500E94367DA6CF2D
:104BC0000E941C8E0C94BE190E94B3B2AB01BC01B2
:104BD0004093050F5093060F6093070F7093080FD3
:104BE00084E59EE00E949CC591CF0E94E7B20E949E
:104BF00096E370934E1160934D1180E00E9451B77F
:104C000060914D1170914E11072E000C880B990B7D
:104C10000E943DDE20914410309145104091461095
:104C2000509147100E9424E41816B4F481EF91E0EB
:104C30009F938F9380913F1090E001969F938F9365
:104C40008EE792E09F938F931F920E941C2C0FB6C9
:104C5000F894DEBF0FBECDBF81E0809361011DA639
:104C60001EA61FA618AA1AAA1BAA1CAA1DAA1CA621
:104C70001EAA9CE39FABACE1A8AFB6E4B9AFE12CB0
:104C8000F12C00E81FEB812C912C540160914D1107
:104C900070914E11072E000C880B990B0E943DDE7F
:104CA000762E672E582E492E9701A8010E9436DED7
:104CB000882329F1209144103091451040914610ED
:104CC00050914710E9A9672D762D852D942DE1117E
:104CD00007C00E9436DE881F8827881F8CA715C052
:104CE0000E9436DE87FF10C080916101882309F49D
:104CF0000DCF60E08CE692E00E942E4307CF7E2C21
:104D00006F2C502E412E01C01CA60E94C1C16B0108
:104D10007C01DC01CB012AA93BA94CA95DA9821B1E
:104D2000930BA40BB50BB7FD3AC0D701C601885150
:104D30009C4FAF4FBF4F8AAB9BABACABBDAB0E94A0
:104D40002DB1EAE7F2E084918F010F5F1F4F8823B6
:104D500021F00E9482B3F801F6CF81149104A104DE
:104D6000B104B9F0D501C401805F984DAF4FBF4F7A
:104D7000BC01CD016C197D098E099F0928EE33E035
:104D800040E050E00E943DE2CA01B9010E9497B69E
:104D900003C08FE30E9482B38AE00E9482B30E9424
:104DA0001C8E0E9477B320904410309045100091E3
:104DB0004610109147109101A801672D762D852D81
:104DC000942D0E94A0E29F7781149104A104B10464
:104DD00049F420E030E040E85FE30E9436DE87FFE0
:104DE0000BC008C020E030E040E450E40E9424E41E
:104DF000181614F4460157019CA5992379F12DA5A5
:104E00003EA54FA558A9211531054105510541F091
:104E1000D701C601821B930BA40BB50BB7FD1EC0B7
:104E20009101A8016EA97FA988AD99AD0E94A0E269
:104E300020E030E040EC5FE30E9436DE87FD54CF97
:104E4000D701C601805A9541AF4FBF4F8DA79EA78E
:104E5000AFA7B8AB2EAA3FAA08AF19AF80916101E6
:104E6000882309F441CF81149104A104B10429F4E9
:104E7000E72CF62C052D142D09CF90E1C91A97E2E5
:104E8000D90AE108F108C818D908EA08FB08F7FEB2
:104E90002BCFEECF0E94E7B20E9496E363387105F4
:104EA00014F062E870E0709352116093511181E048
:104EB000809361018091140F80933F101DA61EA660
:104EC0001FA618AA1AAA1BAA1CAA1DAA1CA61EAABB
:104ED000BCE3BFABECE1E8AFF6E4F9AFE12CF12CB9
:104EE00000E81FEB812C912C5401609151117091BD
:104EF0005211072E000C880B990B0E943DDE762E76
:104F0000672E582E492E9701A8010E9436DE88236D
:104F100029F1209140103091411040914210509160
:104F20004310A9A9672D762D852D942DA11107C0B9
:104F30000E9436DE881F8827881F8CA715C00E9414
:104F400036DE87FF10C080916101882309F4DECD31
:104F500060E085E892E00E942E43D8CD7E2C6F2C35
:104F6000502E412E01C01CA60E94C1C16B017C01C4
:104F7000DC01CB012AA93BA94CA95DA9821B930B9B
:104F8000A40BB50BB7FD3AC0D701C60188519C4FA1
:104F9000AF4FBF4F8AAB9BABACABBDAB0E942DB14B
:104FA000EFE8F2E084918F010F5F1F4F882321F01B
:104FB0000E9482B3F801F6CF81149104A104B104D8
:104FC000B9F0D501C401805F984DAF4FBF4FBC0110
:104FD000CD016C197D098E099F0928EE33E040E070
:104FE00050E00E943DE2CA01B9010E9497B603C099
:104FF0008FE30E9482B38AE00E9482B30E941C8EDB
:105000000E9477B3209040103090411000914210E0
:10501000109143109101A801672D762D852D942DB7
:105020000E94A0E29F7781149104A104B10449F485
:1050300020E030E040E85FE30E9436DE87FF0BC0EF
:1050400008C020E030E040E450E40E9424E4181658
:1050500014F4460157019CA5992379F12DA53EA58D
:105060004FA558A9211531054105510541F0D7013A
:10507000C601821B930BA40BB50BB7FD1EC091019B
:10508000A8016EA97FA988AD99AD0E94A0E220E099
:1050900030E040EC5FE30E9436DE87FD54CFD7015D
:1050A000C601805A9541AF4FBF4F8DA79EA7AFA7AE
:1050B000B8AB2EAA3FAA08AF19AF8091610188232F
:1050C00009F441CF81149104A104B10429F4E72C1F
:1050D000F62C052D142D09CF90E1C91A97E2D90AB3
:1050E000E108F108C818D908EA08FB08F7FE2BCF39
:1050F000EECF0E94CBBD88E50E941AB3882319F039
:105100005E9A1092930289E50E941AB3882319F0DF
:105110005E9A109294028AE50E941AB3882309F4D9
:10512000F5CC159A10929502F1CC0E94E7B220E0DE
:1051300030E040E050EC0E9436DE87FD12C00E9455
:10514000E7B220E030E040E050E40E9424E418168A
:105150001CF00E94E7B209C060E070E080E090E4DB
:1051600004C060E070E080E090EC20919502222382
:1051700009F4CCCC00910A1010910B1020919A09DF
:1051800030919B0940919C0950919D090E949CDEA1
:105190000E9496E3600F711F70930B1060930A10CA
:1051A000B5CC0E94CBBDBC2C60E08C2D0E945FC1B1
:1051B0000F3F2FEF120759F48C2D0E9407C131E0E9
:1051C00020E0892B09F030E0032F122F05C00130B9
:1051D000110561F401E010E08B2D0E9407C18017DA
:1051E000910709F493CC0E941C8EF6CF00E010E0EA
:1051F000F3CFE9960FB6F894DEBF0FBECDBFDF91B7
:10520000CF911F910F91FF90EF90DF90CF90BF90C3
:10521000AF909F908F907F906F905F904F903F9056
:105220002F900895CF92DF92EF92FF920F931F93EA
:10523000CF93DF936C01EB017B01E40EF51E00E0E0
:1052400010E0CE15DF0561F06991D601ED91FC917A
:105250000190F081E02DC6010995080F191FF1CFCB
:10526000C801DF91CF911F910F91FF90EF90DF90D8
:10527000CF9008950E94EBE4CF93DF93EC0160E0C0
:105280008E810E9430C161E08E810E9430C160E059
:105290008E810E9430C18AE891E00197F1F7DF9199
:1052A000CF9108951F920F920FB60F9211242F9352
:1052B0003F938F939F93AF93BF93809132119091BF
:1052C0003311A0913411B091351130913B0423E09A
:1052D000230F2D3720F40196A11DB11D05C026E82E
:1052E000230F0296A11DB11D20933B048093321120
:1052F00090933311A0933411B093351180913611EE
:1053000090913711A0913811B09139110196A11DDA
:10531000B11D8093361190933711A0933811B0933B
:105320003911BF91AF919F918F913F912F910F9024
:105330000FBE0F901F901895CF92DF92EF92FF92C1
:105340000F931F93CF93DF936C017C0187E0E80EEE
:10535000F11CC0E0D0E0062F10E0B8010C2E02C016
:10536000759567950A94E2F76170F70181917F0165
:105370000E9430C12196C430D10579F7C601DF9172
:10538000CF911F910F91FF90EF90DF90CF900C94F1
:105390003C29CF92DF92EF92FF920F931F93CF930E
:1053A000DF93EC01F62E642F8C810E9430C18D8139
:1053B0008F3F19F060E00E9430C18F850F2D10E003
:1053C00084FF25C06E0187E0C80ED11CE12CF12CB2
:1053D000B8010E2C02C0759567950A94E2F76170CA
:1053E000F60181916F010E9430C1FFEFEF1AFF0AB1
:1053F00088E0E816F10461F7CE01DF91CF911F91AB
:105400000F91FF90EF90DF90CF900C943C29B80162
:1054100084E0759567958A95E1F7CE010E949C29F5
:105420006F2DCE01DF91CF911F910F91FF90EF90E3
:10543000DF90CF900C949C2941E00E94C92981E023
:1054400090E008958F929F92AF92BF92CF92DF9299
:10545000EF92FF92CF93FC01C080D180E280F38075
:1054600020E030E0A901C701B6010E9436DE87FFC7
:1054700008C0C701B601905820E030E048EC52E483
:1054800006C020E030E048EC52E4C701B6010E94BB
:105490009CDE0E9496E36B017C01603AF6E87F0790
:1054A000F1E08F07910584F020EA36E841E050E012
:1054B0000E945FE2CA01B9012AE030E040E050E01A
:1054C0000E945FE2605D01C060E26093531180E181
:1054D000C81687E2D806E104F10494F0C701B601CA
:1054E00020E137E240E050E00E945FE2CA01B901EA
:1054F0002AE030E040E050E00E945FE2605D01C0E1
:1055000060E260935411E8EECE16E3E0DE06E104BB
:10551000F10494F0C701B60128EE33E040E050E01A
:105520000E945FE2CA01B9012AE030E040E050E0A9
:105530000E945FE2605D01C060E260935511C701A7
:10554000B60124E630E040E050E00E945FE28AE0ED
:10555000882E912CA12CB12CCA01B901A50194016E
:105560000E945FE2605D609356118EE28093571156
:10557000C701B601A50194010E945FE2C62FCA01CE
:10558000B901A50194010E945FE2605D609358112A
:10559000C05DC093591183E591E1CF91FF90EF90E9
:1055A000DF90CF90BF90AF909F908F9008958F9293
:1055B0009F92AF92BF92CF92DF92EF92FF92CF93E2
:1055C00020E030E048EC52E4FC016081718182818E
:1055D00093810E949CDE0E9496E36B017C0197FF01
:1055E0000AC0F094E094D094C094C11CD11CE11C7A
:1055F000F11C8DE201C08BE280935311C701B6010B
:1056000020E137E240E050E00E945FE28AE0882E2D
:10561000912CA12CB12CCA01B901A50194010E94C1
:105620005FE2605D60935411C701B60128EE33E07C
:1056300040E050E00E945FE2CA01B901A501940177
:105640000E945FE2605D60935511C701B60124E6D8
:1056500030E040E050E00E945FE2CA01B901A501DC
:1056600094010E945FE2605D609356118EE2809328
:105670005711C701B601A50194010E945FE2C62F30
:10568000CA01B901A50194010E945FE2605D6093C7
:105690005811C05DC093591183E591E1CF91FF90FE
:1056A000EF90DF90CF90BF90AF909F908F90089534
:1056B0008F929F92AF92BF92CF92DF92EF92FF9222
:1056C0000F931F93CF93DF9300D000D0CDB7DEB7F9
:1056D000FC018381813079F5818181FF2CC0818932
:1056E0009289A389B489892B8A2B8B2B09F448C012
:1056F0007F0140E050E0BA01CF010E949CC58823A1
:10570000D1F0F70185889688A788B08CC18CD28C9F
:1057100082E090E0A0E0B0E0F60180839183A28374
:10572000B3839E012F5F3F4FB501A401C6010E94C4
:105730001FC4811102C080E03CC000E010E098016D
:10574000B501A401C6010E948DC38823A1F38980FD
:105750009A80AB80BC80F6018789803141F4F8EFF4
:105760008F16FFEF9F06A104B10460F4DACF88EF33
:1057700088168FEF9806A8068FE0B80618F4D1CFE8
:1057800081E017C0F701158A168A178A108E118AD0
:10579000128A138A148A818180688183C7010E94DA
:1057A00069C5882341F240E050E0BA01C7010E9478
:1057B0009CC50F900F900F900F90DF91CF911F918C
:1057C0000F91FF90EF90DF90CF90BF90AF909F90A0
:1057D0008F9008950F931F93CF93DF938C01E1E196
:1057E000FAE18491EF012196882321F00E9482B38F
:1057F000FE01F7CFF8018491EF012196882321F073
:105800000E9482B3FE01F7CF609160047091610441
:1058100080916204909163040E9497B68AE00E948E
:1058200082B30E94159510925F0410925E04DF917E
:10583000CF911F910F910895CF93DF93CDB7DEB72E
:1058400080915D04811112C09E01285F3F4F4E81FF
:105850005F816CE370E087E091E00E94FDDD0E94D3
:10586000124383E08093060110925C04DF91CF9194
:1058700008958091790C90917A0C81309105B9F15D
:10588000029759F40E94C68460937B0C70937C0C41
:1058900080937D0C90937E0C18C010927F0C109218
:1058A000800C1092810C1092820C1092830C10923A
:1058B000840C1092850C1092860C10927B0C109226
:1058C0007C0C10927D0C10927E0C81E090E0909305
:1058D0007A0C8093790C0E94C1C160937F0C709305
:1058E000800C8093810C9093820C81E0089580E07D
:1058F0000895CF93DF93EC0128812C3008F05BC032
:1059000030E01616170664F4F901EE0FFF1FE20FE0
:10591000F31FEF5AF34F6F739081907C692B608374
:10592000F901EE0FFF1F2E0F3F1FF901EF5AF34F42
:10593000808161E08F730E945FC119821A82888121
:105940006CE00E94AEE49CE0899FB001112440E02D
:1059500050E09B01240F351FF901EE0FFF1F2E0FA2
:105960003F1FF901EF5AF34F908196FD16C04F5F2C
:105970005F4F4C30510569F781110FC010929000B4
:1059800082E0809391001092950010929400C19A49
:10599000809171008260809371008881E82FF0E02F
:1059A0009F01220F331FE20FF31FEF5AF34F908135
:1059B0009064908301C08FEFDF91CF910895EF92B3
:1059C000FF921F93CF93DF93D091590481E0D827A2
:1059D00010915A041827C0915B04C827D11104C044
:1059E000111102C009F482C0EFE2FAE184917F0153
:1059F0009FEFE91AF90A811103C0E5E4F8E004C059
:105A00000E9482B3F701F2CF84917F019FEFE91AE0
:105A1000F90A882321F00E9482B3F701F5CFDD2334
:105A200069F0E3E4F8E084917F019FEFE91AF90A55
:105A3000882321F00E9482B3F701F5CF112369F08A
:105A4000E1E4F8E084917F019FEFE91AF90A8823E5
:105A500021F00E9482B3F701F5CFCC2319F0EFE3D8
:105A6000F8E003C0E7E3F8E00BC084917F019FEF0B
:105A7000E91AF90A8823B1F30E9482B3F701F5CF3E
:105A800084917F019FEFE91AF90A882321F00E948F
:105A900082B3F701F5CFCC2319F04DE052E002C0FC
:105AA00048E252E0112319F02FE032E002C028E270
:105AB00032E0DD2319F081E192E002C088E292E059
:105AC0005F934F933F932F939F938F9385E298E03B
:105AD0009F938F931F920E941C2C8DB79EB709969F
