:100000000C9409130C9433130C9433130C94331382
:100010000C9433130C9433130C9433130C94331348
:100020000C9433130C9433130C9433130C94331338
:100030000C9433130C9477320C9433130C943313C5
:100040000C9433130C94F4B80C942D290C943313A2
:100050000C9444B70C9433130C9433130C94331353
:100060000C9433130C9433130C9433130C943313F8
:100070000C9433130C9433130C9433130C943313E8
:100080000C94523A0C9433130C943313447E497EEF
:100090004E7E587E867E627E6A7E727E7C7E7AB9D5
:1000A0007EB98DB991B9A0B9ABB964B909BE0CBE1E
:1000B000FFBD03BE23BE10BE14BE1ABE1EBE4E41FF
:1000C0004E494E495459494E46CDCCCC3D0AD723D2
:1000D0003C17B7D13877CC2B329595E6241FB14F1A
:1000E0000A000020410000C84200401C4620BCBE5F
:1000F0004CCA1B0E5AAEC59D74434F4D4D554E49CB
:10010000434154494F4E0044525952554E004552B6
:10011000524F525300494E464F004543484F0053FB
:100120006C6565702E2E2E00473238205A20466F9F
:100130007262696464656E0A00473238205A20464C
:100140006F7262696464656E00205A3A200020591B
:100150003A200042656420583A20004D65736820BB
:10016000706F696E742063616E6E6F7420626520BB
:100170007265736F6C7665640A00526573756D699C
:100180006E67207072696E7400503830324E5F4D69
:10019000454C5A492072656164792E00436C69634D
:1001A0006B20746F20726573756D652E2E2E004E58
:1001B0006F206D6F76652E00456E642066696C65F4
:1001C000206C6973740A00426567696E2066696C09
:1001D00065206C6973740A005344207072696E74F0
:1001E000696E67206279746520004E6F74205344F5
:1001F000207072696E74696E670A00256973002544
:10020000696D20256973002569682025696D2025A1
:10021000697300256964202569682025696D20259A
:10022000697300256979202569642025696820257E
:10023000696D20256973005072696E742074696D50
:10024000653A2000452569202573001A0115010E25
:10025000010701F9006F66660044454255473A00C0
:100260004B494C4C45442E20006F6B00486561742F
:10027000696E6720646F6E652E0020573A00452531
:10028000692025730042656420646F6E652E00202E
:10029000573A004265642048656174696E672E00B4
:1002A000503830324E5F4D454C5A49204F66662ECD
:1002B00000454D455247454E43595F5041525345C5
:1002C0005200434153455F4C494748545F425249AD
:1002D0004748544E45535300544F47474C455F4C95
:1002E000494748545300534F4654574152455F5075
:1002F0004F574552004255494C445F504552434583
:100300004E54004C4556454C494E475F444154417C
:10031000005A5F50524F4245004155544F4C45568C
:10032000454C005052494E545F4A4F420050524F84
:100330004752455353004155544F5245504F525424
:100340005F54454D5000564F4C554D45545249430E
:1003500000454550524F4D0053455249414C5F585E
:100360004F4E5F584F4646004649524D5741524501
:100370005F4E414D453A4D61726C696E204261732A
:1003800065206F6E204D61726C696E312E312E3892
:1003900020284769746875622920534F5552434598
:1003A0005F434F44455F55524C3A68747470733ADA
:1003B0002F2F6769746875622E636F6D2F7A6F6E69
:1003C000657374617233642050524F544F434F4CE5
:1003D0005F56455253494F4E3A312E30204D4143DE
:1003E00048494E455F545950453A503830324E5F77
:1003F0004D454C5A492045585452554445525F4347
:100400004F554E543A3120555549443A30303030EA
:10041000303031302D303830382D303030332D30D1
:100420003030302D32303138303131303030310AE7
:10043000002F2F20004D31343520533C696E646508
:10044000783E206F7574206F662072616E6765203C
:1004500028302D31290A0053657474696E67205461
:10046000726176656C20416363656C657261746965
:100470006F6E3A200053657474696E67205265741C
:100480007261637420416363656C65726174696F46
:100490006E3A200053657474696E67205072696EFD
:1004A0007420416363656C65726174696F6E3A2094
:1004B0000053657474696E67205072696E742061B0
:1004C0006E642054726176656C20416363656C656F
:1004D000726174696F6E3A2000205A0020590058EA
:1004E0000020204D61783A2000205A002059005801
:1004F0000020204D696E3A20004F6E20004F666646
:1005000000536F667420656E6473746F70733A2065
:100510000000010F150E12FF16170E13FF03021A2B
:1005200014FFFFFF0C04FFFFFF01000EFFFF0C1E76
:100530000DFFFFFFFFFFFFFFFF206F7574206F6649
:100540002072616E67650A00536572766F20003A0B
:10055000200020536572766F200020643A002069E5
:100560003A0020703A0043290A0061626C656420F9
:10057000286D696E2074656D702000436F6C642077
:1005800065787472756465732061726520004F66CA
:10059000660A0046616465204865696768742000E2
:1005A000426564204C6576656C696E672000466123
:1005B000696C656420746F20656E61626C652042B1
:1005C0006564204C6576656C696E670A004D6573DD
:1005D0006820706F696E742063616E6E6F74206244
:1005E00065207265736F6C7665640A004D34323134
:1005F00020696E636F727265637420706172616DE1
:10060000657465722075736167650A003A20002081
:100610007A5F6D696E3A20202D3230207A5F6D61ED
:10062000783A202032300A0050726F6265205A20DA
:100630004F6666736574004E6F2063617365206C4E
:10064000696768740A004163746976652045787447
:1006500072756465723A2000556E6B6E6F776E200E
:10066000636F6D6D616E643A20220000000000012E
:100670000204040000001C1C0C040404020100001D
:1006800000000004081000000000002D2D2D2D2D6D
:100690002D2D2D007C5A4F4E45535441527C002D38
:1006A0002D2D2D2D2D2D2D00687474703A2F2F7740
:1006B00077772E7A6F6E657374617233642E636F11
:1006C0006D0042617365206F6E204D61726C696EC2
:1006D000312E312E380042617365206F6E204D61DE
:1006E000726C696E312E312E3800002020506C6102
:1006F0006E6E657242756666657242797465733AAC
:1007000020002046726565204D656D6F72793A2034
:1007100000436F6D70696C65643A204665622031F4
:100720003820323031390A00207C20417574686FDE
:10073000723A202848616C6C79405A4F4E455354A8
:100740004152290A00323031382D303900204C61B5
:10075000737420557064617465643A20004261735B
:1007600065206F6E204D61726C696E312E312E38AE
:100770000A004D61726C696E0020536F6674776178
:1007800072652052657365740A002057617463684E
:10079000646F672052657365740A002042726F7738
:1007A0006E206F75742052657365740A0020457859
:1007B0007465726E616C2052657365740A00506FC7
:1007C00077657255700A0073746172740A006572FD
:1007D000726F722077726974696E6720746F206619
:1007E000696C650A00456E6473746F7073202563CD
:1007F00020256320256320256300205A3A002059D4
:100800003A0020583A00656E6473746F7073206804
:1008100069743A2000446F6E6520736176696E6773
:100820002066696C652E0A004D323900486F6D658F
:100830002025732573257320666972737400206602
:10084000697273740A005A0059005800486F6D6548
:10085000200057726974696E6720746F2066696C36
:10086000653A20006F70656E206661696C65642C66
:100870002046696C653A20006F70656E206661697C
:100880006C65642C2046696C653A200046696C658D
:100890002073656C65637465640A002053697A652A
:1008A0003A200046696C65206F70656E65643A2079
:1008B000006F70656E206661696C65642C20466906
:1008C0006C653A20002066696C653A2000646F69A7
:1008D0006E67006672657368004E6F772000454E44
:1008E0004420535542524F5554494E450A00222048
:1008F000706F73002220706172656E743A2200532B
:100900005542524F5554494E452043414C4C20745A
:1009100061726765743A22004B494C4C45442E2065
:1009200000747279696E6720746F2063616C6C204B
:100930007375622D67636F64652066696C657320EB
:100940007769746820746F6F206D616E79206C65B3
:1009500076656C732E204D4158206C6576656C2051
:1009600069733A0043616E6E6F74206F70656E201C
:10097000737562646972200024F4D43050C38E20F1
:10098000C2A24017828B7011127A910D816CD90A24
:10099000A861E108C7586607615143061E4B5D0513
:1009A000C145A7041A411104093D98037139310367
:1009B0004036DB0265339102D4305402802E1D0292
:1009C000632CEE01752AC501B028A0011027810112
:1009D0008F2564012B244B01E0223401AC211F013F
:1009E0008D200D01801FFC00841EED00971DDF008F
:1009F000B81CD200E61BC600201BBC00641AB20063
:100A0000B219A8000A19A0006A189900D11791001C
:100A100040178B00B516840031167E00B31579009F
:100A20003A157300C7146F0058146A00EE1366007D
:100A30008813630025135E00C7125B006C12570019
:100A400015125400C111510070114F0021114B00BB
:100A5000D61049008D104700461044000210420095
:100A6000C00F4000800F3E00420F3C00060F3B00CD
:100A7000CB0E3800930E37005C0E3500270E340085
:100A8000F30D3200C10D3100900D3000600D2E00CD
:100A9000320D2D00050D2C00D90C2B00AE0C2900B9
:100AA000850C29005C0C2700350C27000E0C260055
:100AB000E80B2400C40B2400A00B23007D0B2300B3
:100AC0005A0B2100390B2100180B2000F80A1F00D7
:100AD000D90A1E00BB0A1E009D0A1D00800A1D00C7
:100AE000630A1C00470A1B002C0A1B00110A1A008B
:100AF000F7091A00DD091900C4091900AB0919002A
:100B0000920917007B091800630917004C091600A9
:100B100036091600200916000A091500F508150007
:100B2000E0081400CC081400B8081400A40814004D
:100B3000900813007D0812006B081300580812007B
:100B40004608120034081100230811001208110091
:100B500001081100F0071000E0071000D007100096
:100B6000C0071000B0070F00A107100091070E008A
:100B700083070F0074070F0065070E0057070E006C
:100B800049070E003B070D002E070E0020070D0041
:100B900013070D0006070D00F9060C00ED060D0009
:100BA000E0060C00D4060C00C8060C00BC060C00C5
:100BB000B0060C00A4060B0099060C008D060B0075
:100BC00082060B0077060B006C060B0061060A001C
:100BD00057060B004C060A0042060A0038060A00B7
:100BE0002E060A0024060A001A060A00100609004A
:100BF00007060A00FD050900F4050900EB050900D8
:100C0000E2050900D9050900D0050900C70509005A
:100C1000BE050900B5050800AD050800A5050900D9
:100C20009C050800940508008C0508008405080050
:100C30007C050800740508006C05070065050800C0
:100C40005D050700560508004E050700470507002B
:100C50004005080038050700310507002A05070090
:100C6000230507001C050600160507000F050700F1
:100C70000805060002050700FB040600F50407004E
:100C8000EE040600E8040600E2040700DB040600A8
:100C9000D5040600CF040600C9040600C3040600FC
:100CA000BD040600B7040600B1040500AC0406004C
:100CB000A6040600A00405009B0406009504050098
:100CC000900406008A0405008504050080040600DF
:100CD0007A04050075040500700405006B04050026
:100CE00066040500610405005C0405005704050066
:100CF000520405004D0405004804050043040500A6
:100D00003E0404003A0405003504050030040400E4
:100D10002C04050027040400230405001E0404001D
:100D20001A04040016040500110404000D04040054
:100D3000090405000404040000040400FC0304008A
:100D4000F8030400F4030400F0030400EC030400BF
:100D5000E8030400E4030400E0030400DC030400EF
:100D6000D8030400D4030400D0030400CC0304001F
:100D7000C8030300C503030024F404D9201BC40CDA
:100D80005C0E9804C4095F0265077101F405F9005F
:100D9000FB04B30048048700C103690058035500F1
:100DA00003034500BE023A008402310053022A00C8
:100DB0002902250004022000E4011C00C8011900DA
:100DC000AF01170098011400840113007101100095
:100DD0006101100051010E0043010D0036010B00AE
:100DE0002B010B0020010B00150109000C0109006B
:100DF00003010800FB000800F3000800EB000700F7
:100E0000E4000600DE000600D8000600D20006005E
:100E1000CC000500C7000500C2000500BD000400AD
:100E2000B9000400B5000400B1000400AD000400E6
:100E3000A9000400A5000300A20003009F00040015
:100E40009B0003009800030095000200930003003C
:100E5000900003008D0002008B0003008800020058
:100E60008600020084000300810002007F0002006F
:100E70007D0002007B000200790002007700010083
:100E8000760002007400020072000100710002008E
:100E90006F0002006D0001006C0002006A0001009A
:100EA00069000200670001006600010065000100A2
:100EB00064000200620001006100010060000100A6
:100EC0005F0002005D0001005C0001005B000100AA
:100ED0005A000100590001005800010057000100AC
:100EE00056000100550001005400010053000000AD
:100EF00053000100520001005100010050000100A8
:100F00004F0001004E0000004E0001004D000100A6
:100F10004C0001004B0000004B0001004A000100A2
:100F2000490001004800000048000100470001009E
:100F30004600000046000100450000004500010099
:100F40004400010043000000430001004200000093
:100F5000420001004100000041000100400001008A
:100F60003F0000003F0001003E0000003E00010085
:100F70003D0000003D0001003C0000003C0000007E
:100F80003C0001003B0000003B0001003A00000073
:100F90003A0001003900000039000100380000006B
:100FA0003800000038000100370000003700010061
:100FB0003600000036000000360001003500000059
:100FC000350000003500010034000000340000004E
:100FD0003400010033000000330000003300010042
:100FE0003200000032000000320001003100000039
:100FF000310000003100010030000000300000002E
:10100000300001002F0000002F0000002F00000022
:101010002F0001002E0000002E0000002E00010015
:101020002D0000002D0000002D0000002D0001000B
:101030002C0000002C0000002C0000002C000100FF
:101040002B0000002B0000002B0000002B000100F3
:101050002A0000002A0000002A0000002A000100E7
:1010600029000000290000002900000029000000DC
:1010700029000100280000002800000028000000CE
:1010800028000000280001002700000027000000C1
:1010900027000000270000002700010026000000B4
:1010A00026000000260000002600000026000100A7
:1010B000250000002500000025000000250000009C
:1010C000250000002500010024000000240000008D
:1010D0002400000024000000240001002300000080
:1010E0002300000023000000230000002300000074
:1010F0002300000023000100220000002200000065
:101100002200000022000000220000002200010056
:10111000210000002100000021000000210000004B
:10112000210000002100000021000100200000003B
:10113000200000002000000020000000200000002F
:101140002000000020000000200001001F0000001F
:101150001F0000001F0000001F0000001F00000013
:101160001F0000001F0001001E0000001E00000004
:101170001E0000001E000000A00F001003A00F00C2
:101180001002A00F0010012C01F401086C07980850
:10119000053A026603076E0A360B047E04AA0506AA
:1011A00056652D6A65726B0056652D6A65726B0017
:1011B00056652D6A65726B00567A2D6A65726B00F2
:1011C000567A2D6A65726B0056792D6A65726B00CE
:1011D00056792D6A65726B0056792D6A65726B00BF
:1011E00056782D6A65726B0056782D6A65726B00B1
:1011F00056782D6A65726B004D6F74696F6E00458D
:1012000073746570732F6D6D004573746570732F03
:101210006D6D005A73746570732F6D6D005A737421
:101220006570732F6D6D005973746570732F6D6DDC
:10123000005973746570732F6D6D00587374657009
:10124000732F6D6D005873746570732F6D6D004D45
:101250006F74696F6E0053746570732F6D6D004A03
:1012600065726B00416363656C65726174696F6E72
:101270000056656C6F63697479005A204F66667317
:101280006574005A204F666673657400436F6E7410
:10129000726F6C0043616E6E6F7420656E74657260
:1012A000207375626469723A2000052E2E00045284
:1012B000656672657368004D61696E0053544F50E6
:1012C0005045442E20005072696E7465722073740C
:1012D0006F707065642064756520746F206572722C
:1012E0006F72732E2046697820746865206572726B
:1012F0006F7220616E6420757365204D3939392015
:10130000746F20726573746172742E202854656D39
:10131000706572617475726520697320726573659A
:10132000742E205365742069742061667465722080
:1013300072657374617274696E67290A0053544F41
:10134000502063616C6C65642062656361757365D0
:10135000206F6620424C546F756368206572726F0F
:1013600072202D20726573746172742077697468BD
:10137000204D3939390A0042696C696E6561722005
:101380004C6576656C696E6720477269643A0A003D
:1013900020706F736974696F6E206F7574206F664B
:1013A0002072616E67652E0A003F50726F62652081
:1013B00000202844525952554E29004732392041C5
:1013C00075746F20426564204C6576656C696E6744
:1013D0000028422961636B00284629726F6E7400F1
:1013E0002852296967687400284C29656674003F93
:1013F0002856296572626F7365206C6576656C206E
:10140000697320696D706C61757369626C65202801
:10141000302D34292E0A00426164205A2076616CF6
:1014200075650A004E6F2062696C696E6561722095
:10143000677269640A0020204D383531205A005AFD
:101440002D50726F6265204F666673657420286D3B
:101450006D293A0A0020440020490020204D3330F5
:10146000312050005049442073657474696E67736D
:101470003A0A0020460020420020480020204D313A
:1014800034352053004D6174657269616C20686564
:101490006174757020706172616D65746572733A04
:1014A0000A00205A0020204D34323020530041756C
:1014B000746F20426564204C6576656C696E673A8E
:1014C0000A00204500205A002059002058002042E0
:1014D0000020540020204D323035205300416476E6
:1014E000616E6365643A20533C6D696E5F66656545
:1014F00064726174653E20543C6D696E5F74726104
:1015000076656C5F66656564726174653E20423C19
:101510006D696E5F7365676D656E745F74696D6527
:101520005F75733E20583C6D61785F78795F6A65BE
:10153000726B3E205A3C6D61785F7A5F6A65726BB0
:101540003E20453C6D61785F655F6A65726B3E0A5F
:101550000020540020520020204D32303420500012
:10156000416363656C65726174696F6E2028756E86
:101570006974732F7332293A20503C7072696E740B
:101580005F616363656C3E20523C72657472616397
:10159000745F616363656C3E20543C747261766570
:1015A0006C5F616363656C3E0A00204500205A0051
:1015B00020590020204D3230312058004D6178698B
:1015C0006D756D20416363656C65726174696F6EE2
:1015D0002028756E6974732F7332293A0A002045EA
:1015E00000205A0020590020204D3230332058006E
:1015F0004D6178696D756D206665656472617465AD
:10160000732028756E6974732F73293A0A00204578
:1016100000205A0020590020204D39322058005314
:10162000746570732070657220756E69743A0A0073
:1016300020204D3230302044300A0020204D3230FE
:10164000302044002044697361626C65640A00467E
:10165000696C616D656E742073657474696E67730F
:101660003A0020204D3134392043203B20556E690B
:10167000747320696E2043656C736975730A00206A
:1016800020473231202020203B20556E6974732082
:10169000696E206D6D0A007A5F6D696E3A2000797F
:1016A0005F6D696E3A2000785F6D696E3A20005276
:1016B00065706F7274696E6720656E6473746F70A5
:1016C000207374617475730A0020746F6F206C6FDF
:1016D0006E6720657874727573696F6E20707265BD
:1016E00076656E7465640A0020636F6C64206578AB
:1016F00074727573696F6E2070726576656E74654D
:10170000640A00290A002062797465733B206372C1
:1017100063200053657474696E67732053746F722D
:101720006564202800202863616C63756C617465B2
:101730006429210A0020213D2000454550524F4D8B
:1017400020435243206D69736D61746368202D20BE
:101750002873746F726564292000290A0020627959
:101760007465733B2063726320002073746F72652D
:10177000642073657474696E67732072657472692E
:1017800065766564202800204D61726C696E3D5657
:101790003438290A0028454550524F4D3D004545F3
:1017A00050524F4D2076657273696F6E206D69736C
:1017B0006D61746368200048617264636F6465647E
:1017C0002044656661756C742053657474696E6736
:1017D00073204C6F616465640A00D0070000200329
:1017E00000006400000088130000000016430000A1
:1017F000C84200000041000048420000A042000032
:10180000A0420000C8430000AA4246696C652064FB
:10181000656C657465643A0044656C6574696F6EE7
:10182000206661696C65642C2046696C653A20000D
:101830006F70656E206661696C65642C2046696C0A
:10184000653A200050726F74656374656420506956
:101850006E0A00205A3A0020593A0020436F756EF4
:101860007420583A0020453A00205A3A0020593A4C
:1018700000583A003A004361703A00236465666993
:101880006E65202044454641554C545F4B64200012
:1018900023646566696E65202044454641554C5475
:1018A0005F4B69200023646566696E6520204445AE
:1018B0004641554C545F4B702000504944204175BF
:1018C000746F74756E652066696E697368656421EE
:1018D0002050757420746865206C617374204B709F
:1018E0002C204B6920616E64204B6420636F6E7303
:1018F00074616E74732066726F6D2062656C6F77B1
:1019000020696E746F20436F6E66696775726174CB
:10191000696F6E2E680A00504944204175746F74D7
:10192000756E65206661696C6564212074696D65FA
:101930006F75740A00544845524D414C2052554E23
:101940004157415900546865726D616C2052756E43
:10195000617761790048656174696E6720666169C5
:101960006C65640048656174696E67206661696CC6
:10197000656400504944204175746F74756E65202C
:101980006661696C6564212054656D70657261746F
:1019900075726520746F6F20686967680A00204B54
:1019A000643A2000204B693A2000204B703A200016
:1019B0000A20436C617373696320504944200A0014
:1019C0002054753A2000204B753A2000206D617834
:1019D0003A2000206D696E3A200020643A200020F1
:1019E000626961733A200053442063617264206F1E
:1019F0006B0A006F70656E526F6F74206661696C60
:101A000065640A00766F6C756D652E696E69742069
:101A10006661696C65640A004572726F723A0053C0
:101A20004420696E6974206661696C0A006175748E
:101A30006F25692E67006563686F3A004D32340088
:101A40004D323320257300001C1F11111F000000B0
:101A500006191803130C00040E1F041C00000000DC
:101A60000E1315110E00001C1018170506050004B2
:101A70000A0A0A0A11110E0C12120C0000000000D2
:101A80001F1511151F0000526573656E643A200022
:101A90006F6B0020746F6F206C6F6E6720657874B9
:101AA000727573696F6E2070726576656E746564A9
:101AB0000A0020636F6C6420657874727573696FB7
:101AC0006E2070726576656E7465640A004B494CD1
:101AD0004C45442E20004B494C4C20636175736586
:101AE0006420627920746F6F206D75636820696E61
:101AF0006163746976652074696D65202D20637556
:101B00007272656E7420636F6D6D616E643A200051
:101B1000506C65617365207265736574005052493D
:101B20004E5445522048414C544544005072696E11
:101B30007465722068616C7465642E206B696C6CCE
:101B400028292063616C6C6564210A00656E7175DB
:101B5000657565696E67202200000020C2000000E4
:101B60000000000000000048420000484200000061
:101B700040000000005761726E696E673A20486F3E
:101B80006D696E672042756D702044697669736F68
:101B900072203C20310A000202040000A040000034
:101BA000A040000000400000874300005C430000AC
:101BB0006643FFFFFF5072656865617420414253C0
:101BC00020456E640050726568656174204142531F
:101BD000204265640050726568656174204142531B
:101BE0000050726570617265004261636B004E6502
:101BF000787420636F726E6572004D3238302050F9
:101C000030205331363000424C546F756368205396
:101C1000656C662D54657374004D32383020503039
:101C2000205331323000426564204C6576656C6922
:101C30006E67004732380A4732390050726568656E
:101C40006174204142530050726568656174205090
:101C50004C4100436F6F6C646F776E005265736523
:101C60007420424C546F7563680044697361626C00
:101C700065207374657070657273004D3834004C64
:101C80006576656C20636F726E6572730041757462
:101C90006F20686F6D6500473238004D6F766520A4
:101CA00061786973004D61696E004D6F76652058EB
:101CB000004D6F76652059004D6F7665205A0045BE
:101CC00078747275646572004D6F766520302E31C0
:101CD0006D6D004D6F766520316D6D004D6F7665D1
:101CE0002031306D6D004D6F76652061786973002D
:101CF0004578747275646572004D6F7665205A0080
:101D00004D6F76652059004D6F76652058005374ED
:101D10006F7720424C546F756368004D3238302025
:101D2000503020533930004465706C6F7920424C3C
:101D3000546F756368004D32383020503020533175
:101D40003000424C546F7563682053656C662D54A7
:101D5000657374004D3238302050302053313230AA
:101D600000526573657420424C546F756368004D72
:101D70003238302050302053313630004D61696E9A
:101D8000005072696E742070617573656400005054
:101D900072696E742061626F72746564004D3231D5
:101DA000004E6F2053442063617264004368616E8B
:101DB00067652053442063617264004D32310050E6
:101DC00072696E742066726F6D2053440053746F95
:101DD00070207072696E7400526573756D65207045
:101DE00072696E7400496E69742E205344206361D9
:101DF0007264005061757365207072696E7400437F
:101E00006F6E74726F6C0050726570617265005411
:101E1000756E6500496E666F2073637265656E004E
:101E20004261627973746570205A0042616279730D
:101E3000746570205A00466C6F7700466C6F7700AF
:101E4000466C6F770046616E20737065656400466E
:101E5000616E2073706565640046616E2073706505
:101E60006564004265640042656400426564004E3A
:101E70006F7A7A6C65004E6F7A7A6C65004E6F7A75
:101E80007A6C650053706565640053706565640025
:101E90005370656564004D61696E005072656865D8
:101EA000617420504C4120456E6400507265686535
:101EB000617420504C412042656400507265686531
:101EC000617420504C41005072657061726500452C
:101ED00078747275646572004D6F7665205A004D96
:101EE0006F76652059004D6F7665205800507265F9
:101EF0007061726500496E697469616C697A652008
:101F0000454550524F4D00436F6E74726F6C0052D6
:101F10006573746F7265206661696C7361666500D4
:101F20004C6F61642073657474696E677300496EE9
:101F3000697469616C697A6520454550524F4D005E
:101F400053746F72652073657474696E67730042B1
:101F50004C546F756368004D6F74696F6E00546503
:101F60006D7065726174757265004D61696E0050C7
:101F70007265686561742041425320636F6E66002C
:101F80005072656865617420504C4120636F6E66C5
:101F9000005049442D44005049442D4400504944C8
:101FA0002D49005049442D49005049442D500050BE
:101FB00049442D500046616E20737065656400468B
:101FC000616E2073706565640046616E2073706594
:101FD0006564004265640042656400426564004EC9
:101FE0006F7A7A6C65004E6F7A7A6C65004E6F7A04
:101FF0007A6C6500436F6E74726F6C0053746F720D
:10200000652073657474696E67730042656400428D
:10201000656400426564004E6F7A7A6C65004E6FAD
:102020007A7A6C65004E6F7A7A6C650046616E2034
:1020300073706565640046616E2073706565640049
:1020400046616E2073706565640054656D706572DD
:102050006174757265007C3C3E5E2B3D3F2F5B5D7D
:102060003B2C2A225C001000AA03800040010001E2
:102070002C01B001220140021001F0020201800394
:10208000F8004004F500E004ED009005E40030069F
:10209000DD00E006D7008007D1003008CC00D00872
:1020A000C7007009C300100ABE00B00ABB00500B85
:1020B000B700900CB300D00DAA00B00FA500F0102F
:1020C000A00030129600D0129000F0158B00D017AF
:1020D0008500B0198000F01A7B00701D7500F01F9C
:1020E0006F00702269004025640020275F00A0294E
:1020F0005A00902B5500102D4F00502E4800E03113
:10210000450030334100D035390060363700103794
:102110003300F0382D00A0392700803C1C00403DE2
:102120001700F03D1100803E0900D03FE5FF202F51
:10213000002042403A0020403A0025753A253032CE
:102140007500253032753A25303275002D2D2D0061
:102150005344005A00590058004B494C4C45442EFA
:10216000200053544F505045442E20005072696E49
:102170007465722073746F70706564206475652077
:10218000746F206572726F72732E204669782074A6
:102190006865206572726F7220616E642075736568
:1021A000204D39393920746F2072657374617274EF
:1021B0002E202854656D7065726174757265206992
:1021C000732072657365742E2053657420697420C2
:1021D00061667465722072657374617274696E678A
:1021E000290A004E6F20436865636B73756D207715
:1021F000697468206C696E65206E756D6265722CFD
:10220000204C617374204C696E653A2000636865E8
:10221000636B73756D206D69736D617463682C20D9
:102220004C617374204C696E653A20004C696E6590
:10223000204E756D626572206973206E6F74204C3C
:10224000617374204C696E65204E756D6265722BEA
:10225000312C204C617374204C696E653A20004D1E
:10226000313130004D3331005344207265616420B8
:102270006572726F720A00446F6E65207072696ECB
:1022800074696E672066696C650A006265640A009D
:102290002C2073797374656D2073746F707065642E
:1022A00021204865617465725F49443A20005448B2
:1022B00045524D414C2052554E41574159005468AA
:1022C00065726D616C2052756E6177617900486549
:1022D0006174696E67206661696C65640048656158
:1022E00074696E67206661696C65640070012C0119
:1022F00090012701B0012201C0011D01F001180168
:102300001002130130020E01600209019002040163
:10231000C002FF000003FA004003F5008003F00054
:10232000D003EB002004E6007004E100E004DC00D0
:102330004005D700C005D2004006CD00D006C80039
:102340008007C3003008BE00F008B900C009B4001F
:10235000B00AAF00B00BAA00D00CA500000EA00080
:10236000500F9B00C01096005012910000148C007A
:10237000C0158700B0178200B0197D00D01B78000F
:10238000001E730040206E0090226900F02464005B
:1023900040275F0090295A00E02B5500102E500076
:1023A00020304B0010324600E033410090353C00B5
:1023B0001037370070383200A0392D00B03A2800AD
:1023C000A03B2300603C1E00103D1900903D14000E
:1023D000103E0F00703E0A00C03E0500003F0000A6
:1023E000403FFBFF803FF6FFC03FF1FF4572723A6E
:1023F000204D494E54454D5020424544004572728F
:102400003A204D494E54454D50004D494E54454D8E
:102410005020747269676765726564004572723A2C
:10242000204D415854454D5020424544004572725C
:102430003A204D415854454D50004D415854454D5A
:10244000502074726967676572656400000021003E
:10245000240027002A0000002200250028002B006D
:1024600000002000230026002900020202020202CE
:102470000202040404040404040403030303030326
:1024800003030101010101010101010204081020FF
:10249000408001020408102040800102040810203E
:1024A000408080402010080402010000000102006A
:1024B0000000000000000403070600000000000008
:1024C0000000000000000000000050726F62696EA2
:1024D00067206661696C65640A0050726F62696E9C
:1024E00067206661696C656400205A3A20002059B3
:1024F0003A200042656420583A20004572726F729B
:102500002077726974696E6720746F204545505258
:102510004F4D210A005654726176206D696E005647
:1025200054726176206D696E005654726176206D2A
:10253000696E00566D696E00566D696E00566D6964
:102540006E00566D6178204500566D61782045001B
:10255000566D6178204500566D6178205A00566DA1
:102560006178205A00566D6178205A00566D617866
:10257000205900566D6178205900566D61782059B8
:1025800000566D6178205800566D617820580056CD
:102590006D61782058004D6F74696F6E00416D61F8
:1025A00078204500416D6178204500416D617820BB
:1025B0005A00416D6178205A00416D6178205900C0
:1025C000416D6178205900416D6178205800416D5E
:1025D0006178205800412D74726176656C00412D40
:1025E00074726176656C00412D72657472616374FA
:1025F00000412D7265747261637400416363656CA0
:1026000000416363656C004D6F74696F6E00B9D5EE
:10261000B6D611241FBECFEFD0E4DEBFCDBF12E08F
:10262000A0E0B1E0E0E2FBEC01E00BBF02C00790EC
:102630000D92A838B107D9F721E1A8E8B2E001C0AE
:102640001D92A23CB207E1F713E1C8E0D3E104C058
:102650002197FE010E94F6E4C730D107C9F70E9416
:1026600090CD0C9483E50C9400002F923F924F92F2
:102670005F926F927F928F929F92AF92BF92CF9212
:10268000DF92EF92FF920F931F93CF93DF93CDB71B
:10269000DEB7E9970FB6F894DEBF0FBECDBF8091CD
:1026A000BB118D3409F410C4843511F40C94072542
:1026B000873421F0E6E3FAE10C9449258091B911C1
:1026C0009091BA118D31910509F456C294F4843079
:1026D000910509F4A2C024F4029780F10C946125BD
:1026E0008B31910509F4DFC04C9709F46DC10C944E
:1026F00061258A35910509F4B2C24CF48E319105F9
:1027000009F43EC28A9709F42DC30C9461258B35D8
:10271000910509F4A8C28C35910511F00C9461253E
:102720000E94E7BDE9E72E2EE1E03E2EFCE3EF2E0E
:10273000F4E0FF2E00E0D12C10E0BFC280916A01CE
:10274000882311F40C946125B9E7CB2EB1E0DB2E80
:102750001DEAE12E1FE0F12E0CE314E088E8A82E1C
:1027600082E0B82ED6018D916D010E9436B3882388
:10277000D9F00E9403B3F5012081211104C02091FA
:102780008C02222331F0D8012D913D914D915C9125
:1027900003C020E030E0A9010E94B5E2F7016083A8
:1027A0007183828393830AC0F80180819181A28121
:1027B000B381F70180839183A283B383F4E0EF0EAA
:1027C000F11C0C5F1F4F2FEFA21AB20A3DE7C31690
:1027D00031E0D30639F686E40E9465B38823C9F058
:1027E0000E9403B320E030E0A9010E9438E41816EB
:1027F00084F40E9403B320E030E040E752E40E94FA
:1028000038E360937501709376018093770190931C
:1028100078010E9458870C94612580E50E9465B379
:10282000882329F00E94BFB26B017C0103C0C12C38
:10283000D12C760183E50E9465B3882361F00E9464
:1028400003B320E030E04AE754E40E94B0DE0E9487
:10285000B1E36B017C010E94E7BD8091070181110A
:1028600005C060E08FE191E00E9409430E9493B3AC
:102870008091A50F9091A60FA091A70FB091A80FDE
:10288000C80ED91EEA1EFB1E0E94D5C1DC01CB0179
:102890008C199D09AE09BF09B7FD02C00C946125D2
:1028A0000E949186F1CF0E94BA2C81110C9461256F
:1028B00080E090E0A0EFB1EC89839A83AB83BC8386
:1028C00080E090E0A0E2B1E48D839E83AF83B8877F
:1028D00080E090E0A0EAB1E489879A87AB87BC8763
:1028E00080E50E9465B3882319F00E94CFB201C031
:1028F00060E080E090E0A8ECB2E488A799A7AAA7DE
:10290000BBA780E090E0A0EAB0E48CA39DA3AEA3B7
:10291000BFA3613019F0623039F02EC0BE016C5D8A
:102920007F4FCE01099640C029853A854B855C854D
:10293000609144047091450480914604909147044D
:102940000E94B5E26B017C0120E030E046E653E4F2
:102950000E944ADE87FD06C0C12CD12CA6E6EA2ED5
:10296000A3E4FA2EC8A2D9A2EAA2FBA2BE016C5D22
:102970007F4FCE01809618C02091440430914504C9
:10298000409146045091470469857A858B859C85E2
:102990000E9438E418161CF084E494E002C0CE01D2
:1029A0000996BE016C5D7F4F0E94CF519E01285D4C
:1029B0003F4F44E454E0BE016B5F7F4FCE01019670
:1029C0000E94E0500C9461250E94E7BD80E00E94C7
:1029D0000A4F0E94C05081E08093500C88E50E940D
:1029E00036B3E82E89E50E9436B3082F8AE50E94A7
:1029F00036B3F82EE11005C0011105C011E018270B
:102A000005C0011102C010E001C0182F0E9489B357
:102A1000111104C0E11002C00023C1F180E090E078
:102A2000A0EAB0E48093B50F9093B60FA093B70FD0
:102A3000B093B80F9C01AD016091440470914504BE
:102A400080914604909147040E944ADE87FF0BC0A4
:102A500019821A821B821C82BE016F5F7F4F85EB39
:102A60009FE00E94CF51111105C0E11003C0011178
:102A700007C00CC080E090E00E94DE841123B9F30F
:102A800081E090E00E94DE84111103C0FF2009F470
:102A900064C080919302882321F080919402811177
:102AA0001FC060E089E391E00E940943E6E3FAE198
:102AB00084918F010F5F1F4F811103C0E8E2F1E0A5
:102AC00004C00E949EB3F801F3CF84918F010F5F81
:102AD0001F4F882309F441C00E949EB3F801F5CF2F
:102AE0000E9478B280E090E0ACEDB2E48093B10F48
:102AF0009093B20FA093B30FB093B40F809144049E
:102B000090914504A0914604B09147048093B50F7D
:102B10009093B60FA093B70FB093B80F80E090E0FA
:102B2000A4EBB2E48093AD0F9093AE0FA093AF0FE0
:102B3000B093B00F19821A821B821C829E012F5FF4
:102B40003F4F44E454E061EB7FE08DEA9FE00E9458
:102B5000E05082E090E00E94DE840E9478B2809192
:102B60004F0C8093500C0E94A65083E08093060186
:102B70000E94117D0C9461250E94B8520C9461252D
:102B8000C0903C04D0903D04E0903E04F0903F049F
:102B900088E50E9465B3811109C020E030E040EA79
:102BA00051E4C701B6010E94B5E202C00E9403B31E
:102BB00068A379A38AA39BA3C0904004D09041044A
:102BC000E0904204F090430489E50E9465B38111CE
:102BD00008C020E030E0A901C701B6010E94B5E2BB
:102BE00002C00E9403B36B017C0169837A838B83EB
:102BF0009C8388A099A0AAA0BBA02FE632E143E85D
:102C00005AEBC501B4010E9438E487FF02C00C945E
:102C1000612522E430E04CE553E4C501B4010E9493
:102C20004ADE181614F40C9461252FE632E143E8CD
:102C30005AEBC701B6010E9438E487FF02C00C942A
:102C4000612522E430E04CE553E4C701B6010E945F
:102C50004ADE181614F40C9461250C946425109225
:102C60008C020C94612581E080938C020C94612588
:102C70000E9403B32B013C01F70120813181428185
:102C800053810E94B4E24B015C012DEB37E346E82F
:102C900055EB0E9438E487FD18C02DEB37E346E87A
:102CA00055E3C501B4010E944ADE181674F01F5F97
:102CB000B4E0EB0EF11C1430A9F0D1018D911D018F
:102CC0000E9465B3882399F3D3CF133011F401E048
:102CD00002C0DD24D394D7014D925D926D927C9217
:102CE0001397E5CFDD2019F00E9478B237C000239A
:102CF000A9F1C0904804D0904904E0904A04F090B3
:102D00004B0420919E0930919F094091A009509158
:102D1000A109C701B6010E94B0DE0E943DE46093A4
:102D2000490C70934A0C80934B0C90934C0CC70148
:102D3000B6010E94AAE32FB7F8946093F410709341
:102D4000F5108093F6109093F7102FBF1092390C66
:102D500010923A0C10923B0C10923C0C0E94117D88
:102D60000C94612580916A01882311F40C946125EB
:102D700089E40E9465B3182F882321F00E94CFB206
:102D8000E62E01C0E12C8AE40E9465B3F82E882368
:102D900021F00E94CFB2062F01C000E0112319F0EC
:102DA000E2E0EE1520F0FF2081F0033070F0EBE55B
:102DB000F1E084918F010F5F1F4F882311F40C9471
:102DC00061250E949EB3F801F4CF0E9489B31123BC
:102DD000F1F02091FB093091FC094E2D4203B00126
:102DE000439F700D11248091F7099091F809680FA5
:102DF000791F072E000C880B990B0E9451DE6093FF
:102E0000AD0F7093AE0F8093AF0F9093B00FFF2074
:102E1000E9F02091FD093091FE090203B001039F02
:102E2000700D11248091F9099091FA09680F791FAA
:102E3000072E000C880B990B0E9451DE6093B10F96
:102E40007093B20F8093B30F9093B40F80E50E94FC
:102E500065B3882319F00E94F3B203C080E50E9495
:102E600036B38823C1F01123B1F020E030E040EA0E
:102E700051E46091AD0F7091AE0F8091AF0F9091C2
:102E8000B00F0E94B4E26093AD0F7093AE0F8093C9
:102E9000AF0F9093B00F86E40E9465B3882309F4C6
:102EA000B8CC0E9403B36B017C0120E030E0A901A3
:102EB0000E9438E418160CF0ACCC20E030E040E77B
:102EC00052E4C701B6019BCC8091B9119091BA111F
:102ED0008337910509F4D0C10CF0DDC08B34910526
:102EE00009F40DC40CF064C08831910509F4A5C241
:102EF000ACF58231910509F4ADC5BCF497FF02C071
:102F00000C946125823091050CF4B9C1419711F000
:102F10000C94612560E08FEA91E00E9409435E987D
:102F20005E9815985E980C9461258531910509F499
:102F300069C23CF4449711F00C946125E7ECF1E090
:102F400021C28631910509F461C2479711F00C94B2
:102F50006125E091B711F091B81162C28C319105F1
:102F600009F4C1C264F48A31910509F471C20CF00C
:102F70007DC21092890C0E94582D0C9461258F31CE
:102F8000910509F406C344F44E9711F00C946125A1
:102F90000E949D7E0C9461258032910509F4ADC29A
:102FA0008A9711F00C9461250E94DF7D0C946125B5
:102FB0008836910509F4AFC30CF040C08235910505
:102FC00009F43FC514F58D34910509F4A0C30CF440
:102FD0009AC38135910511F00C9461250E94B9B70F
:102FE0000E94E7BD0E943086109254111092531136
:102FF00068EE73E080E090E00E94484160E080EA83
:1030000092E00E9409430C9461258435910509F4EE
:1030100021C50CF41AC58535910509F452C58C35C6
:10302000910511F00C94612549E7C42E41E0D42E9E
:1030300052E9E52E59E0F52E10E05EC58D3691057A
:1030400009F495C49CF48A36910509F4C3C40CF4C0
:1030500050C48B36910509F4E2C48C36910511F009
:103060000C946125109261010C9461258F369105B5
:1030700009F4A8C30CF493C38037910509F415C46F
:103080008237910511F00C9461250E94E7BD0E94E2
:10309000117D0C946125883151E0950711F40C9451
:1030A00063210CF06CC08E3B910509F479C49CF54A
:1030B0008837910509F432C6A4F48637910509F4DE
:1030C000EBC50CF028C68537910511F00C946125ED
:1030D00060E08091B7119091B8110E9429430C943F
:1030E00061258C38910509F4E8C35CF489379105B2
:1030F00011F00C9461251092500C10924F0C0C940E
:1031000061258139910509F40FC68B39910509F4C0
:1031100007C40C9461258D3C910509F472C7ACF489
:10312000893C910509F4C6C634F4883C910509F43C
:1031300073C60C9461258B3C910509F4DDC68C3C6B
:10314000910509F4F4C60C9461258C3D910511F4A8
:103150000C94E82044F4833D910511F00C94612512
:10316000E6E3FAE1B9C78D3D910511F40C94F52021
:10317000823E910511F40C943A210C9461258A3910
:10318000B1E09B0709F495C3BCF58F32F1E09F07CE
:1031900011F40C940B2384F48D3231E0930711F475
:1031A0000C94192214F00C94B7228232914011F43D
:1031B0000C940E220C9461258039A1E09A0711F439
:1031C0000C940E234CF48336914011F00C9461253D
:1031D000E8E1FAE10C94DF248139F1E09F0711F472
:1031E0000C9411238239914011F00C94612580E0F8
:1031F0000E942A520C946125863F31E0930711F416
:103200000C947824ECF4853A51E0950711F40C9471
:10321000E3233CF4843A914011F40C9415230C946C
:103220006125843FE1E09E0711F40C947524853FED
:10323000914011F00C9461250E94956E0C946125CB
:10324000833523E09207A1F03CF4873F914011F4CD
:103250000C947B240C946125803A53E0950709F483
:103260008BC1873E934011F40C94F2240C94612599
:10327000E6E3FAE10C948A24E8E6F3E0BCC4A0900B
:10328000B711B090B81180E50E9465B3882359F05A
:103290000E94BFB26B017C0111E0672B682B692B88
:1032A00031F410E004C010E0C12CD12C760183E58C
:1032B0000E9465B38823F1F00E9403B320E030E060
:1032C0004AE754E40E94B0DE0E94B1E36B017C0146
:1032D000111112C0672B682B692B71F4A114B10472
:1032E00059F0F5018081882339F061E0C5010E9421
:1032F000294307C0112391F360E08CE991E00E941B
:10330000094381E080936A090E94E7BD0E9493B35C
:10331000C114D104E104F104E1F08091A50F909172
:10332000A60FA091A70FB091A80FC80ED91EEA1E34
:10333000FB1E0E94D5C1DC01CB018C199D09AE0991
:10334000BF09B7FF1BC080916A0981110C94BB258E
:1033500015C080916A09882319F00E949186F9CFDF
:103360008091790C90917A0C60E0029719F489E8C9
:1033700091E002C08AE791E00E94094310926A0935
:103380000C94612584918F010F5F1F4F882321F0DA
:103390000E949EB3F801F6CF10920F0F10920E0FFD
:1033A0008AEB9CE00E94E7A58BE1EAEBFCE0DE0102
:1033B000159601900D928A95E1F78091B80C909145
:1033C000B90C9C838B8389ED91E09A83898340E0DB
:1033D00050E0BE016F5F7F4F88E292E00E94EF2DC8
:1033E000CE0101960E942886E8EBF1E084918F01DE
:1033F0000F5F1F4F882311F40C9461250E949EB328
:10340000F801F4CF0E9457830C9461251092890C27
:1034100010928A0C0C946125803209F41082319646
:1034200080818111F9CF40E061E08091B7119091E6
:10343000B8110E940D300C94612580918A0C88236C
:1034400019F081E08093890C0E94142C0C94612562
:1034500080918A0C882311F40C94612583E50E94E5
:1034600065B381110C94BF250C94612580918A0C61
:10347000811103C0EAEEF1E02AC0E8EDF1E08491A9
:103480008F010F5F1F4F882321F00E949EB3F80128
:10349000F6CF6091050F7091060F8091070F909104
:1034A000080F4AE00E9446B68FE20E949EB36091E8
:1034B000010F7091020F8091030F9091040F4AE069
:1034C0000E9446B68AE00E949EB30C9461258491C6
:1034D0008F010F5F1F4F882311F40C9461250E9408
:1034E0009EB3F801F4CF40E060E08091B711909175
:1034F000B8110E940D300C9461258091890C8111C6
:103500000E94E7BD80918A0C882311F40C946125F8
:1035100080E50E9465B3882319F00E94F3B203C0CE
:1035200080E50E9436B3182F482F61E08091B711D3
:103530009091B8110E940D3083E50E9465B38823F5
:1035400081F00E94CFB2AB01BC014093050F5093B4
:10355000060F6093070F7093080F84E59EE00E94AA
:10356000B0C580918A0C882319F081E08093890C82
:1035700011110C94612568CF8091B7119091B81109
:1035800021E02093880C40E060E00E940D300C9414
:1035900061250E94A1847B018C0120E831E541E096
:1035A00050E00E9451E2C9016DE671E00E94CEE454
:1035B0004B015C01C801B70120E13EE040E050E072
:1035C0000E9451E2CA01B90128E130E040E050E038
:1035D0000E9451E2762E672EC62ED72E7CE3272E30
:1035E000312C412C512CC801B701A20191010E943C
:1035F00051E2F62EE72ECA01B901A20191010E9403
:1036000051E2CB018E010F5F1F4F8114910499F09D
:10361000EF92FF927F936F936F927F92BF92AF92E0
:103620009F928F9283E292E09F938F931F930F93C9
:103630000E94E2DD13C0A114B104B1F0EF92FF9239
:103640007F936F936F927F92BF92AF9283E192E0EC
:103650009F938F931F930F930E94E2DD0FB6F89410
:10366000DEBF0FBECDBF30C0CD2879F0EF92FF9204
:103670007F936F936F927F9287E092E09F938F93F7
:103680001F930F930E94E2DDE9CF892B69F0EF923F
:10369000FF927F936F938FEF91E09F938F931F9390
:1036A0000F930E94E2DDDACFEF92FF928BEF91E071
:1036B0009F938F931F930F930E94E2DD0F900F90C3
:1036C0000F900F900F900F9060E0C8010E94294367
:1036D000E6E3FAE184917F01BFEFEB1AFB0A88234E
:1036E00021F00E949EB3F701F5CFB80187E392E085
:1036F0000E946A3B8AE00E949EB30C9461250E945E
:10370000142C0C9461250E94582D0C9461250E9464
:1037100039810C9461258091F90F80933F1080913D
:10372000B90983FF02C00C94612583E50E9465B34B
:10373000882311F40C9461250E9403B30E94AAE32C
:10374000709352116093511180E00E946DB70E94F6
:1037500003B3209144103091451040914610509190
:1037600047100E9438E4181614F00C94612581EF7C
:1037700091E09F938F9380913F1090E001969F93EB
:103780008F9384E492E09F938F931F920E94F72B74
:103790000FB6F894DEBF0FBECDBF0C9461258EE44A
:1037A0000E9465B3882311F40C9461250E94CFB266
:1037B0006093600470936104809362049093630447
:1037C0000C94612583E50E9436B3882359F083E584
:1037D0000E9465B3882319F00E94DFB201C080E027
:1037E0008093B909E6E3FAE184918F010F5F1F4FDF
:1037F000811103C0E9E5F2E004C00E949EB3F80124
:10380000F3CF84918F010F5F1F4F882321F00E9417
:103810009EB3F801F6CF8091B909811103C0E5E5A7
:10382000F2E034C06BE4C62E62E0D62EE12CF12C1F
:1038300020E08091B90990E00E2C02C09595879503
:103840000A94E2F780FF17C0BB24B394B20E222380
:1038500019F08CE20E949EB3F60185919491FC01CF
:1038600084918F010F5F1F4F882321F00E949EB328
:10387000F801F6CF2B2DFFEFEF1AFF0A32E0C30E4F
:10388000D11C45E0E416F104A1F60AC084918F0131
:103890000F5F1F4F882321F00E949EB3F801F6CFDF
:1038A0008AE00E949EB30C94612580E692E00E941B
:1038B0003A860E946A780C9461258091B90983FF49
:1038C00002C00C94612583E50E9465B3882311F43E
:1038D0000C9461250E9403B30E94AAE3633871052A
:1038E00014F062E870E070935611609355110C94D7
:1038F00061258091F90F80933F10E9E6F2E0849111
:103900008F010F5F1F4F882321F00E949EB3F801A3
:10391000F6CF0E9449B18AE00E949EB30C94D4284D
:1039200083E50E9465B3882311F40C9461250E94FD
:10393000DFB2182F8D3308F01CE31093A20F0E9402
:10394000D5C16B017C01212F30E0A8EEB3E00E94CD
:10395000A5E2C60ED71EE81EF91EC0929E0FD09299
:103960009F0FE092A00FF092A10F0C94612580911F
:10397000F90F80933F108091B90983FF02C00C9426
:10398000612583E50E9465B389AB81110C94D02534
:1039900082E50E9465B381110C94D0250C946125B9
:1039A0008091B90983FF02C00C94612560E083E92E
:1039B00092E00E94094383E50E9465B389AB8111BF
:1039C0000C94252782E50E9465B381110C9425276C
:1039D0000C94612580E50E9465B3811108C083E5E0
:1039E0000E9465B3811109C03FEF20E00AC00E9428
:1039F000DFB281110C946125F2CF0E94CFB2362F35
:103A0000272F832F922F8F3F910519F010F08FEF02
:103A100090E090935411809353110C94612580E5AC
:103A20000E9465B3811106C0109254111092531177
:103A30000C9461250E94CFB2672B11F00C94612584
:103A4000F3CF10928B020C94612581E080938B025E
:103A50000C94612583E50E9465B38823A1F00E9440
:103A600003B320E030E04AE754E40E94B0DE0E9455
:103A7000B1E360935C0170935D0180935E0190936C
:103A80005F010C94612588E50E9436B381110C9486
:103A9000542889E50E9436B381110C9454288AE594
:103AA0000E9436B381110C94542885E40E9436B3E9
:103AB00081110C9454280E94E7BD0E9430860C941A
:103AC000612583E50E9436B3882311F40C946125A7
:103AD0000E9403B320E030E04AE754E40E94B0DEE5
:103AE0000E94B1E36093A90F7093AA0F8093AB0F6C
:103AF0009093AC0F0C946125D6018D916D010E94BD
:103B000036B3882309F46DC0133009F063C00E94F6
:103B100003B34B015C0120E030E040EA51E40E9435
:103B20004ADE87FF4EC0A501940160919E09709105
:103B30009F098091A0099091A1090E9438E32B016F
:103B40003C019B01AC0160918E0970918F098091BD
:103B50009009909191090E94B0DE60938E09709354
:103B60008F098093900990939109A301920160912C
:103B70007711709178118091791190917A110E944A
:103B8000B0DE6093771170937811809379119093E0
:103B90007A116091C6097091C7098091C809909106
:103BA000C9090E944FDEA30192010E94B0DE0E946B
:103BB000B1E36093C6097093C7098093C8099093D5
:103BC000C90980929E0990929F09A092A009B09283
:103BD000A10907C00E9403B3F70160837183828348
:103BE00093831F5FF4E0EF0EF11C143009F084CFD3
:103BF0000E94DB6A66C784918F010F5F1F4F882385
:103C000021F00E949EB3F801F6CF60E088E593E0D2
:103C10000E94DA7C61E081E593E00E94DA7C61E059
:103C200086E493E00E94DA7C61E086E393E00E9400
:103C3000DA7C60E08DE293E00E94DA7C61E083E26E
:103C400093E00E94DA7C61E089E193E00E94DA7CF3
:103C500061E081E193E00E94DA7C61E083E093E03F
:103C60000E94DA7C60E085EF92E00E94DA7C60E0FE
:103C700086EE92E00E94DA7C60E088ED92E00E949D
:103C8000DA7C60E082EC92E00E94DA7C60E081EB1A
:103C900092E00E94DA7C15C785E40E9465B3882310
:103CA00019F00E94F3B203C085E40E9436B3882362
:103CB00061F0E6E3FAE184918F010F5F1F4F8823E3
:103CC00021F00E949EB3F801F6CF81E40E9465B313
:103CD000882319F00E94F3B203C081E40E9436B336
:103CE000882361F0E1E3F4E084918F010F5F1F4FBF
:103CF000882321F00E949EB3F801F6CF0091B711FE
:103D00001091B811D8018D918D01882309F4C8CD87
:103D10000E949EB3F7CF0E94E759D3C681E08093FB
:103D2000500C80934F0CCDC683E50E9465B3882369
:103D300019F00E94CFB202C060E070E08B01112741
:103D400002301105D4F0E8E1FAE184918F010F5FB0
:103D50001F4F811103C0E5E3F4E004C00E949EB34D
:103D6000F801F3CF84918F010F5F1F4F882309F46F
:103D7000A8C60E949EB3F801F5CF88E40E9465B3FF
:103D80008823A9F00E94CFB2663971053CF06530F6
:103D9000B1E07B072CF064E071E002C066E970E0FE
:103DA000F801EE0FFF1FE85DFF4E7183608386E42C
:103DB0000E9465B38823A9F00E94CFB2F801EE0FEC
:103DC000FF1FE45DFF4E718360836F3F710519F043
:103DD00014F06FEF70E077FF02C060E070E0718375
:103DE000608382E40E9465B3882309F46AC60E9456
:103DF000CFB26530710534F0643771052CF063E79C
:103E000070E002C065E070E0000F111FF801EC5D8A
:103E1000FF4E7183608355C68091F90F80933F10E8
:103E200084E40E9436B3882309F441C00E9403B39E
:103E30006B017C0111E020E030E0A9010E944ADE24
:103E4000811101C010E01093B00920E030E0A90119
:103E5000C701B6010E944ADE882349F10E9403B3DC
:103E6000E0913F1024E0E29FF0011124EF54F64F5F
:103E7000608371838283938320E030E0A9016091A5
:103E8000B1097091B2098091B3099091B4090E946F
:103E90004ADE81110CC080E090E0A0EEBFE3809389
:103EA000B1099093B209A093B309B093B4090E94E9
:103EB000106D07C609E7E02E01E0F02E0BE711E1D7
:103EC0008BE8C82E81E1D82ED7018D917D010E940B
:103ED00036B3882349F00E9403B30E94B1E3F8018E
:103EE00060837183828393830C5F1F4FC016D1065A
:103EF00059F70E94BD69E5C519E7E12E11E0F12EE1
:103F00000BE611E1D7018D917D010E9436B3882324
:103F100039F00E9403B3F801608371838283938335
:103F20000C5F1F4FF1E10B371F0761F7CAC583E52F
:103F30000E9436B38823D9F00E9403B3AB01BC01C1
:103F4000409393115093941160939511709396112F
:103F500040938B1150938C1160938D1170938E113F
:103F600081EB94E00E94343B8AE00E949EB380E59E
:103F70000E9436B3882399F00E9403B3AB01BC01C1
:103F800040939311509394116093951170939611EF
:103F900084E994E00E94343B8AE00E949EB382E56B
:103FA0000E9436B3882399F00E9403B3AB01BC0191
:103FB00040938F11509390116093911170939211CF
:103FC00085E794E00E94343B8AE00E949EB384E53A
:103FD0000E9436B3882309F474C50E9403B3AB0171
:103FE000BC0140938B1150938C1160938D11709391
:103FF0008E1187E594E00E94343B8AE00E949EB3D4
:1040000060C583E50E9436B3882351F00E9403B354
:1040100060936711709368118093691190936A118E
:1040200084E50E9436B3882351F00E9403B3609365
:10403000631170936411809365119093661182E40B
:104040000E9436B3882351F00E94BFB26093B50935
:104050007093B6098093B7099093B80988E50E94D8
:1040600036B3882351F00E9403B3609382097093A2
:104070008309809384099093850989E50E9436B36A
:10408000882351F00E9403B36093860970938709D7
:1040900080938809909389098AE50E9436B3882322
:1040A00051F00E9403B360938A0970938B09809347
:1040B0008C0990938D0985E40E9436B3882309F416
:1040C00000C50E9403B360938E0970938F0980939B
:1040D000900990939109F5C484918F010F5F1F4F50
:1040E000882321F00E949EB3F801F6CF83E50E9459
:1040F00036B3882321F00E94F3B280936001E1E09F
:10410000F5E084918F010F5F1F4F882321F00E94FB
:104110009EB3F801F6CF80916001882319F0E9EF92
:10412000F4E002C0EDEFF4E084918F010F5F1F4FC8
:10413000811103C0E1EFF4E004C00E949EB3F801D6
:10414000F3CF84918F010F5F1F4F882321F00E94CE
:104150009EB3F801F6CF40E050E0BA018FEE94E054
:104160000E94343B40E050E0BA018CEE94E00E94A3
:10417000343B40E050E0BA0189EE94E00E94343BC9
:10418000E1EEF4E084918F010F5F1F4F882321F04F
:104190000E949EB3F801F6CF40E050E06CE573E476
:1041A0008FED94E00E94343B40E050E06CE573E416
:1041B0008CED94E00E94343B40E050E066E673E40E
:1041C00089ED94E00E94343B8AE00E949EB379C45A
:1041D00083E50E9465B3882309F473C40E94CFB2BB
:1041E00070936901609368016CC48091F90F8093AA
:1041F0003F1083E50E9465B3882309F462C40091EF
:104200003F1010E00E94CFB2000F111FF801EA59D1
:10421000FE4F7183608380913F1090E08C01000F0E
:10422000111F000F111F98012E593E4F7901880F61
:10423000991FFC01EA59FE4F60817181072E000C25
:10424000880B990B0E9451DE2AE037ED43E25CE3D4
:104250000E94B0DEF801E45FFF4E2081318142818F
:1042600053810E94B0DED7016D937D938D939C9313
:10427000139727C480E50E9436B3882309F421C42C
:104280000E94CFB26B017C0183E50E9465B3882355
:1042900021F00E94CFB28B0102C00FEF1FEFC801C7
:1042A0000196039708F00DC4D7FC0BC48C2DE1E1F7
:1042B000F5E09491891709F404C43196B5E0E93327
:1042C000FB07B9F749C780E50E9436B3882309F494
:1042D000F8C30E94CFB26B017C018B01672B19F0F0
:1042E000E8E1FAE17FC083E50E9436B3811103C0A3
:1042F000E6E3FAE107C00E94CFB286E79CE00E94A5
:10430000A539DFC384917F012FEFE21AF20A8823D7
:1043100021F00E949EB3F701F5CF60E070E082E5E6
:1043200095E00E94513B8091780C28E532E06901CC
:10433000C81AD10887FDD394CC0CDD1CCC0CDD1C35
:104340000D2C000CEE08FF088091770C28E830E077
:104350004901881A910887FD9394880C991C880C50
:10436000991C092C000CAA08BB088091760C8F3F81
:10437000B9F090E0FC01EE0FFF1F8E0F9F1FFC01B4
:10438000EF5AF34F0181128153E0000F111F5A952C
:10439000E1F764E0169507956A95E1F70E5F1F4F08
:1043A00098012F5F3F4FC901330FAA0BBB0B9C0134
:1043B000AD01281939094A095B09A4EBB0E00E9454
:1043C00092E2A7019601281939094A095B090E945E
:1043D00073E2B9018FE495E00E94513B8AE00E94AC
:1043E0009EB36FC384918F010F5F1F4F882321F00D
:1043F0000E949EB3F801F6CFB60188E495E00E94D2
:10440000513BE9E3F5E084918F010F5F1F4F882353
:1044100009F457C30E949EB3F801F5CF8AE50E94C4
:1044200065B381115DC683E50E9465B3811158C6ED
:1044300048C385E40E9465B3811110C080E50E94E5
:1044400036B3882391F00E9403B3609318107093E1
:10445000191080931A1090931B1007C00E94DFB2AE
:10446000882361F3E8E1FAE171C089E40E9436B380
:10447000882381F00E9403B32CEA35EC47E25EE327
:104480000E94B0DE60932010709321108093221060
:104490009093231084E40E9436B3882381F00E9415
:1044A00003B32CEA35EC47E25EE30E9438E3609305
:1044B0001C1070931D1080931E1090931F10E6E344
:1044C000FAE184918F010F5F1F4F882321F00E9432
:1044D0009EB3F801F6CF40911810509119106091D9
:1044E0001A1070911B1082E695E00E94343B2CEA72
:1044F00035EC47E25EE360912010709121108091CD
:104500002210909123100E9438E3AB01BC018EE58C
:1045100095E00E94343B2CEA35EC47E25EE3609183
:104520001C1070911D1080911E1090911F100E9400
:10453000B0DEAB01BC018AE595E00E94343B8AE025
:104540000E949EB3BEC20E949EB3F80184918F0167
:104550000F5F1F4F8111F7CF0CEF11E0D8018D9144
:104560008D01882309F49CC90E949EB3F7CF83E58F
:104570000E9436B3182F882371F00E9403B30E9463
:10458000AAE3709345016093440121E0672B09F091
:1045900020E02093660480E50E9436B3882359F01A
:1045A0002091440130914501232B11F00E94F3B278
:1045B0008093660486C2111184C2E6E3FAE1849115
:1045C0008F010F5F1F4F882321F00E949EB3F801D7
:1045D000F6CF80916604882319F06BE272E002C086
:1045E00065EE71E08BE795E00E946A3B60914401C3
:1045F000709145018AE695E00E94513BE6E6F5E0C0
:1046000084918F010F5F1F4F882309F45AC20E94C3
:104610009EB3F801F5CF0E94A07853C20E94E7BD77
:1046200050C281E00E942A524CC280913C04909179
:104630003D04A0913E04B0913F0489839A83AB83EB
:10464000BC838091400490914104A0914204B091B8
:1046500043048D839E83AF83B887809144049091F7
:104660004504A0914604B091470489879A87AB8797
:10467000BC8786E50E9436B3882341F08091FB0910
:104680009091FC09892B11F00E9427D58AE50E94A0
:1046900036B3882321F00E9403B30E94722D83E574
:1046A0000E9436B3882331F00E94F3B2182F0E9483
:1046B0000A4F01C010E0F0905404111103C0E6E36A
:1046C000FAE11BC0F110FBCFE8E1FAE184918F0120
:1046D0000F5F1F4F811103C0EEEAF5E004C00E9496
:1046E0009EB3F801F3CF84918F010F5F1F4F882392
:1046F00031F30E949EB3F801F6CF84918F010F5FD2
:104700001F4F882321F00E949EB3F801F6CFFF20AF
:1047100019F069EE71E002C06DEE71E080EA95E09B
:104720000E946A3B8AE00E949EB3E6E3FAE184912C
:104730008F010F5F1F4F811103C0E3E9F5E004C053
:104740000E949EB3F801F3CF84918F010F5F1F4F3A
:10475000882321F00E949EB3F801F6CFC090550443
:10476000D0905604E0905704F090580420E030E0D8
:10477000A901C701B6010E9438E418161CF0EEE842
:10478000F5E009C042E0C701B6010E94CFB68AE059
:104790000E949EB30AC084918F010F5F1F4F882330
:1047A00021F00E949EB3F801F6CF4CE050E06CE39C
:1047B00074E0CE0101960E940CE5892B09F481C1B9
:1047C0000E94117D7EC189E40E9465B3882321F097
:1047D0000E94CFB2162F01C01FEF8AE40E9465B37A
:1047E000882321F00E94CFB2062F01C00FEF8AE587
:1047F0000E9436B3F82E811105C081E50E9436B3C0
:10480000D82E01C0D12C17FD06C007FD04C0F11041
:104810001CC0D1101AC0E8E1FAE184918F010F5F4A
:104820001F4F811103C0ECEEF5E004C00E949EB35F
:10483000F801F3CF84918F010F5F1F4F882309F494
:1048400040C10E949EB3F801F5CF133010F403303D
:10485000D0F0E8E1FAE184918F010F5F1F4F8111E1
:1048600003C0EDECF5E004C00E949EB3F801F3CF65
:1048700084918F010F5F1F4F882309F422C10E948A
:104880009EB3F801F5CFE12E110FFF08002E000CAA
:10489000110B0E9403B3D701AA0FBB1FDD2081F0CB
:1048A000FD01EE0DFF1DE00FF11FEE0FFF1FEE0FDC
:1048B000FF1FED52F64F208131814281538103C0A9
:1048C00020E030E0A901EA0EFB1E0E0D1F1D000FB7
:1048D000111F000F111F0D52164F0E94B5E2F80173
:1048E0006083718382839383ECC00E94CB73E9C0A1
:1048F0000E94756DE6C083E50E9436B3882321F0DF
:104900000E94F3B291E089270E94475ADAC00E94C0
:104910009EB3F80184918F010F5F1F4F8111F7CF74
:10492000E8E2F6E084918F010F5F1F4F882321F0AA
:104930000E949EB3F801F6CF8AE50E9436B3882321
:1049400059F10E9403B36B017C0120E030E040EAA2
:1049500051EC0E9438E487FD0AC020E030E040EAD4
:1049600051E4C701B6010E944ADE18166CF4EFE06C
:10497000F6E084918F010F5F1F4F882309F4A1C0D7
:104980000E949EB3F801F5CFC0925F11D0926011E2
:10499000E0926111F092621140915F1150916011AB
:1049A00060916111709162118CE096E00E94343B3D
:1049B0008AE00E949EB385C00E949EB3F801849154
:1049C0008F010F5F1F4F8111F7CFE7E3F6E084916E
:1049D0008F010F5F1F4F882309F473C00E949EB39D
:1049E000F801F5CF81E080936A0110925D0483E5C0
:1049F0000E9465B3882319F00E94F3B203C083E5D7
:104A00000E9436B381115DC00E948A8D5AC0F09019
:104A1000B911FF2029F1E6E3FAE184918F010F5FDC
:104A20001F4F882321F00E949EB3F801F6CF84E542
:104A30000E949EB36F2D70E080E090E04AE00E94FB
:104A400046B680E20E949EB30CEF11E0D8018D9132
:104A50008D01882311F40C94501C0E949EB3F6CF54
:104A60001092F90FE6E3FAE184918F010F5F1F4F77
:104A7000882321F00E949EB3F801F6CF6091F90FD0
:104A800070E086E496E00E94513B8AE00E949EB36B
:104A900018C084918F010F5F1F4F882321F00E945F
:104AA0009EB3F801F6CF6091A30F7091A40F88E533
:104AB00096E00E946A3B82E20E949EB38AE00E94D6
:104AC0009EB30E946B8D70C380E00E940A4F0E94CB
:104AD000C05085E40E9465B3882319F00E94F3B2A8
:104AE00003C085E40E9436B321E0482FBE016F5F0A
:104AF0007F4FCE0180960E9449BE6B017C019B01D5
:104B0000AC010E94B6E4811131C02CEA35EC47E2D9
:104B100057E368A179A18AA19BA10E94B5E2AB01EC
:104B2000BC0183E591E00E94343B2CEA35EC47E27E
:104B300057E369817A818B819C810E94B5E2AB0148
:104B4000BC018EE491E00E94343B2CEA35EC47E254
:104B500057E3C701B6010E94B5E2AB01BC0189E48D
:104B600091E00E94343B8AE00E949EB30E94A650CE
:104B70000E94117DA6CF0E9491860C9499190E94E3
:104B8000CFB2AB01BC014093050F5093060F609369
:104B9000070F7093080F84E59EE00E94B0C591CF87
:104BA0000E9403B30E94AAE37093521160935111C3
:104BB00080E00E946DB76091511170915211072EE3
:104BC000000C880B990B0E9451DE2091441030910B
:104BD000451040914610509147100E9438E4181635
:104BE000B4F481EF91E09F938F9380913F1090E018
:104BF00001969F938F938EE792E09F938F931F92DE
:104C00000E94F72B0FB6F894DEBF0FBECDBF81E038
:104C1000809361011DA61EA61FA618AA1AAA1BAA88
:104C20001CAA1DAA1CA61EAA9CE39FABACE1A8AFC0
:104C3000B6E4B9AFE12CF12C00E81FEB812C912CEC
:104C400054016091511170915211072E000C880B84
:104C5000990B0E9451DE762E672E582E492E970111
:104C6000A8010E944ADE882329F120914410309146
:104C700045104091461050914710E9A9672D762DB7
:104C8000852D942DE11107C00E944ADE881F8827D8
:104C9000881F8CA715C00E944ADE87FF10C0809134
:104CA0006101882309F40DCF60E08CE692E00E9458
:104CB000094307CF7E2C6F2C502E412E01C01CA61D
:104CC0000E94D5C16B017C01DC01CB012AA93BA963
:104CD0004CA95DA9821B930BA40BB50BB7FD3AC081
:104CE000D701C60188519C4FAF4FBF4F8AAB9BABDA
:104CF000ACABBDAB0E9449B1EAE7F2E084918F0111
:104D00000F5F1F4F882321F00E949EB3F801F6CF5A
:104D100081149104A104B104B9F0D501C401805FEC
:104D2000984DAF4FBF4FBC01CD016C197D098E0965
:104D30009F0928EE33E040E050E00E9451E2CA01B2
:104D4000B9010E94B3B603C08FE30E949EB38AE00C
:104D50000E949EB30E9491860E9493B320904410BB
:104D60003090451000914610109147109101A80114
:104D7000672D762D852D942D0E94B4E29F778114A6
:104D80009104A104B10449F420E030E040E85FE37D
:104D90000E944ADE87FF0BC008C020E030E040E4FC
:104DA00050E40E9438E4181614F4460157019CA5FB
:104DB000992379F12DA53EA54FA558A921153105B7
:104DC0004105510541F0D701C601821B930BA40B8D
:104DD000B50BB7FD1EC09101A8016EA97FA988ADD2
:104DE00099AD0E94B4E220E030E040EC5FE30E9425
:104DF0004ADE87FD54CFD701C601805A9541AF4F97
:104E0000BF4F8DA79EA7AFA7B8AB2EAA3FAA08AFEA
:104E100019AF80916101882309F441CF8114910475
:104E2000A104B10429F4E72CF62C052D142D09CF8B
:104E300090E1C91A97E2D90AE108F108C818D9081F
:104E4000EA08FB08F7FE2BCFEECF0E9403B30E94C7
:104E5000AAE36338710514F062E870E070935611AC
:104E60006093551181E0809361018091F90F8093E7
:104E70003F101DA61EA61FA618AA1AAA1BAA1CAA86
:104E80001DAA1CA61EAABCE3BFABECE1E8AFF6E48A
:104E9000F9AFE12CF12C00E81FEB812C912C54018F
:104EA0006091551170915611072E000C880B990BCB
:104EB0000E9451DE762E672E582E492E9701A801AA
:104EC0000E944ADE882329F1209140103091411040
:104ED0004091421050914310A9A9672D762D852D40
:104EE000942DA11107C00E944ADE881F8827881FC1
:104EF0008CA715C00E944ADE87FF10C08091610117
:104F0000882309F4DECD60E085E892E00E94094341
:104F1000D8CD7E2C6F2C502E412E01C01CA60E9495
:104F2000D5C16B017C01DC01CB012AA93BA94CA9AD
:104F30005DA9821B930BA40BB50BB7FD3AC0D7013B
:104F4000C60188519C4FAF4FBF4F8AAB9BABACABF8
:104F5000BDAB0E9449B1EFE8F2E084918F010F5F91
:104F60001F4F882321F00E949EB3F801F6CF8114D1
:104F70009104A104B104B9F0D501C401805F984D3A
:104F8000AF4FBF4FBC01CD016C197D098E099F0940
:104F900028EE33E040E050E00E9451E2CA01B9013E
:104FA0000E94B3B603C08FE30E949EB38AE00E94C2
:104FB0009EB30E9491860E9493B32090401030903F
:104FC000411000914210109143109101A801672DEA
:104FD000762D852D942D0E94B4E29F778114910443
:104FE000A104B10449F420E030E040E85FE30E940E
:104FF0004ADE87FF0BC008C020E030E040E450E408
:105000000E9438E4181614F4460157019CA5992310
:1050100079F12DA53EA54FA558A9211531054105CA
:10502000510541F0D701C601821B930BA40BB50BB0
:10503000B7FD1EC09101A8016EA97FA988AD99ADE9
:105040000E94B4E220E030E040EC5FE30E944ADEE0
:1050500087FD54CFD701C601805A9541AF4FBF4F4E
:105060008DA79EA7AFA7B8AB2EAA3FAA08AF19AFCE
:1050700080916101882309F441CF81149104A10436
:10508000B10429F4E72CF62C052D142D09CF90E15D
:10509000C91A97E2D90AE108F108C818D908EA083C
:1050A000FB08F7FE2BCFEECF0E94E7BD88E50E94FC
:1050B00036B3882319F05E9A1092930289E50E9414
:1050C00036B3882319F05E9A109294028AE50E9402
:1050D00036B3882309F4F5CC159A10929502F1CCD9
:1050E0000E9403B320E030E040E050EC0E944ADE32
:1050F00087FD12C00E9403B320E030E040E050E49E
:105100000E9438E418161CF00E9403B309C060E046
:1051100070E080E090E404C060E070E080E090EC3B
:1051200020919502222309F4CCCC00910A10109111
:105130000B1020919A0930919B0940919C09509144
:105140009D090E94B0DE0E94AAE3600F711F709358
:105150000B1060930A10B5CC0E94E7BDBC2C60E038
:105160008C2D0E9473C10F3F2FEF120759F48C2D25
:105170000E941BC131E020E0892B09F030E0032FB1
:10518000122F05C00130110561F401E010E08B2DF4
:105190000E941BC18017910709F493CC0E9491864D
:1051A000F6CF00E010E0F3CFE9960FB6F894DEBF3B
:1051B0000FBECDBFDF91CF911F910F91FF90EF9068
:1051C000DF90CF90BF90AF909F908F907F906F9027
:1051D0005F904F903F902F900895CF92DF92EF9283
:1051E000FF920F931F93CF93DF936C01EB017B0131
:1051F000E40EF51E00E010E0CE15DF0561F06991C8
:10520000D601ED91FC910190F081E02DC601099548
:10521000080F191FF1CFC801DF91CF911F910F9196
:10522000FF90EF90DF90CF9008950E94FFE4CF931E
:10523000DF93EC0160E08E810E9444C161E08E81C9
:105240000E9444C160E08E810E9444C18AE891E0DE
:105250000197F1F7DF91CF9108951F920F920FB64A
:105260000F9211242F933F938F939F93AF93BF93EC
:105270008091361190913711A0913811B091391168
:1052800030913B0423E0230F2D3720F40196A11D1C
:10529000B11D05C026E8230F0296A11DB11D209364
:1052A0003B048093361190933711A0933811B0933B
:1052B000391180913A1190913B11A0913C11B0911C
:1052C0003D110196A11DB11D80933A1190933B11A0
:1052D000A0933C11B0933D11BF91AF919F918F91DD
:1052E0003F912F910F900FBE0F901F901895CF9266
:1052F000DF92EF92FF920F931F93CF93DF936C0196
:105300007C0187E0E80EF11CC0E0D0E0062F10E041
:10531000B8010C2E02C0759567950A94E2F761708A
:10532000F70181917F010E9444C12196C430D105CB
:1053300079F7C601DF91CF911F910F91FF90EF9008
:10534000DF90CF900C941729CF92DF92EF92FF92CB
:105350000F931F93CF93DF93EC01F62E642F8C8174
:105360000E9444C18D818F3F19F060E00E9444C1CA
:105370008F850F2D10E084FF25C06E0187E0C80ED9
:10538000D11CE12CF12CB8010E2C02C0759567954B
:105390000A94E2F76170F60181916F010E9444C1A5
:1053A000FFEFEF1AFF0A88E0E816F10461F7CE017B
:1053B000DF91CF911F910F91FF90EF90DF90CF90F1
:1053C0000C941729B80184E0759567958A95E1F7E3
:1053D000CE010E9477296F2DCE01DF91CF911F91D1
:1053E0000F91FF90EF90DF90CF900C94772941E0E0
:1053F0000E94A42981E090E008958F929F92AF923D
:10540000BF92CF92DF92EF92FF92CF93FC01C080C8
:10541000D180E280F38020E030E0A901C701B6012D
:105420000E944ADE87FF08C0C701B601905820E0FD
:1054300030E048EC52E406C020E030E048EC52E4B2
:10544000C701B6010E94B0DE0E94AAE36B017C0195
:10545000603AF6E87F07F1E08F07910584F020EAD3
:1054600036E841E050E00E9473E2CA01B9012AE047
:1054700030E040E050E00E9473E2605D01C060E215
:105480006093571180E1C81687E2D806E104F10461
:1054900094F0C701B60120E137E240E050E00E94FD
:1054A00073E2CA01B9012AE030E040E050E00E9416
:1054B00073E2605D01C060E260935811E8EECE16C1
:1054C000E3E0DE06E104F10494F0C701B60128EE42
:1054D00033E040E050E00E9473E2CA01B9012AE0E3
:1054E00030E040E050E00E9473E2605D01C060E2A5
:1054F00060935911C701B60124E630E040E050E066
:105500000E9473E28AE0882E912CA12CB12CCA0152
:10551000B901A50194010E9473E2605D60935A1184
:105520008EE280935B11C701B601A50194010E9430
:1055300073E2C62FCA01B901A50194010E9473E26A
:10554000605D60935C11C05DC0935D1187E591E182
:10555000CF91FF90EF90DF90CF90BF90AF909F9052
:105560008F9008958F929F92AF92BF92CF92DF92C9
:10557000EF92FF92CF9320E030E048EC52E4FC0140
:1055800060817181828193810E94B0DE0E94AAE3D2
:105590006B017C0197FF0AC0F094E094D094C09412
:1055A000C11CD11CE11CF11C8DE201C08BE2809377
:1055B0005711C701B60120E137E240E050E00E94F8
:1055C00073E28AE0882E912CA12CB12CCA01B9017A
:1055D000A50194010E9473E2605D60935811C701B8
:1055E000B60128EE33E040E050E00E9473E2CA01C9
:1055F000B901A50194010E9473E2605D60935911A5
:10560000C701B60124E630E040E050E00E9473E2BA
:10561000CA01B901A50194010E9473E2605D609323
:105620005A118EE280935B11C701B601A501940166
:105630000E9473E2C62FCA01B901A50194010E941C
:1056400073E2605D60935C11C05DC0935D1187E59E
:1056500091E1CF91FF90EF90DF90CF90BF90AF900E
:105660009F908F9008958F929F92AF92BF92CF920A
:10567000DF92EF92FF920F931F93CF93DF9300D0AF
:1056800000D0CDB7DEB7FC018381813079F581810F
:1056900081FF2CC081899289A389B489892B8A2BA7
:1056A0008B2B09F448C07F0140E050E0BA01CF01E4
:1056B0000E94B0C58823D1F0F70185889688A78815
:1056C000B08CC18CD28C82E090E0A0E0B0E0F6011A
:1056D00080839183A283B3839E012F5F3F4FB501E7
:1056E000A401C6010E9433C4811102C080E03CC005
:1056F00000E010E09801B501A401C6010E94A1C319
:105700008823A1F389809A80AB80BC80F6018789C9
:10571000803141F4F8EF8F16FFEF9F06A104B1042A
:1057200060F4DACF88EF88168FEF9806A8068FE02E
:10573000B80618F4D1CF81E017C0F701158A168A90
:10574000178A108E118A128A138A148A81818068BE
:105750008183C7010E947DC5882341F240E050E06B
:10576000BA01C7010E94B0C50F900F900F900F9023
:10577000DF91CF911F910F91FF90EF90DF90CF902D
:10578000BF90AF909F908F9008950F931F93CF93EA
:10579000DF938C01E8E1FAE18491EF0121968823FF
:1057A00021F00E949EB3FE01F7CFF8018491EF0132
:1057B0002196882321F00E949EB3FE01F7CF6091CD
:1057C00060047091610480916204909163040E946E
:1057D000B3B68AE00E949EB30E948A8D10925F0445
:1057E00010925E04DF91CF911F910F910895CF9396
:1057F000DF93CDB7DEB780915D04811112C09E01A9
:10580000285F3F4F4E815F816CE370E087E091E05D
:105810000E9411DE0E94ED4283E080930601109207
:105820005C04DF91CF9108958091790C90917A0C6E
:1058300081309105B9F1029759F40E94A1846093D7
:105840007B0C70937C0C80937D0C90937E0C18C025
:1058500010927F0C1092800C1092810C1092820C8E
:105860001092830C1092840C1092850C1092860C6E
:1058700010927B0C10927C0C10927D0C10927E0C7E
:1058800081E090E090937A0C8093790C0E94D5C1CE
:1058900060937F0C7093800C8093810C9093820CAA
:1058A00081E0089580E00895CF93DF93EC01288193
:1058B0002C3008F05BC030E01616170664F4F901CE
:1058C000EE0FFF1FE20FF31FEF5AF34F6F7390813C
:1058D000907C692B6083F901EE0FFF1F2E0F3F1F95
:1058E000F901EF5AF34F808161E08F730E9473C119
:1058F00019821A8288816CE00E94C2E49CE0899F30
:10590000B001112440E050E09B01240F351FF90144
:10591000EE0FFF1F2E0F3F1FF901EF5AF34F90813B
:1059200096FD16C04F5F5F4F4C30510569F78111EE
:105930000FC01092900082E0809391001092950029
:1059400010929400C19A80917100826080937100DE
:105950008881E82FF0E09F01220F331FE20FF31F31
:10596000EF5AF34F90819064908301C08FEFDF91E5
:10597000CF910895EF92FF921F93CF93DF93D09131
:10598000590481E0D82710915A041827C0915B046C
:10599000C827D11104C0111102C009F482C0E6E386
:1059A000FAE184917F019FEFE91AF90A811103C09E
:1059B000ECE4F8E004C00E949EB3F701F2CF8491BA
:1059C0007F019FEFE91AF90A882321F00E949EB314
:1059D000F701F5CFDD2369F0EAE4F8E084917F0177
:1059E0009FEFE91AF90A882321F00E949EB3F7017C
:1059F000F5CF112369F0E8E4F8E084917F019FEF8F
:105A0000E91AF90A882321F00E949EB3F701F5CF25
:105A1000CC2319F0E6E4F8E003C0EEE3F8E00BC0B5
:105A200084917F019FEFE91AF90A8823B1F30E945C
:105A30009EB3F701F5CF84917F019FEFE91AF90A30
:105A4000882321F00E949EB3F701F5CFCC2319F0F3
:105A50004DE052E002C048E252E0112319F02FE07D
:105A600032E002C028E232E0DD2319F081E192E069
:105A700002C088E292E05F934F933F932F939F93EE
:105A80008F938CE298E09F938F931F920E94F72B45
:105A90008DB79EB709960FB6F8949EBF0FBE8DBF07
:105AA000C1E08C2FDF91CF911F91FF90EF9008956F
:105AB0008091790C90917A0C019791F482E090E0BA
:105AC00090937A0C8093790C0E94D5C16093830CDB
:105AD0007093840C8093850C9093860C81E00895DC
