:100000000C9416130C9440130C9440130C9440134E
:100010000C9440130C9440130C9440130C94401314
:100020000C9440130C9440130C9440130C94401304
:100030000C9440130C949F320C9440130C94401376
:100040000C9440130C943AB90C9455290C94401319
:100050000C948AB70C9440130C9440130C944013E6
:100060000C9440130C9440130C9440130C944013C4
:100070000C9440130C9440130C9440130C944013B4
:100080000C947A3A0C9440130C9440136C7E717E5D
:10009000767E807EAE7E8A7E927E9A7EA47EC0B977
:1000A000C4B9D3B9D7B9E6B9F1B9AAB94FBE52BEEE
:1000B00045BE49BE69BE56BE5ABE60BE64BE4E4114
:1000C0004E494E495459494E46CDCCCC3D0AD723D2
:1000D0003C17B7D13877CC2B329595E6241FB14F1A
:1000E0000A000020410000C84200401C4620BCBE5F
:1000F0004CCA1B0E5AAEC59D74434F4D4D554E49CB
:10010000434154494F4E0044525952554E004552B6
:10011000524F525300494E464F004543484F0053FB
:100120006C6565702E2E2E00473238205A20466F9F
:100130007262696464656E0A00473238205A20464C
:100140006F7262696464656E00205A3A200020591B
:100150003A200042656420583A20004D65736820BB
:10016000706F696E742063616E6E6F7420626520BB
:100170007265736F6C7665640A00526573756D699C
:100180006E67207072696E7400503830324E5F4D69
:10019000454C5A492072656164792E00436C69634D
:1001A0006B20746F20726573756D652E2E2E004E58
:1001B0006F206D6F76652E00456E642066696C65F4
:1001C000206C6973740A00426567696E2066696C09
:1001D00065206C6973740A005344207072696E74F0
:1001E000696E67206279746520004E6F74205344F5
:1001F000207072696E74696E670A00256973002544
:10020000696D20256973002569682025696D2025A1
:10021000697300256964202569682025696D20259A
:10022000697300256979202569642025696820257E
:10023000696D20256973005072696E742074696D50
:10024000653A2000452569202573001A0115010E25
:10025000010701F9006F66660044454255473A00C0
:100260004B494C4C45442E20006F6B00486561742F
:10027000696E6720646F6E652E0020573A00452531
:10028000692025730042656420646F6E652E00202E
:10029000573A004265642048656174696E672E00B4
:1002A000503830324E5F4D454C5A49204F66662ECD
:1002B00000454D455247454E43595F5041525345C5
:1002C0005200434153455F4C494748545F425249AD
:1002D0004748544E45535300544F47474C455F4C95
:1002E000494748545300534F4654574152455F5075
:1002F0004F574552004255494C445F504552434583
:100300004E54004C4556454C494E475F444154417C
:10031000005A5F50524F4245004155544F4C45568C
:10032000454C005052494E545F4A4F420050524F84
:100330004752455353004155544F5245504F525424
:100340005F54454D5000564F4C554D45545249430E
:1003500000454550524F4D0053455249414C5F585E
:100360004F4E5F584F4646004649524D5741524501
:100370005F4E414D453A4D61726C696E204261732A
:1003800065206F6E204D61726C696E312E312E3892
:1003900020284769746875622920534F5552434598
:1003A0005F434F44455F55524C3A68747470733ADA
:1003B0002F2F6769746875622E636F6D2F7A6F6E69
:1003C000657374617233642050524F544F434F4CE5
:1003D0005F56455253494F4E3A312E30204D4143DE
:1003E00048494E455F545950453A503830324E5F77
:1003F0004D454C5A492045585452554445525F4347
:100400004F554E543A3120555549443A30303030EA
:10041000303031302D303830382D303030332D30D1
:100420003030302D32303138303131303030310AE7
:10043000002F2F20004D31343520533C696E646508
:10044000783E206F7574206F662072616E6765203C
:1004500028302D31290A0053657474696E67205461
:10046000726176656C20416363656C657261746965
:100470006F6E3A200053657474696E67205265741C
:100480007261637420416363656C65726174696F46
:100490006E3A200053657474696E67205072696EFD
:1004A0007420416363656C65726174696F6E3A2094
:1004B0000053657474696E67205072696E742061B0
:1004C0006E642054726176656C20416363656C656F
:1004D000726174696F6E3A2000205A0020590058EA
:1004E0000020204D61783A2000205A002059005801
:1004F0000020204D696E3A20004F6E20004F666646
:1005000000536F667420656E6473746F70733A2065
:100510000000010F150E12FF16170E13FF03021A2B
:1005200014FFFFFF0C04FFFFFF01000EFFFF0C1E76
:100530000DFFFFFFFFFFFFFFFF206F7574206F6649
:100540002072616E67650A00536572766F20003A0B
:10055000200020536572766F200020643A002069E5
:100560003A0020703A0043290A0061626C656420F9
:10057000286D696E2074656D702000436F6C642077
:1005800065787472756465732061726520004F66CA
:10059000660A0046616465204865696768742000E2
:1005A000426564204C6576656C696E672000466123
:1005B000696C656420746F20656E61626C652042B1
:1005C0006564204C6576656C696E670A004D6573DD
:1005D0006820706F696E742063616E6E6F74206244
:1005E00065207265736F6C7665640A004D34323134
:1005F00020696E636F727265637420706172616DE1
:10060000657465722075736167650A003A20002081
:100610007A5F6D696E3A20202D3230207A5F6D61ED
:10062000783A202032300A0050726F6265205A20DA
:100630004F6666736574004E6F2063617365206C4E
:10064000696768740A004163746976652045787447
:1006500072756465723A2000556E6B6E6F776E200E
:10066000636F6D6D616E643A20220000000000012E
:100670000204040000001C1C0C040404020100001D
:1006800000000004081000000000002D2D2D2D2D6D
:100690002D2D2D007C5A4F4E45535441527C002D38
:1006A0002D2D2D2D2D2D2D00687474703A2F2F7740
:1006B00077772E7A6F6E657374617233642E636F11
:1006C0006D0042617365206F6E204D61726C696EC2
:1006D000312E312E380042617365206F6E204D61DE
:1006E000726C696E312E312E3800002020506C6102
:1006F0006E6E657242756666657242797465733AAC
:1007000020002046726565204D656D6F72793A2034
:1007100000436F6D70696C65643A204665622032F3
:100720003420323031390A00207C20417574686FE2
:10073000723A202848616C6C79405A4F4E455354A8
:100740004152290A00323031382D303900204C61B5
:10075000737420557064617465643A20004261735B
:1007600065206F6E204D61726C696E312E312E38AE
:100770000A004D61726C696E0020536F6674776178
:1007800072652052657365740A002057617463684E
:10079000646F672052657365740A002042726F7738
:1007A0006E206F75742052657365740A0020457859
:1007B0007465726E616C2052657365740A00506FC7
:1007C00077657255700A0073746172740A006572FD
:1007D000726F722077726974696E6720746F206619
:1007E000696C650A00456E6473746F7073202563CD
:1007F00020256320256320256300205A3A002059D4
:100800003A0020583A00656E6473746F7073206804
:1008100069743A2000446F6E6520736176696E6773
:100820002066696C652E0A004D323900486F6D658F
:100830002025732573257320666972737400206602
:10084000697273740A005A0059005800486F6D6548
:10085000200057726974696E6720746F2066696C36
:10086000653A20006F70656E206661696C65642C66
:100870002046696C653A20006F70656E206661697C
:100880006C65642C2046696C653A200046696C658D
:100890002073656C65637465640A002053697A652A
:1008A0003A200046696C65206F70656E65643A2079
:1008B000006F70656E206661696C65642C20466906
:1008C0006C653A20002066696C653A2000646F69A7
:1008D0006E67006672657368004E6F772000454E44
:1008E0004420535542524F5554494E450A00222048
:1008F000706F73002220706172656E743A2200532B
:100900005542524F5554494E452043414C4C20745A
:1009100061726765743A22004B494C4C45442E2065
:1009200000747279696E6720746F2063616C6C204B
:100930007375622D67636F64652066696C657320EB
:100940007769746820746F6F206D616E79206C65B3
:1009500076656C732E204D4158206C6576656C2051
:1009600069733A0043616E6E6F74206F70656E201C
:10097000737562646972200024F4D43050C38E20F1
:10098000C2A24017828B7011127A910D816CD90A24
:10099000A861E108C7586607615143061E4B5D0513
:1009A000C145A7041A411104093D98037139310367
:1009B0004036DB0265339102D4305402802E1D0292
:1009C000632CEE01752AC501B028A0011027810112
:1009D0008F2564012B244B01E0223401AC211F013F
:1009E0008D200D01801FFC00841EED00971DDF008F
:1009F000B81CD200E61BC600201BBC00641AB20063
:100A0000B219A8000A19A0006A189900D11791001C
:100A100040178B00B516840031167E00B31579009F
:100A20003A157300C7146F0058146A00EE1366007D
:100A30008813630025135E00C7125B006C12570019
:100A400015125400C111510070114F0021114B00BB
:100A5000D61049008D104700461044000210420095
:100A6000C00F4000800F3E00420F3C00060F3B00CD
:100A7000CB0E3800930E37005C0E3500270E340085
:100A8000F30D3200C10D3100900D3000600D2E00CD
:100A9000320D2D00050D2C00D90C2B00AE0C2900B9
:100AA000850C29005C0C2700350C27000E0C260055
:100AB000E80B2400C40B2400A00B23007D0B2300B3
:100AC0005A0B2100390B2100180B2000F80A1F00D7
:100AD000D90A1E00BB0A1E009D0A1D00800A1D00C7
:100AE000630A1C00470A1B002C0A1B00110A1A008B
:100AF000F7091A00DD091900C4091900AB0919002A
:100B0000920917007B091800630917004C091600A9
:100B100036091600200916000A091500F508150007
:100B2000E0081400CC081400B8081400A40814004D
:100B3000900813007D0812006B081300580812007B
:100B40004608120034081100230811001208110091
:100B500001081100F0071000E0071000D007100096
:100B6000C0071000B0070F00A107100091070E008A
:100B700083070F0074070F0065070E0057070E006C
:100B800049070E003B070D002E070E0020070D0041
:100B900013070D0006070D00F9060C00ED060D0009
:100BA000E0060C00D4060C00C8060C00BC060C00C5
:100BB000B0060C00A4060B0099060C008D060B0075
:100BC00082060B0077060B006C060B0061060A001C
:100BD00057060B004C060A0042060A0038060A00B7
:100BE0002E060A0024060A001A060A00100609004A
:100BF00007060A00FD050900F4050900EB050900D8
:100C0000E2050900D9050900D0050900C70509005A
:100C1000BE050900B5050800AD050800A5050900D9
:100C20009C050800940508008C0508008405080050
:100C30007C050800740508006C05070065050800C0
:100C40005D050700560508004E050700470507002B
:100C50004005080038050700310507002A05070090
:100C6000230507001C050600160507000F050700F1
:100C70000805060002050700FB040600F50407004E
:100C8000EE040600E8040600E2040700DB040600A8
:100C9000D5040600CF040600C9040600C3040600FC
:100CA000BD040600B7040600B1040500AC0406004C
:100CB000A6040600A00405009B0406009504050098
:100CC000900406008A0405008504050080040600DF
:100CD0007A04050075040500700405006B04050026
:100CE00066040500610405005C0405005704050066
:100CF000520405004D0405004804050043040500A6
:100D00003E0404003A0405003504050030040400E4
:100D10002C04050027040400230405001E0404001D
:100D20001A04040016040500110404000D04040054
:100D3000090405000404040000040400FC0304008A
:100D4000F8030400F4030400F0030400EC030400BF
:100D5000E8030400E4030400E0030400DC030400EF
:100D6000D8030400D4030400D0030400CC0304001F
:100D7000C8030300C503030024F404D9201BC40CDA
:100D80005C0E9804C4095F0265077101F405F9005F
:100D9000FB04B30048048700C103690058035500F1
:100DA00003034500BE023A008402310053022A00C8
:100DB0002902250004022000E4011C00C8011900DA
:100DC000AF01170098011400840113007101100095
:100DD0006101100051010E0043010D0036010B00AE
:100DE0002B010B0020010B00150109000C0109006B
:100DF00003010800FB000800F3000800EB000700F7
:100E0000E4000600DE000600D8000600D20006005E
:100E1000CC000500C7000500C2000500BD000400AD
:100E2000B9000400B5000400B1000400AD000400E6
:100E3000A9000400A5000300A20003009F00040015
:100E40009B0003009800030095000200930003003C
:100E5000900003008D0002008B0003008800020058
:100E60008600020084000300810002007F0002006F
:100E70007D0002007B000200790002007700010083
:100E8000760002007400020072000100710002008E
:100E90006F0002006D0001006C0002006A0001009A
:100EA00069000200670001006600010065000100A2
:100EB00064000200620001006100010060000100A6
:100EC0005F0002005D0001005C0001005B000100AA
:100ED0005A000100590001005800010057000100AC
:100EE00056000100550001005400010053000000AD
:100EF00053000100520001005100010050000100A8
:100F00004F0001004E0000004E0001004D000100A6
:100F10004C0001004B0000004B0001004A000100A2
:100F2000490001004800000048000100470001009E
:100F30004600000046000100450000004500010099
:100F40004400010043000000430001004200000093
:100F5000420001004100000041000100400001008A
:100F60003F0000003F0001003E0000003E00010085
:100F70003D0000003D0001003C0000003C0000007E
:100F80003C0001003B0000003B0001003A00000073
:100F90003A0001003900000039000100380000006B
:100FA0003800000038000100370000003700010061
:100FB0003600000036000000360001003500000059
:100FC000350000003500010034000000340000004E
:100FD0003400010033000000330000003300010042
:100FE0003200000032000000320001003100000039
:100FF000310000003100010030000000300000002E
:10100000300001002F0000002F0000002F00000022
:101010002F0001002E0000002E0000002E00010015
:101020002D0000002D0000002D0000002D0001000B
:101030002C0000002C0000002C0000002C000100FF
:101040002B0000002B0000002B0000002B000100F3
:101050002A0000002A0000002A0000002A000100E7
:1010600029000000290000002900000029000000DC
:1010700029000100280000002800000028000000CE
:1010800028000000280001002700000027000000C1
:1010900027000000270000002700010026000000B4
:1010A00026000000260000002600000026000100A7
:1010B000250000002500000025000000250000009C
:1010C000250000002500010024000000240000008D
:1010D0002400000024000000240001002300000080
:1010E0002300000023000000230000002300000074
:1010F0002300000023000100220000002200000065
:101100002200000022000000220000002200010056
:10111000210000002100000021000000210000004B
:10112000210000002100000021000100200000003B
:10113000200000002000000020000000200000002F
:101140002000000020000000200001001F0000001F
:101150001F0000001F0000001F0000001F00000013
:101160001F0000001F0001001E0000001E00000004
:101170001E0000001E000000A00F001003A00F00C2
:101180001002A00F0010012C01F401086C07980850
:10119000053A026603076E0A360B047E04AA0506AA
:1011A00056652D6A65726B0056652D6A65726B0017
:1011B00056652D6A65726B00567A2D6A65726B00F2
:1011C000567A2D6A65726B0056792D6A65726B00CE
:1011D00056792D6A65726B0056792D6A65726B00BF
:1011E00056782D6A65726B0056782D6A65726B00B1
:1011F00056782D6A65726B004D6F74696F6E00458D
:1012000073746570732F6D6D004573746570732F03
:101210006D6D005A73746570732F6D6D005A737421
:101220006570732F6D6D005973746570732F6D6DDC
:10123000005973746570732F6D6D00587374657009
:10124000732F6D6D005873746570732F6D6D004D45
:101250006F74696F6E0053746570732F6D6D004A03
:1012600065726B00416363656C65726174696F6E72
:101270000056656C6F63697479005A204F66667317
:101280006574005A204F666673657400436F6E7410
:10129000726F6C0043616E6E6F7420656E74657260
:1012A000207375626469723A2000052E2E00045284
:1012B000656672657368004D61696E0053544F50E6
:1012C0005045442E20005072696E7465722073740C
:1012D0006F707065642064756520746F206572722C
:1012E0006F72732E2046697820746865206572726B
:1012F0006F7220616E6420757365204D3939392015
:10130000746F20726573746172742E202854656D39
:10131000706572617475726520697320726573659A
:10132000742E205365742069742061667465722080
:1013300072657374617274696E67290A0053544F41
:10134000502063616C6C65642062656361757365D0
:10135000206F6620424C546F756368206572726F0F
:1013600072202D20726573746172742077697468BD
:10137000204D3939390A0042696C696E6561722005
:101380004C6576656C696E6720477269643A0A003D
:1013900020706F736974696F6E206F7574206F664B
:1013A0002072616E67652E0A003F50726F62652081
:1013B00000202844525952554E29004732392041C5
:1013C00075746F20426564204C6576656C696E6744
:1013D0000028422961636B00284629726F6E7400F1
:1013E0002852296967687400284C29656674003F93
:1013F0002856296572626F7365206C6576656C206E
:10140000697320696D706C61757369626C65202801
:10141000302D34292E0A00426164205A2076616CF6
:1014200075650A004E6F2062696C696E6561722095
:10143000677269640A0020204D383531205A005AFD
:101440002D50726F6265204F666673657420286D3B
:101450006D293A0A0020440020490020204D3330F5
:10146000312050005049442073657474696E67736D
:101470003A0A0020460020420020480020204D313A
:1014800034352053004D6174657269616C20686564
:101490006174757020706172616D65746572733A04
:1014A0000A00205A0020204D34323020530041756C
:1014B000746F20426564204C6576656C696E673A8E
:1014C0000A00204500205A002059002058002042E0
:1014D0000020540020204D323035205300416476E6
:1014E000616E6365643A20533C6D696E5F66656545
:1014F00064726174653E20543C6D696E5F74726104
:1015000076656C5F66656564726174653E20423C19
:101510006D696E5F7365676D656E745F74696D6527
:101520005F75733E20583C6D61785F78795F6A65BE
:10153000726B3E205A3C6D61785F7A5F6A65726BB0
:101540003E20453C6D61785F655F6A65726B3E0A5F
:101550000020540020520020204D32303420500012
:10156000416363656C65726174696F6E2028756E86
:101570006974732F7332293A20503C7072696E740B
:101580005F616363656C3E20523C72657472616397
:10159000745F616363656C3E20543C747261766570
:1015A0006C5F616363656C3E0A00204500205A0051
:1015B00020590020204D3230312058004D6178698B
:1015C0006D756D20416363656C65726174696F6EE2
:1015D0002028756E6974732F7332293A0A002045EA
:1015E00000205A0020590020204D3230332058006E
:1015F0004D6178696D756D206665656472617465AD
:10160000732028756E6974732F73293A0A00204578
:1016100000205A0020590020204D39322058005314
:10162000746570732070657220756E69743A0A0073
:1016300020204D3230302044300A0020204D3230FE
:10164000302044002044697361626C65640A00467E
:10165000696C616D656E742073657474696E67730F
:101660003A0020204D3134392043203B20556E690B
:10167000747320696E2043656C736975730A00206A
:1016800020473231202020203B20556E6974732082
:10169000696E206D6D0A007A5F6D696E3A2000797F
:1016A0005F6D696E3A2000785F6D696E3A20005276
:1016B00065706F7274696E6720656E6473746F70A5
:1016C000207374617475730A0020746F6F206C6FDF
:1016D0006E6720657874727573696F6E20707265BD
:1016E00076656E7465640A0020636F6C64206578AB
:1016F00074727573696F6E2070726576656E74654D
:10170000640A00290A002062797465733B206372C1
:1017100063200053657474696E67732053746F722D
:101720006564202800202863616C63756C617465B2
:101730006429210A0020213D2000454550524F4D8B
:1017400020435243206D69736D61746368202D20BE
:101750002873746F726564292000290A0020627959
:101760007465733B2063726320002073746F72652D
:10177000642073657474696E67732072657472692E
:1017800065766564202800204D61726C696E3D5657
:101790003438290A0028454550524F4D3D004545F3
:1017A00050524F4D2076657273696F6E206D69736C
:1017B0006D61746368200048617264636F6465647E
:1017C0002044656661756C742053657474696E6736
:1017D00073204C6F616465640A00D0070000200329
:1017E00000006400000088130000000016430000A1
:1017F000C84200000041000048420000A042000032
:10180000A0420000C8430000AA4246696C652064FB
:10181000656C657465643A0044656C6574696F6EE7
:10182000206661696C65642C2046696C653A20000D
:101830006F70656E206661696C65642C2046696C0A
:10184000653A200050726F74656374656420506956
:101850006E0A00205A3A0020593A0020436F756EF4
:101860007420583A0020453A00205A3A0020593A4C
:1018700000583A003A004361703A00236465666993
:101880006E65202044454641554C545F4B64200012
:1018900023646566696E65202044454641554C5475
:1018A0005F4B69200023646566696E6520204445AE
:1018B0004641554C545F4B702000504944204175BF
:1018C000746F74756E652066696E697368656421EE
:1018D0002050757420746865206C617374204B709F
:1018E0002C204B6920616E64204B6420636F6E7303
:1018F00074616E74732066726F6D2062656C6F77B1
:1019000020696E746F20436F6E66696775726174CB
:10191000696F6E2E680A00504944204175746F74D7
:10192000756E65206661696C6564212074696D65FA
:101930006F75740A00544845524D414C2052554E23
:101940004157415900546865726D616C2052756E43
:10195000617761790048656174696E6720666169C5
:101960006C65640048656174696E67206661696CC6
:10197000656400504944204175746F74756E65202C
:101980006661696C6564212054656D70657261746F
:1019900075726520746F6F20686967680A00204B54
:1019A000643A2000204B693A2000204B703A200016
:1019B0000A20436C617373696320504944200A0014
:1019C0002054753A2000204B753A2000206D617834
:1019D0003A2000206D696E3A200020643A200020F1
:1019E000626961733A200053442063617264206F1E
:1019F0006B0A006F70656E526F6F74206661696C60
:101A000065640A00766F6C756D652E696E69742069
:101A10006661696C65640A004572726F723A0053C0
:101A20004420696E6974206661696C0A006175748E
:101A30006F25692E67006563686F3A004D32340088
:101A40004D323320257300001C1F11111F000000B0
:101A500006191803130C00040E1F041C00000000DC
:101A60000E1315110E00001C1018170506050004B2
:101A70000A0A0A0A11110E0C12120C0000000000D2
:101A80001F1511151F0000507265686561742041B3
:101A9000425320456E640050726568656174204150
:101AA000425320426564005072656865617420414C
:101AB00042530050726570617265004261636B0051
:101AC0004E65787420636F726E6572004D323830E7
:101AD000205030205331363000424C546F756368CB
:101AE0002053656C662D54657374004D3238302078
:101AF0005030205331323000507265686561742077
:101B0000414253005072656865617420504C410039
:101B1000436F6F6C646F776E00526573657420421B
:101B20004C546F756368004C6576656C20636F720A
:101B30006E65727300426564204C6576656C696EF3
:101B400067004732380A473239004D6F76652061A9
:101B500078697300426564204C6576656C20546535
:101B60007374004731205A302046363030004175BA
:101B7000746F20686F6D6500473238004469736187
:101B8000626C65207374657070657273004D3834D3
:101B9000004D61696E004D6F76652058004D6F767F
:101BA000652059004D6F7665205A0045787472752E
:101BB000646572004D6F766520302E316D6D004D7D
:101BC0006F766520316D6D004D6F76652031306D1B
:101BD0006D004D6F76652061786973004578747289
:101BE00075646572004D6F7665205A004D6F76659D
:101BF0002059004D6F7665205800526573656E64FC
:101C00003A20006F6B0020746F6F206C6F6E67203E
:101C1000657874727573696F6E2070726576656E23
:101C20007465640A0020636F6C6420657874727553
:101C300073696F6E2070726576656E7465640A00F4
:101C40004B494C4C45442E20004B494C4C20636181
:101C50007573656420627920746F6F206D75636899
:101C600020696E6163746976652074696D65202DE5
:101C70002063757272656E7420636F6D6D616E6442
:101C80003A2000506C65617365207265736574005D
:101C90005052494E5445522048414C5445440050FE
:101CA00072696E7465722068616C7465642E206B55
:101CB000696C6C28292063616C6C6564210A00657D
:101CC0006E7175657565696E67202200000020C21F
:101CD00000000000000000000000484200004842F0
:101CE00000000040000000005761726E696E673AA4
:101CF00020486F6D696E672042756D70204469766B
:101D000069736F72203C20310A000202040000A0B7
:101D1000400000A0400000004000008B4300008510
:101D20004300006643FFFFFF53746F7720424C541B
:101D30006F756368004D3238302050302053393091
:101D4000004465706C6F7920424C546F7563680075
:101D50004D3238302050302053313000424C546FD7
:101D60007563682053656C662D54657374004D323D
:101D70003830205030205331323000526573657452
:101D800020424C546F756368004D3238302050301B
:101D90002053313630004D61696E005072696E74A7
:101DA0002070617573656400005072696E74206103
:101DB000626F72746564004D3231004E6F2053447F
:101DC0002063617264004368616E6765205344203C
:101DD00063617264004D3231005072696E74206626
:101DE000726F6D2053440053746F70207072696E6F
:101DF0007400526573756D65207072696E74004968
:101E00006E69742E205344206361726400506175C2
:101E10007365207072696E7400436F6E74726F6CBC
:101E200000507265706172650054756E6500496E90
:101E3000666F2073637265656E00426162797374C8
:101E40006570205A004261627973746570205A008F
:101E5000466C6F7700466C6F7700466C6F77004674
:101E6000616E2073706565640046616E20737065F5
:101E700065640046616E2073706565640042656448
:101E80000042656400426564004E6F7A7A6C6500BA
:101E90004E6F7A7A6C65004E6F7A7A6C650053707B
:101EA0006565640053706565640053706565640022
:101EB0004D61696E005072656865617420504C41D7
:101EC00020456E64005072656865617420504C4115
:101ED00020426564005072656865617420504C4111
:101EE0000050726570617265004578747275646542
:101EF00072004D6F7665205A004D6F76652059004F
:101F00004D6F7665205800507265706172650049AA
:101F10006E697469616C697A6520454550524F4D10
:101F200000436F6E74726F6C00526573746F7265EC
:101F3000206661696C73616665004C6F6164207333
:101F4000657474696E677300496E697469616C6960
:101F50007A6520454550524F4D0053746F7265208D
:101F600073657474696E677300424C546F7563686F
:101F7000004D6F74696F6E0054656D7065726174A9
:101F8000757265004D61696E0050726568656174B7
:101F90002041425320636F6E660050726568656130
:101FA0007420504C4120636F6E66005049442D44AC
:101FB000005049442D44005049442D4900504944A3
:101FC0002D49005049442D50005049442D500046A1
:101FD000616E2073706565640046616E2073706584
:101FE00065640046616E20737065656400426564D7
:101FF0000042656400426564004E6F7A7A6C650049
:102000004E6F7A7A6C65004E6F7A7A6C6500436F1A
:102010006E74726F6C0053746F72652073657474A4
:10202000696E6773004265640042656400426564DE
:10203000004E6F7A7A6C65004E6F7A7A6C65004E4E
:102040006F7A7A6C650046616E2073706565640016
:1020500046616E2073706565640046616E20737022
:102060006565640054656D706572617475726500B4
:102070007C3C3E5E2B3D3F2F5B5D3B2C2A225C006F
:102080001000AA038000400100012C01B0012201D0
:1020900040021001F00202018003F8004004F50044
:1020A000E004ED009005E4003006DD00E006D70016
:1020B0008007D1003008CC00D008C7007009C300E9
:1020C000100ABE00B00ABB00500BB700900CB30062
:1020D000D00DAA00B00FA500F010A000301296009D
:1020E000D0129000F0158B00D0178500B019800039
:1020F000F01A7B00701D7500F01F6F0070226900E0
:102100004025640020275F00A0295A00902B55002D
:10211000102D4F00502E4800E03145003033410073
:10212000D03539006036370010373300F0382D00D5
:10213000A0392700803C1C00403D1700F03D1100F5
:10214000803E0900D03FE5FF202F002042403A00AA
:1021500020403A0025753A25303275002530327519
:102160003A25303275002D2D2D005344005A005968
:102170000058004B494C4C45442E200053544F50BE
:102180005045442E20005072696E7465722073743D
:102190006F707065642064756520746F206572725D
:1021A0006F72732E2046697820746865206572729C
:1021B0006F7220616E6420757365204D3939392046
:1021C000746F20726573746172742E202854656D6B
:1021D00070657261747572652069732072657365CC
:1021E000742E2053657420697420616674657220B2
:1021F00072657374617274696E67290A004E6F208C
:10220000436865636B73756D2077697468206C69CA
:102210006E65206E756D6265722C204C6173742042
:102220004C696E653A2000636865636B73756D2059
:102230006D69736D617463682C204C617374204CFC
:10224000696E653A20004C696E65204E756D626559
:1022500072206973206E6F74204C617374204C6916
:102260006E65204E756D6265722B312C204C61734A
:1022700074204C696E653A20004D313130004D3389
:10228000310053442072656164206572726F720A76
:1022900000446F6E65207072696E74696E672066A7
:1022A000696C650A006265640A002C207379737496
:1022B000656D2073746F707065642120486561746A
:1022C00065725F49443A2000544845524D414C20C4
:1022D00052554E4157415900546865726D616C20EA
:1022E00052756E617761790048656174696E672027
:1022F0006661696C65640048656174696E67206633
:1023000061696C65640070012C0190012701B001C6
:102310002201C0011D01F001180110021301300259
:102320000E016002090190020401C002FF000003D7
:10233000FA004003F5008003F000D003EB00200416
:10234000E6007004E100E004DC004005D700C005B1
:10235000D2004006CD00D006C8008007C300300878
:10236000BE00F008B900C009B400B00AAF00B00B5D
:10237000AA00D00CA500000EA000500F9B00C010BA
:1023800096005012910000148C00C0158700B01701
:102390008200B0197D00D01B7800001E7300402021
:1023A0006E0090226900F024640040275F009029AD
:1023B0005A00E02B5500102E500020304B001032F8
:1023C0004600E033410090353C001037370070384C
:1023D0003200A0392D00B03A2800A03B2300603C19
:1023E0001E00103D1900903D1400103E0F00703E7D
:1023F0000A00C03E0500003F0000403FFBFF803F59
:10240000F6FFC03FF1FF4572723A204D494E5445E8
:102410004D5020424544004572723A204D494E5479
:10242000454D50004D494E54454D502074726967DA
:102430006765726564004572723A204D4158544593
:102440004D5020424544004572723A204D41585447
:10245000454D50004D415854454D502074726967A8
:1024600067657265640000002100240027002A00CF
:1024700000002200250028002B000000200023007F
:1024800026002900020202020202020204040404DD
:102490000404040403030303030303030101010110
:1024A000010101010102040810204080010204081A
:1024B000102040800102040810204080804020103D
:1024C00008040201000000010200000000000000FA
:1024D00004030706000000000000000000000000E8
:1024E0000000000050726F62696E67206661696C5F
:1024F00065640A0050726F62696E67206661696C7C
:10250000656400205A3A200020593A200042656450
:1025100020583A20004572726F7220777269746990
:102520006E6720746F20454550524F4D210A00566A
:1025300054726176206D696E005654726176206D1A
:10254000696E005654726176206D696E00566D6931
:102550006E00566D696E00566D696E00566D61783D
:10256000204500566D6178204500566D6178204504
:1025700000566D6178205A00566D6178205A0056D9
:102580006D6178205A00566D6178205900566D6152
:1025900078205900566D6178205900566D61782079
:1025A0005800566D6178205800566D6178205800AB
:1025B0004D6F74696F6E00416D6178204500416D0B
:1025C0006178204500416D6178205A00416D617845
:1025D000205A00416D6178205900416D6178205981
:1025E00000416D6178205800416D617820580041AC
:1025F0002D74726176656C00412D74726176656C24
:1026000000412D7265747261637400412D726574AE
:102610007261637400416363656C00416363656C60
:10262000004D6F74696F6E0007D6B7D711241FBEB7
:10263000CFEFD0E4DEBFCDBF12E0A0E0B1E0ECEB25
:10264000FBEC01E00BBF02C007900D92A838B10768
:10265000D9F721E1A8E8B2E001C01D92A23CB2077F
:10266000E1F713E1C5E1D3E104C02197FE010E9427
:1026700044E5C431D107C9F70E94DECD0C94D1E501
:102680000C9400002F923F924F925F926F927F9234
:102690008F929F92AF92BF92CF92DF92EF92FF9272
:1026A0000F931F93CF93DF93CDB7DEB7E9970FB6A4
:1026B000F894DEBF0FBECDBF8091BB118D3409F4FD
:1026C0002BC4843511F40C942F25873421F0E6E3D4
:1026D000FAE10C9471258091B9119091BA118D3164
:1026E000910509F456C294F48430910509F4A2C00E
:1026F00024F4029780F10C9489258B31910509F41B
:10270000DFC04C9709F46DC10C9489258A35910579
:1027100009F4B3C24CF48E31910509F43EC28A9794
:1027200009F42EC30C9489258B35910509F4A9C2AF
:102730008C35910511F00C9489250E942DBEE9E796
:102740002E2EE1E03E2EFCE3EF2EF4E0FF2E00E023
:10275000D12C10E0C0C280916A01882311F40C943E
:102760008925B9E7CB2EB1E0DB2E19EBE12E1FE076
:10277000F12E0CE314E088E8A82E82E0B82ED601F2
:102780008D916D010E947CB38823D9F00E9449B3DA
:10279000F5012081211104C020918C02222331F007
:1027A000D8012D913D914D915C9103C020E030E026
:1027B000A9010E9403E3F7016083718382839383FD
:1027C0000AC0F80180819181A281B381F7018083E1
:1027D0009183A283B383F4E0EF0EF11C0C5F1F4FD3
:1027E0002FEFA21AB20A3DE7C31631E0D30639F63D
:1027F00086E40E94ABB38823C9F00E9449B320E06D
:1028000030E0A9010E9486E4181684F40E9449B3BE
:1028100020E030E040E752E40E9486E360937501D7
:102820007093760180937701909378010E94E68EF1
:102830000C94892580E50E94ABB3882329F00E947F
:1028400005B36B017C0103C0C12CD12C760183E55B
:102850000E94ABB3882361F00E9449B320E030E0CE
:102860004AE754E40E94FEDE0E94FFE36B017C0114
:102870000E942DBE80910701811105C060E08FE1AB
:1028800091E00E9431430E94D9B38091B10F9091A1
:10289000B20FA091B30FB091B40FC80ED91EEA1EAB
:1028A000FB1E0E9423C2DC01CB018C199D09AE09DD
:1028B000BF09B7FD02C00C9489250E941F8EF1CF7D
:1028C0000E94E22C81110C94892580E090E0A0EF19
:1028D000B1EC89839A83AB83BC8380E090E0A0E273
:1028E000B1E48D839E83AF83B88780E090E0A0EA57
:1028F000B1E489879A87AB87BC8780E50E94ABB338
:10290000882319F00E9415B301C060E080E090E0D8
:10291000A8ECB2E488A799A7AAA7BBA780E090E09B
:10292000A0EAB0E48CA39DA3AEA3BFA3613019F0CD
:10293000623039F02EC0BE016C5D7F4FCE0109962A
:1029400040C029853A854B855C856091440470912F
:10295000450480914604909147040E9403E36B0173
:102960007C0120E030E046E653E40E9498DE87FDDB
:1029700006C0C12CD12CA6E6EA2EA3E4FA2EC8A2EA
:10298000D9A2EAA2FBA2BE016C5D7F4FCE01809668
:1029900018C0209144043091450440914604509160
:1029A000470469857A858B859C850E9486E4181684
:1029B0001CF084E494E002C0CE010996BE016C5D77
:1029C0007F4F0E94F7519E01285D3F4F44E454E041
:1029D000BE016B5F7F4FCE0101960E9408510C949F
:1029E00089250E942DBE80E00E94324F0E94E8504F
:1029F00081E08093500C88E50E947CB3E82E89E545
:102A00000E947CB3082F8AE50E947CB3F82EE11067
:102A100005C0011105C011E0182705C0011102C051
:102A200010E001C0182F0E94CFB3111104C0E110B3
:102A300002C00023C1F180E090E0A0E2B1E4809305
:102A4000C10F9093C20FA093C30FB093C40F9C010A
:102A5000AD016091440470914504809146049091C9
:102A600047040E9498DE87FF0BC019821A821B82DE
:102A70001C82BE016F5F7F4F81EC9FE00E94F75187
:102A8000111105C0E11003C0011107C00CC080E0A6
:102A900090E00E946C8C1123B9F381E090E00E94D9
:102AA0006C8C111103C0FF2009F464C08091930263
:102AB000882321F08091940281111FC060E089E396
:102AC00091E00E943143E6E3FAE184918F010F5FC8
:102AD0001F4F811103C0E8E2F1E004C00E94E4B39B
:102AE000F801F3CF84918F010F5F1F4F882309F402
:102AF00041C00E94E4B3F801F5CF0E94BEB28091BC
:102B0000440490914504A0914604B09147048093F9
:102B1000C10F9093C20FA093C30FB093C40F80E076
:102B200090E0A0E0B3E48093B90F9093BA0FA09324
:102B3000BB0FB093BC0F80E090E0ACE1B3E48093B6
:102B4000BD0F9093BE0FA093BF0FB093C00F19821B
:102B50001A821B821C829E012F5F3F4F44E454E087
:102B60006DEB7FE089EB9FE00E94085182E090E0EE
:102B70000E946C8C0E94BEB280914F0C8093500CCE
:102B80000E94CE5083E0809306010E94397D0C9410
:102B900089250E94E0520C948925C0903C04D09075
:102BA0003D04E0903E04F0903F0488E50E94ABB302
:102BB000811109C020E030E040E951E4C701B601CD
:102BC0000E9402E302C00E9449B368A379A38AA3CA
:102BD0009BA3C0904004D0904104E0904204F09048
:102BE000430489E50E94ABB3811109C020E030E0C5
:102BF00048E352E4C701B6010E9402E302C00E940A
:102C000049B36B017C0169837A838B839C8388A0A1
:102C100099A0AAA0BBA02FE632E143E85AEBC50178
:102C2000B4010E9486E487FF02C00C94892522E447
:102C300030E04CE553E4C501B4010E9498DE18165B
:102C400014F40C9489252FE632E143E85AEBC701CE
:102C5000B6010E9486E487FF02C00C94892522E415
:102C600030E04CE553E4C701B6010E9498DE181627
:102C700014F40C9489250C948C2510928C020C94DD
:102C8000892581E080938C020C9489250E9449B3A8
:102C90002B013C01F70120813181428153810E9447
:102CA00002E34B015C012DEB37E346E855EB0E9454
:102CB00086E487FD18C02DEB37E346E855E3C501F0
:102CC000B4010E9498DE181674F01F5FB4E0EB0E9A
:102CD000F11C1430A9F0D1018D911D010E94ABB3FC
:102CE000882399F3D3CF133011F401E002C0DD241F
:102CF000D394D7014D925D926D927C921397E5CF5C
:102D0000DD2019F00E94BEB237C00023A9F1C090A7
:102D10004804D0904904E0904A04F0904B0420917C
:102D20009E0930919F094091A0095091A109C701C6
:102D3000B6010E94FEDE0E948BE46093490C709302
:102D40004A0C80934B0C90934C0CC701B6010E9427
:102D5000F8E32FB7F8946093F4107093F510809314
:102D6000F6109093F7102FBF1092390C10923A0C76
:102D700010923B0C10923C0C0E94397D0C948925DA
:102D800080916A01882311F40C94892589E40E94BA
:102D9000ABB3082F882321F00E9415B3E62E01C0A3
:102DA000E12C8AE40E94ABB3182F882321F00E9403
:102DB00015B3F62E01C0F12C002319F0E2E0EE1558
:102DC00028F0112389F0F2E0FF1570F4EBE5F1E053
:102DD00084918F010F5F1F4F882311F40C94892574
:102DE0000E94E4B3F801F4CF0E94CFB30023F1F0C6
:102DF0002091FB093091FC094E2D4203B001439F05
:102E0000700D11248091F7099091F809680F791FCE
:102E1000072E000C880B990B0E949FDE6093B90F60
:102E20007093BA0F8093BB0F9093BC0F1123F1F0F6
:102E30002091FD093091FE095F2D5203B001539F8F
:102E4000700D11248091F9099091FA09680F791F8A
:102E5000072E000C880B990B0E949FDE6093BD0F1C
:102E60007093BE0F8093BF0F9093C00F80E50E94B8
:102E7000ABB3882319F00E9439B303C080E50E94E8
:102E80007CB3882381F10023B1F020E030E040E9F9
:102E900051E46091B90F7091BA0F8091BB0F90917E
:102EA000BC0F0E9403E36093B90F7093BA0F809335
:102EB000BB0F9093BC0F1123B1F020E030E048E34A
:102EC00052E46091BD0F7091BE0F8091BF0F909141
:102ED000C00F0E9403E36093BD0F7093BE0F8093F9
:102EE000BF0F9093C00F86E40E94ABB3882309F410
:102EF0009DCC0E9449B36B017C0120E030E0A90128
:102F00000E9486E418160CF091CC20E030E040E7F7
:102F100052E4C701B60180CC8091B9119091BA11E9
:102F20008337910509F4D0C10CF0DDC08B349105D5
:102F300009F40DC40CF064C08831910509F4A5C2F0
:102F4000ACF58231910509F4ADC5BCF497FF02C020
:102F50000C948925823091050CF4B9C1419711F088
:102F60000C94892560E08FEA91E00E9431435E98DD
:102F70005E9815985E980C9489258531910509F421
:102F800069C23CF4449711F00C948925E7ECF1E018
:102F900021C28631910509F461C2479711F00C9462
:102FA0008925E091B711F091B81162C28C31910579
:102FB00009F4C1C264F48A31910509F471C20CF0BC
:102FC0007DC21092890C0E94802D0C9489258F312E
:102FD000910509F406C344F44E9711F00C94892529
:102FE0000E94C57E0C9489258032910509F4ADC2FA
:102FF0008A9711F00C9489250E94077E0C948925EC
:103000008836910509F4AFC30CF040C082359105B4
:1030100009F43FC514F58D34910509F4A0C30CF4EF
:103020009AC38135910511F00C9489250E94FFB750
:103030000E942DBE0E94BE8D109254111092531109
:1030400068EE73E080E090E00E94704160E080EA0A
:1030500092E00E9431430C9489258435910509F44E
:1030600021C50CF41AC58535910509F452C58C3576
:10307000910511F00C94892549E7C42E41E0D42E26
:1030800052E9E52E59E0F52E10E05EC58D3691052A
:1030900009F495C49CF48A36910509F4C3C40CF470
:1030A00050C48B36910509F4E2C48C36910511F0B9
:1030B0000C948925109261010C9489258F36910515
:1030C00009F4A8C30CF493C38037910509F415C41F
:1030D0008237910511F00C9489250E942DBE0E9423
:1030E000397D0C9489258831A1E09A0711F40C945C
:1030F0008B210CF06CC08E3B910509F479C49CF5D2
:103100008837910509F432C6A4F48637910509F48D
:10311000EBC50CF028C68537910511F00C94892574
:1031200060E08091B7119091B8110E9451430C94C6
:1031300089258C38910509F4E8C35CF48937910539
:1031400011F00C9489251092500C10924F0C0C9495
:1031500089258139910509F40FC68B39910509F448
:1031600007C40C9489258D3C910509F472C7ACF411
:10317000893C910509F4C6C634F4883C910509F4EC
:1031800073C60C9489258B3C910509F4DDC68C3CF3
:10319000910509F4F4C60C9489258C3D910511F430
:1031A0000C94102144F4833D910511F00C94892571
:1031B000E6E3FAE1B9C78D3D910511F40C941D21A8
:1031C000823E910511F40C9462210C9489258A3970
:1031D000E1E09E0709F495C3BCF58F3221E0920728
:1031E00011F40C94332384F48D3241E0940711F4EC
:1031F0000C94412214F00C94DF228232914011F49D
:103200000C9436220C9489258039B1E09B0711F487
:103210000C9436234CF48336914011F00C9489259C
:10322000E8E1FAE10C940725813921E0920711F4D5
:103230000C9439238239914011F00C94892580E057
:103240000E9452520C948925863F41E0940711F464
:103250000C94A024ECF4853AA1E09A0711F40C94A4
:103260000B243CF4843A914011F40C943D230C94CB
:103270008925843FF1E09F0711F40C949D24853F3C
:10328000914011F00C9489250E94BD6E0C94892503
:10329000833533E09307A1F03CF4873F914011F46C
:1032A0000C94A3240C948925803AA3E09A0709F48E
:1032B0008BC1873E934011F40C941A250C948925F8
:1032C000E6E3FAE10C94B224E8E6F3E0BCC4A09093
:1032D000B711B090B81180E50E94ABB3882359F0C4
:1032E0000E9405B36B017C0111E0672B682B692BF1
:1032F00031F410E004C010E0C12CD12C760183E53C
:103300000E94ABB38823F1F00E9449B320E030E083
:103310004AE754E40E94FEDE0E94FFE36B017C0159
:10332000111112C0672B682B692B71F4A114B10421
:1033300059F0F5018081882339F061E0C5010E94D0
:10334000514307C0112391F360E08CE991E00E94A2
:10335000314381E080936A090E942DBE0E94D9B357
:10336000C114D104E104F104E1F08091B10F909116
:10337000B20FA091B30FB091B40FC80ED91EEA1EC0
:10338000FB1E0E9423C2DC01CB018C199D09AE09F2
:10339000BF09B7FF1BC080916A0981110C94E32516
:1033A00015C080916A09882319F00E941F8EF9CFF9
:1033B0008091790C90917A0C60E0029719F489E879
:1033C00091E002C08AE791E00E94314310926A09BD
:1033D0000C94892584918F010F5F1F4F882321F062
:1033E0000E94E4B3F801F6CF10920F0F10920E0F67
:1033F0008AEB9CE00E942DA68BE1EAEBFCE0DE016B
:10340000159601900D928A95E1F78091B80C9091F4
:10341000B90C9C838B8389ED91E09A83898340E08A
:1034200050E0BE016F5F7F4F88E292E00E94172E4E
:10343000CE0101960E94B68DE8EBF1E084918F01F8
:103440000F5F1F4F882311F40C9489250E94E4B369
:10345000F801F4CF0E947F830C9489251092890C87
:1034600010928A0C0C948925803209F410823196CE
:1034700080818111F9CF40E061E08091B711909196
:10348000B8110E9435300C94892580918A0C8823CC
:1034900019F081E08093890C0E943C2C0C948925C2
:1034A00080918A0C882311F40C94892583E50E946D
:1034B000ABB381110C94E7250C94892580918A0C7B
:1034C000811103C0EAEEF1E02AC0E8EDF1E0849159
:1034D0008F010F5F1F4F882321F00E94E4B3F80192
:1034E000F6CF6091050F7091060F8091070F9091B4
:1034F000080F4AE00E948CB68FE20E94E4B360910C
:10350000010F7091020F8091030F9091040F4AE018
:103510000E948CB68AE00E94E4B30C9489258491C1
:103520008F010F5F1F4F882311F40C9489250E948F
:10353000E4B3F801F4CF40E060E08091B7119091DE
:10354000B8110E9435300C9489258091890C811125
:103550000E942DBE80918A0C882311F40C94892539
:1035600080E50E94ABB3882319F00E9439B303C0F1
:1035700080E50E947CB3182F482F61E08091B7113D
:103580009091B8110E94353083E50E94ABB3882337
:1035900081F00E9415B3AB01BC014093050F50931D
:1035A000060F6093070F7093080F84E59EE00E945A
:1035B000FEC580918A0C882319F081E08093890CE4
:1035C00011110C94892568CF8091B7119091B81191
:1035D00021E02093880C40E060E00E9435300C949C
:1035E00089250E94C9847B018C0120E831E541E0F6
:1035F00050E00E949FE2C9016DE671E00E941CE567
:103600004B015C01C801B70120E13EE040E050E021
:103610000E949FE2CA01B90128E130E040E050E099
:103620000E949FE2762E672EC62ED72E7CE3272E91
:10363000312C412C512CC801B701A20191010E94EB
:103640009FE2F62EE72ECA01B901A20191010E9464
:103650009FE2CB018E010F5F1F4F8114910499F0FF
:10366000EF92FF927F936F936F927F92BF92AF9290
:103670009F928F9283E292E09F938F931F930F9379
:103680000E9430DE13C0A114B104B1F0EF92FF929A
:103690007F936F936F927F92BF92AF9283E192E09C
:1036A0009F938F931F930F930E9430DE0FB6F89471
:1036B000DEBF0FBECDBF30C0CD2879F0EF92FF92B4
:1036C0007F936F936F927F9287E092E09F938F93A7
:1036D0001F930F930E9430DEE9CF892B69F0EF92A0
:1036E000FF927F936F938FEF91E09F938F931F9340
:1036F0000F930E9430DEDACFEF92FF928BEF91E0D2
:103700009F938F931F930F930E9430DE0F900F9023
:103710000F900F900F900F9060E0C8010E945143EE
:10372000E6E3FAE184917F01BFEFEB1AFB0A8823FD
:1037300021F00E94E4B3F701F5CFB80187E392E0EE
:103740000E94923B8AE00E94E4B30C9489250E9477
:103750003C2C0C9489250E94802D0C9489250E9474
:1037600061810C9489258091140F80933F10809182
:10377000B90983FF02C00C94892583E50E94ABB38D
:10378000882311F40C9489250E9449B30E94F8E320
:10379000709352116093511180E00E94B3B70E9460
:1037A00049B32091441030914510409146105091FA
:1037B00047100E9486E4181614F00C94892581EFB6
:1037C00091E09F938F9380913F1090E001969F939B
:1037D0008F9384E492E09F938F931F920E941F2CFB
:1037E0000FB6F894DEBF0FBECDBF0C9489258EE4D2
:1037F0000E94ABB3882311F40C9489250E9415B361
:1038000060936004709361048093620490936304F6
:103810000C94892583E50E947CB3882359F083E5C5
:103820000E94ABB3882319F00E9425B301C080E049
:103830008093B909E6E3FAE184918F010F5F1F4F8E
:10384000811103C0E9E5F2E004C00E94E4B3F8018D
:10385000F3CF84918F010F5F1F4F882321F00E94C7
:10386000E4B3F801F6CF8091B909811103C0E5E511
:10387000F2E034C06BE4C62E62E0D62EE12CF12CCF
:1038800020E08091B90990E00E2C02C095958795B3
:103890000A94E2F780FF17C0BB24B394B20E222330
:1038A00019F08CE20E94E4B3F60185919491FC0139
:1038B00084918F010F5F1F4F882321F00E94E4B392
:1038C000F801F6CF2B2DFFEFEF1AFF0A32E0C30EFF
:1038D000D11C45E0E416F104A1F60AC084918F01E1
:1038E0000F5F1F4F882321F00E94E4B3F801F6CF49
:1038F0008AE00E94E4B30C94892580E692E00E945D
:10390000C88D0E9492780C9489258091B90983FF13
:1039100002C00C94892583E50E94ABB3882311F47F
:103920000C9489250E9449B30E94F8E3633871051D
:1039300014F062E870E070935611609355110C9486
:1039400089258091140F80933F10E9E6F2E084917D
:103950008F010F5F1F4F882321F00E94E4B3F8010D
:10396000F6CF0E948FB18AE00E94E4B30C94FC2849
:1039700083E50E94ABB3882311F40C9489250E943F
:1039800025B3182F8D3308F01CE31093AE0F0E945F
:1039900023C26B017C01212F30E0A8EEB3E00E942E
:1039A000F3E2C60ED71EE81EF91EC092AA0FD092EF
:1039B000AB0FE092AC0FF092AD0F0C948925809183
:1039C000140F80933F108091B90983FF02C00C94BB
:1039D000892583E50E94ABB389AB81110C94F8254E
:1039E00082E50E94ABB381110C94F8250C948925D3
:1039F0008091B90983FF02C00C94892560E083E9B6
:103A000092E00E94314383E50E94ABB389AB811100
:103A10000C944D2782E50E94ABB381110C944D2785
:103A20000C94892580E50E94ABB3811108C083E521
:103A30000E94ABB3811109C03FEF20E00AC00E9491
:103A400025B381110C948925F2CF0E9415B3362F2E
:103A5000272F832F922F8F3F910519F010F08FEFB2
:103A600090E090935411809353110C94892580E534
:103A70000E94ABB3811106C01092541110925311E1
:103A80000C9489250E9415B3672B11F00C9489259D
:103A9000F3CF10928B020C94892581E080938B02E6
:103AA0000C94892583E50E94ABB38823A1F00E9482
:103AB00049B320E030E04AE754E40E94FEDE0E9471
:103AC000FFE360935D0170935E0180935F019093CB
:103AD00060010C94892588E50E947CB381110C94C7
:103AE0007C2889E50E947CB381110C947C288AE5AE
:103AF0000E947CB381110C947C2885E40E947CB3E5
:103B000081110C947C280E942DBE0E94BE8D0C94C5
:103B1000892583E50E947CB3882311F40C948925C0
:103B20000E9449B320E030E04AE754E40E94FEDE00
:103B30000E94FFE36093B50F7093B60F8093B70FA9
:103B40009093B80F0C948925D6018D916D010E9438
:103B50007CB3882309F46DC0133009F063C00E9460
:103B600049B34B015C0120E030E040EA51E40E949F
:103B700098DE87FF4EC0A501940160919E09709167
:103B80009F098091A0099091A1090E9486E32B01D1
:103B90003C019B01AC0160918E0970918F0980916D
:103BA0009009909191090E94FEDE60938E097093B6
:103BB0008F098093900990939109A30192016091DC
:103BC0007711709178118091791190917A110E94FA
:103BD000FEDE609377117093781180937911909342
:103BE0007A116091C6097091C7098091C8099091B6
:103BF000C9090E949DDEA30192010E94FEDE0E947F
:103C0000FFE36093C6097093C7098093C809909336
:103C1000C90980929E0990929F09A092A009B09232
:103C2000A10907C00E9449B3F701608371838283B1
:103C300093831F5FF4E0EF0EF11C143009F084CF82
:103C40000E94036B66C784918F010F5F1F4F88230B
:103C500021F00E94E4B3F801F6CF60E088E593E03C
:103C60000E94027D61E081E593E00E94027D61E0B7
:103C700086E493E00E94027D61E086E393E00E9487
:103C8000027D60E08DE293E00E94027D61E083E2CC
:103C900093E00E94027D61E089E193E00E94027D51
:103CA00061E081E193E00E94027D61E083E093E0C6
:103CB0000E94027D60E085EF92E00E94027D60E05C
:103CC00086EE92E00E94027D60E088ED92E00E9424
:103CD000027D60E082EC92E00E94027D60E081EB78
:103CE00092E00E94027D15C785E40E94ABB3882351
:103CF00019F00E9439B303C085E40E947CB3882385
:103D000061F0E6E3FAE184918F010F5F1F4F882392
:103D100021F00E94E4B3F801F6CF81E40E94ABB336
:103D2000882319F00E9439B303C081E40E947CB358
:103D3000882361F0E1E3F4E084918F010F5F1F4F6E
:103D4000882321F00E94E4B3F801F6CF0091B71167
:103D50001091B811D8018D918D01882309F4C8CD37
:103D60000E94E4B3F7CF0E940F5AD3C681E080933C
:103D7000500C80934F0CCDC683E50E94ABB38823D3
:103D800019F00E9415B302C060E070E08B011127AA
:103D900002301105D4F0E8E1FAE184918F010F5F60
:103DA0001F4F811103C0E5E3F4E004C00E94E4B3B7
:103DB000F801F3CF84918F010F5F1F4F882309F41F
:103DC000A8C60E94E4B3F801F5CF88E40E94ABB323
:103DD0008823A9F00E9415B3663971053CF065305F
:103DE000B1E07B072CF064E071E002C066E970E0AE
:103DF000F801EE0FFF1FE85DFF4E7183608386E4DC
:103E00000E94ABB38823A9F00E9415B3F801EE0F0E
:103E1000FF1FE45DFF4E718360836F3F710519F0F2
:103E200014F06FEF70E077FF02C060E070E0718324
:103E3000608382E40E94ABB3882309F46AC60E94BF
:103E400015B36530710534F0643771052CF063E704
:103E500070E002C065E070E0000F111FF801EC5D3A
:103E6000FF4E7183608355C68091140F80933F107D
:103E700084E40E947CB3882309F441C00E9449B3C2
:103E80006B017C0111E020E030E0A9010E9498DE86
:103E9000811101C010E01093B00920E030E0A901C9
:103EA000C701B6010E9498DE882349F10E9449B3F8
:103EB000E0913F1024E0E29FF0011124EF54F64F0F
:103EC000608371838283938320E030E0A901609155
:103ED000B1097091B2098091B3099091B4090E941F
:103EE00098DE81110CC080E090E0A0EEBFE38093EB
:103EF000B1099093B209A093B309B093B4090E9499
:103F0000386D07C609E7E02E01E0F02E0BE711E15E
:103F10008BE8C82E81E1D82ED7018D917D010E94BA
:103F20007CB3882349F00E9449B30E94FFE3F80163
:103F300060837183828393830C5F1F4FC016D10609
:103F400059F70E94E569E5C519E7E12E11E0F12E68
:103F50000BE611E1D7018D917D010E947CB388238E
:103F600039F00E9449B3F80160837183828393839F
:103F70000C5F1F4FF1E10B371F0761F7CAC583E5DF
:103F80000E947CB38823D9F00E9449B3AB01BC01E5
:103F900040939311509394116093951170939611DF
:103FA00040938B1150938C1160938D1170938E11EF
:103FB00081EB94E00E945C3B8AE00E94E4B380E5E0
:103FC0000E947CB3882399F00E9449B3AB01BC01E5
:103FD000409393115093941160939511709396119F
:103FE00084E994E00E945C3B8AE00E94E4B382E5AD
:103FF0000E947CB3882399F00E9449B3AB01BC01B5
:1040000040938F115093901160939111709392117E
:1040100085E794E00E945C3B8AE00E94E4B384E57B
:104020000E947CB3882309F474C50E9449B3AB0194
:10403000BC0140938B1150938C1160938D11709340
:104040008E1187E594E00E945C3B8AE00E94E4B315
:1040500060C583E50E947CB3882351F00E9449B378
:1040600060936711709368118093691190936A113E
:1040700084E50E947CB3882351F00E9449B3609389
:10408000631170936411809365119093661182E4BB
:104090000E947CB3882351F00E9405B36093B50958
:1040A0007093B6098093B7099093B80988E50E9488
:1040B0007CB3882351F00E9449B3609382097093C6
:1040C0008309809384099093850989E50E947CB3D4
:1040D000882351F00E9449B3609386097093870941
:1040E00080938809909389098AE50E947CB388238C
:1040F00051F00E9449B360938A0970938B098093B1
:104100008C0990938D0985E40E947CB3882309F47F
:1041100000C50E9449B360938E0970938F09809304
:10412000900990939109F5C484918F010F5F1F4FFF
:10413000882321F00E94E4B3F801F6CF83E50E94C2
:104140007CB3882321F00E9439B380935201E1E0CF
:10415000F5E084918F010F5F1F4F882321F00E94AB
:10416000E4B3F801F6CF80915201882319F0E9EF0A
:10417000F4E002C0EDEFF4E084918F010F5F1F4F78
:10418000811103C0E1EFF4E004C00E94E4B3F80140
:10419000F3CF84918F010F5F1F4F882321F00E947E
:1041A000E4B3F801F6CF40E050E0BA018FEE94E0BE
:1041B0000E945C3B40E050E0BA018CEE94E00E942B
:1041C0005C3B40E050E0BA0189EE94E00E945C3B29
:1041D000E1EEF4E084918F010F5F1F4F882321F0FF
:1041E0000E94E4B3F801F6CF40E050E06CE573E4E0
:1041F0008FED94E00E945C3B40E050E06CE573E49E
:104200008CED94E00E945C3B40E050E066E673E495
:1042100089ED94E00E945C3B8AE00E94E4B379C49B
:1042200083E50E94ABB3882309F473C40E9415B3DD
:1042300070936901609368016CC48091140F80933E
:104240003F1083E50E94ABB3882309F462C4009158
:104250003F1010E00E9415B3000F111FF801EA593A
:10426000FE4F7183608380913F1090E08C01000FBE
:10427000111F000F111F98012E593E4F7901880F11
:10428000991FFC01EA59FE4F60817181072E000CD5
:10429000880B990B0E949FDE2AE037ED43E25CE336
:1042A0000E94FEDEF801E45FFF4E208131814281F1
:1042B00053810E94FEDED7016D937D938D939C9375
:1042C000139727C480E50E947CB3882309F421C496
:1042D0000E9415B36B017C0183E50E94ABB3882378
:1042E00021F00E9415B38B0102C00FEF1FEFC80130
:1042F0000196039708F00DC4D7FC0BC48C2DE1E1A7
:10430000F5E09491891709F404C43196B5E0E933D6
:10431000FB07B9F749C780E50E947CB3882309F4FD
:10432000F8C30E9415B36B017C018B01672B19F058
:10433000E8E1FAE17FC083E50E947CB3811103C00C
:10434000E6E3FAE107C00E9415B386E79CE00E940D
:10435000CD39DFC384917F012FEFE21AF20A88235F
:1043600021F00E94E4B3F701F5CF60E070E082E550
:1043700095E00E94793B8091780C28E532E0690154
:10438000C81AD10887FDD394CC0CDD1CCC0CDD1CE5
:104390000D2C000CEE08FF088091770C28E830E027
:1043A0004901881A910887FD9394880C991C880C00
:1043B000991C092C000CAA08BB088091760C8F3F31
:1043C000B9F090E0FC01EE0FFF1F8E0F9F1FFC0164
:1043D000EF5AF34F0181128153E0000F111F5A95DC
:1043E000E1F764E0169507956A95E1F70E5F1F4FB8
:1043F00098012F5F3F4FC901330FAA0BBB0B9C01E4
:10440000AD01281939094A095B09A4EBB0E00E9403
:10441000E0E2A7019601281939094A095B090E94BF
:10442000C1E2B9018FE495E00E94793B8AE00E94E5
:10443000E4B36FC384918F010F5F1F4F882321F076
:104440000E94E4B3F801F6CFB60188E495E00E943B
:10445000793BE9E3F5E084918F010F5F1F4F8823DB
:1044600009F457C30E94E4B3F801F5CF8AE50E942E
:10447000ABB381115DC683E50E94ABB3811158C611
:1044800048C385E40E94ABB3811110C080E50E944F
:104490007CB3882391F00E9449B360931810709305
:1044A000191080931A1090931B1007C00E9425B317
:1044B000882361F3E8E1FAE171C089E40E947CB3EA
:1044C000882381F00E9449B32CEA35EC47E25EE391
:1044D0000E94FEDE609320107093211080932210C2
:1044E0009093231084E40E947CB3882381F00E947F
:1044F00049B32CEA35EC47E25EE30E9486E3609321
:104500001C1070931D1080931E1090931F10E6E3F3
:10451000FAE184918F010F5F1F4F882321F00E94E1
:10452000E4B3F801F6CF4091181050911910609142
:104530001A1070911B1082E695E00E945C3B2CEAF9
:1045400035EC47E25EE3609120107091211080917C
:104550002210909123100E9486E3AB01BC018EE5EE
:1045600095E00E945C3B2CEA35EC47E25EE360910B
:104570001C1070911D1080911E1090911F100E94B0
:10458000FEDEAB01BC018AE595E00E945C3B8AE05F
:104590000E94E4B3BEC20E94E4B3F80184918F018B
:1045A0000F5F1F4F8111F7CF0CEF11E0D8018D91F4
:1045B0008D01882309F49CC90E94E4B3F7CF83E5F9
:1045C0000E947CB3182F882371F00E9449B30E9487
:1045D000F8E3709345016093440121E0672B09F0F3
:1045E00020E02093660480E50E947CB3882359F084
:1045F0002091440130914501232B11F00E9439B3E1
:104600008093660486C2111184C2E6E3FAE18491C4
:104610008F010F5F1F4F882321F00E94E4B3F80140
:10462000F6CF80916604882319F06BE272E002C035
:1046300065EE71E08BE795E00E94923B609144014A
:10464000709145018AE695E00E94793BE6E6F5E047
:1046500084918F010F5F1F4F882309F45AC20E9473
:10466000E4B3F801F5CF0E94C87853C20E942DBE72
:1046700050C281E00E9452524CC280913C04909101
:104680003D04A0913E04B0913F0489839A83AB839B
:10469000BC838091400490914104A0914204B09168
:1046A00043048D839E83AF83B887809144049091A7
:1046B0004504A0914604B091470489879A87AB8747
:1046C000BC8786E50E947CB3882341F08091FB097A
:1046D0009091FC09892B11F00E9475D58AE50E9402
:1046E0007CB3882321F00E9449B30E949A2D83E570
:1046F0000E947CB3882331F00E9439B3182F0E94A6
:10470000324F01C010E0F0905404111103C0E6E3F1
:10471000FAE11BC0F110FBCFE8E1FAE184918F01CF
:104720000F5F1F4F811103C0EEEAF5E004C00E9445
:10473000E4B3F801F3CF84918F010F5F1F4F8823FB
:1047400031F30E94E4B3F801F6CF84918F010F5F3B
:104750001F4F882321F00E94E4B3F801F6CFFF2019
:1047600019F069EE71E002C06DEE71E080EA95E04B
:104770000E94923B8AE00E94E4B3E6E3FAE184916E
:104780008F010F5F1F4F811103C0E3E9F5E004C003
:104790000E94E4B3F801F3CF84918F010F5F1F4FA4
:1047A000882321F00E94E4B3F801F6CFC0905504AD
:1047B000D0905604E0905704F090580420E030E088
:1047C000A901C701B6010E9486E418161CF0EEE8A4
:1047D000F5E009C042E0C701B6010E9415B78AE0C2
:1047E0000E94E4B30AC084918F010F5F1F4F88239A
:1047F00021F00E94E4B3F801F6CF4CE050E06CE306
:1048000074E0CE0101960E945AE5892B09F481C11A
:104810000E94397D7EC189E40E94ABB3882321F0D8
:104820000E9415B3162F01C01FEF8AE40E94ABB39C
:10483000882321F00E9415B3062F01C00FEF8AE5EF
:104840000E947CB3F82E811105C081E50E947CB3E3
:10485000D82E01C0D12C17FD06C007FD04C0F110F1
:104860001CC0D1101AC0E8E1FAE184918F010F5FFA
:104870001F4F811103C0ECEEF5E004C00E94E4B3C9
:10488000F801F3CF84918F010F5F1F4F882309F444
:1048900040C10E94E4B3F801F5CF133010F40330A7
:1048A000D0F0E8E1FAE184918F010F5F1F4F811191
:1048B00003C0EDECF5E004C00E94E4B3F801F3CFCF
:1048C00084918F010F5F1F4F882309F422C10E943A
:1048D000E4B3F801F5CFE12E110FFF08002E000C14
:1048E000110B0E9449B3D701AA0FBB1FDD2081F035
:1048F000FD01EE0DFF1DE00FF11FEE0FFF1FEE0F8C
:10490000FF1FED52F64F208131814281538103C058
:1049100020E030E0A901EA0EFB1E0E0D1F1D000F66
:10492000111F000F111F0D52164F0E9403E3F801D3
:104930006083718382839383ECC00E94F373E9C028
:104940000E949D6DE6C083E50E947CB3882321F020
:104950000E9439B391E089270E946F5ADAC00E9401
:10496000E4B3F80184918F010F5F1F4F8111F7CFDE
:10497000E8E2F6E084918F010F5F1F4F882321F05A
:104980000E94E4B3F801F6CF8AE50E947CB3882345
:1049900059F10E9449B36B017C0120E030E040EA0C
:1049A00051EC0E9486E487FD0AC020E030E040EA36
:1049B00051E4C701B6010E9498DE18166CF4EFE0CE
:1049C000F6E084918F010F5F1F4F882309F4A1C087
:1049D0000E94E4B3F801F5CFC0925F11D09260114C
:1049E000E0926111F092621140915F11509160115B
:1049F00060916111709162118CE096E00E945C3BC5
:104A00008AE00E94E4B385C00E94E4B3F801849177
:104A10008F010F5F1F4F8111F7CFE7E3F6E084911D
:104A20008F010F5F1F4F882309F473C00E94E4B306
:104A3000F801F5CF81E080936A0110925D0483E56F
:104A40000E94ABB3882319F00E9439B303C083E5F9
:104A50000E947CB381115DC00E9418955AC0F090ED
:104A6000B911FF2029F1E6E3FAE184918F010F5F8C
:104A70001F4F882321F00E94E4B3F801F6CF84E5AC
:104A80000E94E4B36F2D70E080E090E04AE00E9465
:104A90008CB680E20E94E4B30CEF11E0D8018D9156
:104AA0008D01882311F40C94781C0E94E4B3F6CF96
:104AB0001092140FE6E3FAE184918F010F5F1F4F0C
:104AC000882321F00E94E4B3F801F6CF6091140F1F
:104AD00070E086E496E00E94793B8AE00E94E4B3AD
:104AE00018C084918F010F5F1F4F882321F00E940F
:104AF000E4B3F801F6CF6091AF0F7091B00F88E585
:104B000096E00E94923B82E20E94E4B38AE00E9417
:104B1000E4B30E94F99470C380E00E94324F0E9477
:104B2000E85085E40E94ABB3882319F00E9439B3A2
:104B300003C085E40E947CB321E0482FBE016F5F73
:104B40007F4FCE0180960E948FBE6B017C019B013E
:104B5000AC010E9404E5811131C02CEA35EC47E23A
:104B600057E368A179A18AA19BA10E9403E3AB014D
:104B7000BC0183E591E00E945C3B2CEA35EC47E206
:104B800057E369817A818B819C810E9403E3AB01A9
:104B9000BC018EE491E00E945C3B2CEA35EC47E2DC
:104BA00057E3C701B6010E9403E3AB01BC0189E4EE
:104BB00091E00E945C3B8AE00E94E4B30E94CE50E8
:104BC0000E94397DA6CF0E941F8E0C94C1190E94AD
:104BD00015B3AB01BC014093050F5093060F6093D2
:104BE000070F7093080F84E59EE00E94FEC591CFE9
:104BF0000E9449B30E94F8E37093521160935111DF
:104C000080E00E94B3B76091511170915211072E4C
:104C1000000C880B990B0E949FDE2091441030916C
:104C2000451040914610509147100E9486E4181696
:104C3000B4F481EF91E09F938F9380913F1090E0C7
:104C400001969F938F938EE792E09F938F931F928D
:104C50000E941F2C0FB6F894DEBF0FBECDBF81E0BF
:104C6000809361011DA61EA61FA618AA1AAA1BAA38
:104C70001CAA1DAA1CA61EAA9CE39FABACE1A8AF70
:104C8000B6E4B9AFE12CF12C00E81FEB812C912C9C
:104C900054016091511170915211072E000C880B34
:104CA000990B0E949FDE762E672E582E492E970173
:104CB000A8010E9498DE882329F1209144103091A8
:104CC00045104091461050914710E9A9672D762D67
:104CD000852D942DE11107C00E9498DE881F88273A
:104CE000881F8CA715C00E9498DE87FF10C0809196
:104CF0006101882309F40DCF60E08CE692E00E9408
:104D0000314307CF7E2C6F2C502E412E01C01CA6A4
:104D10000E9423C26B017C01DC01CB012AA93BA9C3
:104D20004CA95DA9821B930BA40BB50BB7FD3AC030
:104D3000D701C60188519C4FAF4FBF4F8AAB9BAB89
:104D4000ACABBDAB0E948FB1EAE7F2E084918F017A
:104D50000F5F1F4F882321F00E94E4B3F801F6CFC4
:104D600081149104A104B104B9F0D501C401805F9C
:104D7000984DAF4FBF4FBC01CD016C197D098E0915
:104D80009F0928EE33E040E050E00E949FE2CA0114
:104D9000B9010E94F9B603C08FE30E94E4B38AE030
:104DA0000E94E4B30E941F8E0E94D9B32090441049
:104DB0003090451000914610109147109101A801C4
:104DC000672D762D852D942D0E9402E39F77811407
:104DD0009104A104B10449F420E030E040E85FE32D
:104DE0000E9498DE87FF0BC008C020E030E040E45E
:104DF00050E40E9486E4181614F4460157019CA55D
:104E0000992379F12DA53EA54FA558A92115310566
:104E10004105510541F0D701C601821B930BA40B3C
:104E2000B50BB7FD1EC09101A8016EA97FA988AD81
:104E300099AD0E9402E320E030E040EC5FE30E9485
:104E400098DE87FD54CFD701C601805A9541AF4FF8
:104E5000BF4F8DA79EA7AFA7B8AB2EAA3FAA08AF9A
:104E600019AF80916101882309F441CF8114910425
:104E7000A104B10429F4E72CF62C052D142D09CF3B
:104E800090E1C91A97E2D90AE108F108C818D908CF
:104E9000EA08FB08F7FE2BCFEECF0E9449B30E9431
:104EA000F8E36338710514F062E870E0709356110E
:104EB0006093551181E0809361018091140F80937C
:104EC0003F101DA61EA61FA618AA1AAA1BAA1CAA36
:104ED0001DAA1CA61EAABCE3BFABECE1E8AFF6E43A
:104EE000F9AFE12CF12C00E81FEB812C912C54013F
:104EF0006091551170915611072E000C880B990B7B
:104F00000E949FDE762E672E582E492E9701A8010B
:104F10000E9498DE882329F12091401030914110A1
:104F20004091421050914310A9A9672D762D852DEF
:104F3000942DA11107C00E9498DE881F8827881F22
:104F40008CA715C00E9498DE87FF10C08091610178
:104F5000882309F4DECD60E085E892E00E943143C9
:104F6000D8CD7E2C6F2C502E412E01C01CA60E9445
:104F700023C26B017C01DC01CB012AA93BA94CA90E
:104F80005DA9821B930BA40BB50BB7FD3AC0D701EB
:104F9000C60188519C4FAF4FBF4F8AAB9BABACABA8
:104FA000BDAB0E948FB1EFE8F2E084918F010F5FFB
:104FB0001F4F882321F00E94E4B3F801F6CF81143B
:104FC0009104A104B104B9F0D501C401805F984DEA
:104FD000AF4FBF4FBC01CD016C197D098E099F09F0
:104FE00028EE33E040E050E00E949FE2CA01B901A0
:104FF0000E94F9B603C08FE30E94E4B38AE00E94E6
:10500000E4B30E941F8E0E94D9B3209040103090CC
:10501000411000914210109143109101A801672D99
:10502000762D852D942D0E9402E39F7781149104A3
:10503000A104B10449F420E030E040E85FE30E94BD
:1050400098DE87FF0BC008C020E030E040E450E469
:105050000E9486E4181614F4460157019CA5992372
:1050600079F12DA53EA54FA558A92115310541057A
:10507000510541F0D701C601821B930BA40BB50B60
:10508000B7FD1EC09101A8016EA97FA988AD99AD99
:105090000E9402E320E030E040EC5FE30E9498DEF3
:1050A00087FD54CFD701C601805A9541AF4FBF4FFE
:1050B0008DA79EA7AFA7B8AB2EAA3FAA08AF19AF7E
:1050C00080916101882309F441CF81149104A104E6
:1050D000B10429F4E72CF62C052D142D09CF90E10D
:1050E000C91A97E2D90AE108F108C818D908EA08EC
:1050F000FB08F7FE2BCFEECF0E942DBE88E50E9465
:105100007CB3882319F05E9A1092930289E50E947D
:105110007CB3882319F05E9A109294028AE50E946B
:105120007CB3882309F4F5CC159A10929502F1CC42
:105130000E9449B320E030E040E050EC0E9498DE4D
:1051400087FD12C00E9449B320E030E040E050E407
:105150000E9486E418161CF00E9449B309C060E062
:1051600070E080E090E404C060E070E080E090ECEB
:1051700020919502222309F4CCCC00910A101091C1
:105180000B1020919A0930919B0940919C095091F4
:105190009D090E94FEDE0E94F8E3600F711F70936C
:1051A0000B1060930A10B5CC0E942DBEBC2C60E0A1
:1051B0008C2D0E94C1C10F3F2FEF120759F48C2D87
:1051C0000E9469C131E020E0892B09F030E0032F13
:1051D000122F05C00130110561F401E010E08B2DA4
:1051E0000E9469C18017910709F493CC0E941F8E19
:1051F000F6CF00E010E0F3CFE9960FB6F894DEBFEB
:105200000FBECDBFDF91CF911F910F91FF90EF9017
:10521000DF90CF90BF90AF909F908F907F906F90D6
:105220005F904F903F902F900895CF92DF92EF9232
:10523000FF920F931F93CF93DF936C01EB017B01E0
:10524000E40EF51E00E010E0CE15DF0561F0699177
:10525000D601ED91FC910190F081E02DC6010995F8
:10526000080F191FF1CFC801DF91CF911F910F9146
:10527000FF90EF90DF90CF9008950E944DE5CF937F
:10528000DF93EC0160E08E810E9492C161E08E812B
:105290000E9492C160E08E810E9492C18AE891E0F2
:1052A0000197F1F7DF91CF9108951F920F920FB6FA
:1052B0000F9211242F933F938F939F93AF93BF939C
:1052C0008091361190913711A0913811B091391118
:1052D00030913B0423E0230F2D3720F40196A11DCC
:1052E000B11D05C026E8230F0296A11DB11D209314
:1052F0003B048093361190933711A0933811B093EB
:10530000391180913A1190913B11A0913C11B091CB
:105310003D110196A11DB11D80933A1190933B114F
:10532000A0933C11B0933D11BF91AF919F918F918C
:105330003F912F910F900FBE0F901F901895CF9215
:10534000DF92EF92FF920F931F93CF93DF936C0145
:105350007C0187E0E80EF11CC0E0D0E0062F10E0F1
:10536000B8010C2E02C0759567950A94E2F761703A
:10537000F70181917F010E9492C12196C430D1052D
:1053800079F7C601DF91CF911F910F91FF90EF90B8
:10539000DF90CF900C943F29CF92DF92EF92FF9253
:1053A0000F931F93CF93DF93EC01F62E642F8C8124
:1053B0000E9492C18D818F3F19F060E00E9492C1DE
:1053C0008F850F2D10E084FF25C06E0187E0C80E89
:1053D000D11CE12CF12CB8010E2C02C075956795FB
:1053E0000A94E2F76170F60181916F010E9492C107
:1053F000FFEFEF1AFF0A88E0E816F10461F7CE012B
:10540000DF91CF911F910F91FF90EF90DF90CF90A0
:105410000C943F29B80184E0759567958A95E1F76A
:10542000CE010E949F296F2DCE01DF91CF911F9158
:105430000F91FF90EF90DF90CF900C949F2941E067
:105440000E94CC2981E090E008958F929F92AF92C4
:10545000BF92CF92DF92EF92FF92CF93FC01C08078
:10546000D180E280F38020E030E0A901C701B601DD
:105470000E9498DE87FF08C0C701B601905820E05F
:1054800030E048EC52E406C020E030E048EC52E462
:10549000C701B6010E94FEDE0E94F8E36B017C01A9
:1054A000603AF6E87F07F1E08F07910584F020EA83
:1054B00036E841E050E00E94C1E2CA01B9012AE0A9
:1054C00030E040E050E00E94C1E2605D01C060E277
:1054D0006093571180E1C81687E2D806E104F10411
:1054E00094F0C701B60120E137E240E050E00E94AD
:1054F000C1E2CA01B9012AE030E040E050E00E9478
:10550000C1E2605D01C060E260935811E8EECE1622
:10551000E3E0DE06E104F10494F0C701B60128EEF1
:1055200033E040E050E00E94C1E2CA01B9012AE044
:1055300030E040E050E00E94C1E2605D01C060E206
:1055400060935911C701B60124E630E040E050E015
:105550000E94C1E28AE0882E912CA12CB12CCA01B4
:10556000B901A50194010E94C1E2605D60935A11E6
:105570008EE280935B11C701B601A50194010E94E0
:10558000C1E2C62FCA01B901A50194010E94C1E27E
:10559000605D60935C11C05DC0935D1187E591E132
:1055A000CF91FF90EF90DF90CF90BF90AF909F9002
:1055B0008F9008958F929F92AF92BF92CF92DF9279
:1055C000EF92FF92CF9320E030E048EC52E4FC01F0
:1055D00060817181828193810E94FEDE0E94F8E3E6
:1055E0006B017C0197FF0AC0F094E094D094C094C2
:1055F000C11CD11CE11CF11C8DE201C08BE2809327
:105600005711C701B60120E137E240E050E00E94A7
:10561000C1E28AE0882E912CA12CB12CCA01B901DB
:10562000A50194010E94C1E2605D60935811C70119
:10563000B60128EE33E040E050E00E94C1E2CA012A
:10564000B901A50194010E94C1E2605D6093591106
:10565000C701B60124E630E040E050E00E94C1E21C
:10566000CA01B901A50194010E94C1E2605D609385
:105670005A118EE280935B11C701B601A501940116
:105680000E94C1E2C62FCA01B901A50194010E947E
:10569000C1E2605D60935C11C05DC0935D1187E500
:1056A00091E1CF91FF90EF90DF90CF90BF90AF90BE
:1056B0009F908F9008958F929F92AF92BF92CF92BA
:1056C000DF92EF92FF920F931F93CF93DF9300D05F
:1056D00000D0CDB7DEB7FC018381813079F58181BF
:1056E00081FF2CC081899289A389B489892B8A2B57
:1056F0008B2B09F448C07F0140E050E0BA01CF0194
:105700000E94FEC58823D1F0F70185889688A78876
:10571000B08CC18CD28C82E090E0A0E0B0E0F601C9
:1057200080839183A283B3839E012F5F3F4FB50196
:10573000A401C6010E9481C4811102C080E03CC066
:1057400000E010E09801B501A401C6010E94EFC37A
:105750008823A1F389809A80AB80BC80F601878979
:10576000803141F4F8EF8F16FFEF9F06A104B104DA
:1057700060F4DACF88EF88168FEF9806A8068FE0DE
:10578000B80618F4D1CF81E017C0F701158A168A40
:10579000178A108E118A128A138A148A818180686E
:1057A0008183C7010E94CBC5882341F240E050E0CD
:1057B000BA01C7010E94FEC50F900F900F900F9085
:1057C000DF91CF911F910F91FF90EF90DF90CF90DD
:1057D000BF90AF909F908F9008950F931F93CF939A
:1057E000DF938C01E8E1FAE18491EF0121968823AF
:1057F00021F00E94E4B3FE01F7CFF8018491EF019C
:105800002196882321F00E94E4B3FE01F7CF609136
:1058100060047091610480916204909163040E941D
:10582000F9B68AE00E94E4B30E94189510925F04D2
:1058300010925E04DF91CF911F910F910895CF9345
:10584000DF93CDB7DEB780915D04811112C09E0158
:10585000285F3F4F4E815F816CE370E087E091E00D
:105860000E945FDE0E94154383E080930601109240
:105870005C04DF91CF9108958091790C90917A0C1E
:1058800081309105B9F1029759F40E94C98460935F
:105890007B0C70937C0C80937D0C90937E0C18C0D5
:1058A00010927F0C1092800C1092810C1092820C3E
:1058B0001092830C1092840C1092850C1092860C1E
:1058C00010927B0C10927C0C10927D0C10927E0C2E
:1058D00081E090E090937A0C8093790C0E9423C22F
:1058E00060937F0C7093800C8093810C9093820C5A
:1058F00081E0089580E00895CF93DF93EC01288143
:105900002C3008F05BC030E01616170664F4F9017D
:10591000EE0FFF1FE20FF31FEF5AF34F6F739081EB
:10592000907C692B6083F901EE0FFF1F2E0F3F1F44
:10593000F901EF5AF34F808161E08F730E94C1C17A
:1059400019821A8288816CE00E9410E59CE0899F90
:10595000B001112440E050E09B01240F351FF901F4
:10596000EE0FFF1F2E0F3F1FF901EF5AF34F9081EB
:1059700096FD16C04F5F5F4F4C30510569F781119E
:105980000FC01092900082E08093910010929500D9
:1059900010929400C19A809171008260809371008E
:1059A0008881E82FF0E09F01220F331FE20FF31FE1
:1059B000EF5AF34F90819064908301C08FEFDF9195
:1059C000CF910895EF92FF921F93CF93DF93D091E1
:1059D000590481E0D82710915A041827C0915B041C
:1059E000C827D11104C0111102C009F482C0E6E336
:1059F000FAE184917F019FEFE91AF90A811103C04E
:105A0000ECE4F8E004C00E94E4B3F701F2CF849123
:105A10007F019FEFE91AF90A882321F00E94E4B37D
:105A2000F701F5CFDD2369F0EAE4F8E084917F0126
:105A30009FEFE91AF90A882321F00E94E4B3F701E5
:105A4000F5CF112369F0E8E4F8E084917F019FEF3E
:105A5000E91AF90A882321F00E94E4B3F701F5CF8F
:105A6000CC2319F0E6E4F8E003C0EEE3F8E00BC065
:105A700084917F019FEFE91AF90A8823B1F30E940C
:105A8000E4B3F701F5CF84917F019FEFE91AF90A9A
:105A9000882321F00E94E4B3F701F5CFCC2319F05D
:105AA0004DE052E002C048E252E0112319F02FE02D
:105AB00032E002C028E232E0DD2319F081E192E019
:105AC00002C088E292E05F934F933F932F939F939E
:105AD0008F938CE298E09F938F931F920E941F2CCC
